{
  "contractName": "AdCoin",
  "abi": [
    {
      "constant": true,
      "inputs": [],
      "name": "name",
      "outputs": [
        {
          "name": "",
          "type": "string"
        }
      ],
      "payable": false,
      "stateMutability": "view",
      "type": "function"
    },
    {
      "constant": false,
      "inputs": [
        {
          "name": "spender",
          "type": "address"
        },
        {
          "name": "value",
          "type": "uint256"
        }
      ],
      "name": "approve",
      "outputs": [
        {
          "name": "",
          "type": "bool"
        }
      ],
      "payable": false,
      "stateMutability": "nonpayable",
      "type": "function"
    },
    {
      "constant": false,
      "inputs": [
        {
          "name": "_ballotId",
          "type": "uint256"
        },
        {
          "name": "_yesVote",
          "type": "bool"
        }
      ],
      "name": "castVote",
      "outputs": [
        {
          "name": "",
          "type": "bool"
        }
      ],
      "payable": false,
      "stateMutability": "nonpayable",
      "type": "function"
    },
    {
      "constant": true,
      "inputs": [],
      "name": "totalSupply",
      "outputs": [
        {
          "name": "",
          "type": "uint256"
        }
      ],
      "payable": false,
      "stateMutability": "view",
      "type": "function"
    },
    {
      "constant": false,
      "inputs": [
        {
          "name": "_from",
          "type": "address"
        },
        {
          "name": "_to",
          "type": "address"
        },
        {
          "name": "_value",
          "type": "uint256"
        }
      ],
      "name": "transferFrom",
      "outputs": [
        {
          "name": "",
          "type": "bool"
        }
      ],
      "payable": false,
      "stateMutability": "nonpayable",
      "type": "function"
    },
    {
      "constant": false,
      "inputs": [
        {
          "name": "_addresses",
          "type": "address[]"
        },
        {
          "name": "_amounts",
          "type": "uint256[]"
        }
      ],
      "name": "distribute",
      "outputs": [
        {
          "name": "",
          "type": "bool[]"
        }
      ],
      "payable": false,
      "stateMutability": "nonpayable",
      "type": "function"
    },
    {
      "constant": true,
      "inputs": [],
      "name": "INITIAL_SUPPLY",
      "outputs": [
        {
          "name": "",
          "type": "uint256"
        }
      ],
      "payable": false,
      "stateMutability": "view",
      "type": "function"
    },
    {
      "constant": true,
      "inputs": [],
      "name": "decimals",
      "outputs": [
        {
          "name": "",
          "type": "uint8"
        }
      ],
      "payable": false,
      "stateMutability": "view",
      "type": "function"
    },
    {
      "constant": false,
      "inputs": [
        {
          "name": "spender",
          "type": "address"
        },
        {
          "name": "addedValue",
          "type": "uint256"
        }
      ],
      "name": "increaseAllowance",
      "outputs": [
        {
          "name": "",
          "type": "bool"
        }
      ],
      "payable": false,
      "stateMutability": "nonpayable",
      "type": "function"
    },
    {
      "constant": false,
      "inputs": [
        {
          "name": "to",
          "type": "address"
        },
        {
          "name": "amount",
          "type": "uint256"
        }
      ],
      "name": "mint",
      "outputs": [
        {
          "name": "",
          "type": "bool"
        }
      ],
      "payable": false,
      "stateMutability": "nonpayable",
      "type": "function"
    },
    {
      "constant": false,
      "inputs": [
        {
          "name": "_whiteListAddy",
          "type": "address"
        }
      ],
      "name": "whitelistAddress",
      "outputs": [
        {
          "name": "",
          "type": "bool"
        }
      ],
      "payable": false,
      "stateMutability": "nonpayable",
      "type": "function"
    },
    {
      "constant": false,
      "inputs": [
        {
          "name": "_ballotName",
          "type": "string"
        }
      ],
      "name": "createBallot",
      "outputs": [
        {
          "name": "ballotId",
          "type": "uint256"
        }
      ],
      "payable": false,
      "stateMutability": "nonpayable",
      "type": "function"
    },
    {
      "constant": true,
      "inputs": [],
      "name": "getAllBallotIds",
      "outputs": [
        {
          "name": "",
          "type": "uint256[]"
        }
      ],
      "payable": false,
      "stateMutability": "view",
      "type": "function"
    },
    {
      "constant": true,
      "inputs": [
        {
          "name": "",
          "type": "uint256"
        }
      ],
      "name": "ballots",
      "outputs": [
        {
          "name": "name",
          "type": "string"
        },
        {
          "name": "open",
          "type": "bool"
        },
        {
          "name": "yesVotes",
          "type": "uint256"
        },
        {
          "name": "noVotes",
          "type": "uint256"
        }
      ],
      "payable": false,
      "stateMutability": "view",
      "type": "function"
    },
    {
      "constant": true,
      "inputs": [
        {
          "name": "_ballotId",
          "type": "uint256"
        }
      ],
      "name": "showBallot",
      "outputs": [
        {
          "name": "_ballotName",
          "type": "string"
        },
        {
          "name": "_ballotOpen",
          "type": "bool"
        },
        {
          "name": "_ballotYesVotes",
          "type": "uint256"
        },
        {
          "name": "_ballotNoVotes",
          "type": "uint256"
        }
      ],
      "payable": false,
      "stateMutability": "view",
      "type": "function"
    },
    {
      "constant": true,
      "inputs": [
        {
          "name": "",
          "type": "address"
        }
      ],
      "name": "_balances",
      "outputs": [
        {
          "name": "",
          "type": "uint256"
        }
      ],
      "payable": false,
      "stateMutability": "view",
      "type": "function"
    },
    {
      "constant": true,
      "inputs": [
        {
          "name": "_checkAddress",
          "type": "address"
        }
      ],
      "name": "isWhiteListed",
      "outputs": [
        {
          "name": "",
          "type": "bool"
        }
      ],
      "payable": false,
      "stateMutability": "view",
      "type": "function"
    },
    {
      "constant": true,
      "inputs": [
        {
          "name": "owner",
          "type": "address"
        }
      ],
      "name": "balanceOf",
      "outputs": [
        {
          "name": "",
          "type": "uint256"
        }
      ],
      "payable": false,
      "stateMutability": "view",
      "type": "function"
    },
    {
      "constant": true,
      "inputs": [
        {
          "name": "_ballotId",
          "type": "uint256"
        }
      ],
      "name": "isValidBallot",
      "outputs": [
        {
          "name": "",
          "type": "bool"
        }
      ],
      "payable": false,
      "stateMutability": "view",
      "type": "function"
    },
    {
      "constant": true,
      "inputs": [],
      "name": "getHighestBallotId",
      "outputs": [
        {
          "name": "",
          "type": "uint256"
        }
      ],
      "payable": false,
      "stateMutability": "view",
      "type": "function"
    },
    {
      "constant": true,
      "inputs": [],
      "name": "symbol",
      "outputs": [
        {
          "name": "",
          "type": "string"
        }
      ],
      "payable": false,
      "stateMutability": "view",
      "type": "function"
    },
    {
      "constant": false,
      "inputs": [
        {
          "name": "account",
          "type": "address"
        }
      ],
      "name": "addMinter",
      "outputs": [],
      "payable": false,
      "stateMutability": "nonpayable",
      "type": "function"
    },
    {
      "constant": false,
      "inputs": [],
      "name": "renounceMinter",
      "outputs": [],
      "payable": false,
      "stateMutability": "nonpayable",
      "type": "function"
    },
    {
      "constant": false,
      "inputs": [
        {
          "name": "spender",
          "type": "address"
        },
        {
          "name": "subtractedValue",
          "type": "uint256"
        }
      ],
      "name": "decreaseAllowance",
      "outputs": [
        {
          "name": "",
          "type": "bool"
        }
      ],
      "payable": false,
      "stateMutability": "nonpayable",
      "type": "function"
    },
    {
      "constant": false,
      "inputs": [
        {
          "name": "_to",
          "type": "address"
        },
        {
          "name": "_value",
          "type": "uint256"
        }
      ],
      "name": "transfer",
      "outputs": [
        {
          "name": "",
          "type": "bool"
        }
      ],
      "payable": false,
      "stateMutability": "nonpayable",
      "type": "function"
    },
    {
      "constant": true,
      "inputs": [
        {
          "name": "account",
          "type": "address"
        }
      ],
      "name": "isMinter",
      "outputs": [
        {
          "name": "",
          "type": "bool"
        }
      ],
      "payable": false,
      "stateMutability": "view",
      "type": "function"
    },
    {
      "constant": true,
      "inputs": [],
      "name": "getAllOpenBallotIds",
      "outputs": [
        {
          "name": "",
          "type": "uint256[]"
        }
      ],
      "payable": false,
      "stateMutability": "view",
      "type": "function"
    },
    {
      "constant": false,
      "inputs": [
        {
          "name": "_ballotId",
          "type": "uint256"
        }
      ],
      "name": "closeBallot",
      "outputs": [
        {
          "name": "",
          "type": "bool"
        }
      ],
      "payable": false,
      "stateMutability": "nonpayable",
      "type": "function"
    },
    {
      "constant": true,
      "inputs": [
        {
          "name": "owner",
          "type": "address"
        },
        {
          "name": "spender",
          "type": "address"
        }
      ],
      "name": "allowance",
      "outputs": [
        {
          "name": "",
          "type": "uint256"
        }
      ],
      "payable": false,
      "stateMutability": "view",
      "type": "function"
    },
    {
      "constant": false,
      "inputs": [
        {
          "name": "_whiteListAddys",
          "type": "address[]"
        }
      ],
      "name": "whiteListAddresses",
      "outputs": [
        {
          "name": "",
          "type": "bool[]"
        }
      ],
      "payable": false,
      "stateMutability": "nonpayable",
      "type": "function"
    },
    {
      "constant": true,
      "inputs": [
        {
          "name": "_ballotId",
          "type": "uint256"
        }
      ],
      "name": "isBallotOpen",
      "outputs": [
        {
          "name": "",
          "type": "bool"
        }
      ],
      "payable": false,
      "stateMutability": "view",
      "type": "function"
    },
    {
      "constant": false,
      "inputs": [
        {
          "name": "_ballotId",
          "type": "uint256"
        }
      ],
      "name": "openBallot",
      "outputs": [
        {
          "name": "",
          "type": "bool"
        }
      ],
      "payable": false,
      "stateMutability": "nonpayable",
      "type": "function"
    },
    {
      "inputs": [],
      "payable": false,
      "stateMutability": "nonpayable",
      "type": "constructor"
    },
    {
      "anonymous": false,
      "inputs": [
        {
          "indexed": true,
          "name": "account",
          "type": "address"
        }
      ],
      "name": "MinterAdded",
      "type": "event"
    },
    {
      "anonymous": false,
      "inputs": [
        {
          "indexed": true,
          "name": "account",
          "type": "address"
        }
      ],
      "name": "MinterRemoved",
      "type": "event"
    }
  ],
  "bytecode": "0x60806040523480156200001157600080fd5b506200002c3362000058640100000000026401000000009004565b6200005133600260ff16600a0a600002620000c2640100000000026401000000009004565b5062000387565b6200007c8160036200010f6401000000000262003704179091906401000000009004565b8073ffffffffffffffffffffffffffffffffffffffff167f6ae172837ea30b801fbfcdd4108aa1d5bf8ff775444fd70256b44e6bf3dfc3f660405160405180910390a250565b6000620000de33620001aa640100000000026401000000009004565b1515620000ea57600080fd5b620001058383620001d7640100000000026401000000009004565b6001905092915050565b600073ffffffffffffffffffffffffffffffffffffffff168173ffffffffffffffffffffffffffffffffffffffff16141515156200014c57600080fd5b60018260000160008373ffffffffffffffffffffffffffffffffffffffff1673ffffffffffffffffffffffffffffffffffffffff16815260200190815260200160002060006101000a81548160ff0219169083151502179055505050565b6000620001d0826003620002d06401000000000262003670179091906401000000009004565b9050919050565b60008273ffffffffffffffffffffffffffffffffffffffff1614151515620001fe57600080fd5b62000223816002546200036564010000000002620034c3179091906401000000009004565b6002819055506200028a816000808573ffffffffffffffffffffffffffffffffffffffff1673ffffffffffffffffffffffffffffffffffffffff168152602001908152602001600020546200036564010000000002620034c3179091906401000000009004565b6000808473ffffffffffffffffffffffffffffffffffffffff1673ffffffffffffffffffffffffffffffffffffffff168152602001908152602001600020819055505050565b60008073ffffffffffffffffffffffffffffffffffffffff168273ffffffffffffffffffffffffffffffffffffffff16141515156200030e57600080fd5b8260000160008373ffffffffffffffffffffffffffffffffffffffff1673ffffffffffffffffffffffffffffffffffffffff16815260200190815260200160002060009054906101000a900460ff16905092915050565b60008082840190508381101515156200037d57600080fd5b8091505092915050565b61393580620003976000396000f300608060405260043610610196576000357c0100000000000000000000000000000000000000000000000000000000900463ffffffff16806306fdde031461019b578063095ea7b31461022b57806315373e3d1461029057806318160ddd146102e157806323b872dd1461030c5780632929abe6146103915780632ff2e9dc1461048f578063313ce567146104ba57806339509351146104eb57806340c10f191461055057806341566585146105b557806346a8657614610610578063562d0e611461068d5780635c632b38146106f95780636eb0cfc5146107b85780636ebcf607146108775780636f9170f6146108ce57806370a082311461092957806370d1a103146109805780637fc09ea4146109c557806395d89b41146109f0578063983b2d5614610a805780639865027514610ac3578063a457c2d714610ada578063a9059cbb14610b3f578063aa271e1a14610ba4578063bd309dd914610bff578063d045f1e414610c6b578063dd62ed3e14610cb0578063e13639db14610d27578063f0b0b7cd14610de2578063f867a2d814610e27575b600080fd5b3480156101a757600080fd5b506101b0610e6c565b6040518080602001828103825283818151815260200191508051906020019080838360005b838110156101f05780820151818401526020810190506101d5565b50505050905090810190601f16801561021d5780820380516001836020036101000a031916815260200191505b509250505060405180910390f35b34801561023757600080fd5b50610276600480360381019080803573ffffffffffffffffffffffffffffffffffffffff16906020019092919080359060200190929190505050610ea5565b604051808215151515815260200191505060405180910390f35b34801561029c57600080fd5b506102c760048036038101908080359060200190929190803515159060200190929190505050610f6d565b604051808215151515815260200191505060405180910390f35b3480156102ed57600080fd5b506102f6611a6f565b6040518082815260200191505060405180910390f35b34801561031857600080fd5b50610377600480360381019080803573ffffffffffffffffffffffffffffffffffffffff169060200190929190803573ffffffffffffffffffffffffffffffffffffffff16906020019092919080359060200190929190505050611a79565b604051808215151515815260200191505060405180910390f35b34801561039d57600080fd5b506104386004803603810190808035906020019082018035906020019080806020026020016040519081016040528093929190818152602001838360200280828437820191505050505050919291929080359060200190820180359060200190808060200260200160405190810160405280939291908181526020018383602002808284378201915050505050509192919290505050612297565b6040518080602001828103825283818151815260200191508051906020019060200280838360005b8381101561047b578082015181840152602081019050610460565b505050509050019250505060405180910390f35b34801561049b57600080fd5b506104a461230a565b6040518082815260200191505060405180910390f35b3480156104c657600080fd5b506104cf612318565b604051808260ff1660ff16815260200191505060405180910390f35b3480156104f757600080fd5b50610536600480360381019080803573ffffffffffffffffffffffffffffffffffffffff1690602001909291908035906020019092919050505061231d565b604051808215151515815260200191505060405180910390f35b34801561055c57600080fd5b5061059b600480360381019080803573ffffffffffffffffffffffffffffffffffffffff16906020019092919080359060200190929190505050612473565b604051808215151515815260200191505060405180910390f35b3480156105c157600080fd5b506105f6600480360381019080803573ffffffffffffffffffffffffffffffffffffffff16906020019092919050505061249d565b604051808215151515815260200191505060405180910390f35b34801561061c57600080fd5b50610677600480360381019080803590602001908201803590602001908080601f0160208091040260200160405190810160405280939291908181526020018383808284378201915050505050509192919290505050612514565b6040518082815260200191505060405180910390f35b34801561069957600080fd5b506106a2612604565b6040518080602001828103825283818151815260200191508051906020019060200280838360005b838110156106e55780820151818401526020810190506106ca565b505050509050019250505060405180910390f35b34801561070557600080fd5b506107246004803603810190808035906020019092919050505061265c565b604051808060200185151515158152602001848152602001838152602001828103825286818151815260200191508051906020019080838360005b8381101561077a57808201518184015260208101905061075f565b50505050905090810190601f1680156107a75780820380516001836020036101000a031916815260200191505b509550505050505060405180910390f35b3480156107c457600080fd5b506107e360048036038101908080359060200190929190505050612731565b604051808060200185151515158152602001848152602001838152602001828103825286818151815260200191508051906020019080838360005b8381101561083957808201518184015260208101905061081e565b50505050905090810190601f1680156108665780820380516001836020036101000a031916815260200191505b509550505050505060405180910390f35b34801561088357600080fd5b506108b8600480360381019080803573ffffffffffffffffffffffffffffffffffffffff16906020019092919050505061284b565b6040518082815260200191505060405180910390f35b3480156108da57600080fd5b5061090f600480360381019080803573ffffffffffffffffffffffffffffffffffffffff169060200190929190505050612863565b604051808215151515815260200191505060405180910390f35b34801561093557600080fd5b5061096a600480360381019080803573ffffffffffffffffffffffffffffffffffffffff1690602001909291905050506128b9565b6040518082815260200191505060405180910390f35b34801561098c57600080fd5b506109ab60048036038101908080359060200190929190505050612901565b604051808215151515815260200191505060405180910390f35b3480156109d157600080fd5b506109da61291c565b6040518082815260200191505060405180910390f35b3480156109fc57600080fd5b50610a05612926565b6040518080602001828103825283818151815260200191508051906020019080838360005b83811015610a45578082015181840152602081019050610a2a565b50505050905090810190601f168015610a725780820380516001836020036101000a031916815260200191505b509250505060405180910390f35b348015610a8c57600080fd5b50610ac1600480360381019080803573ffffffffffffffffffffffffffffffffffffffff16906020019092919050505061295f565b005b348015610acf57600080fd5b50610ad861297f565b005b348015610ae657600080fd5b50610b25600480360381019080803573ffffffffffffffffffffffffffffffffffffffff1690602001909291908035906020019092919050505061298a565b604051808215151515815260200191505060405180910390f35b348015610b4b57600080fd5b50610b8a600480360381019080803573ffffffffffffffffffffffffffffffffffffffff16906020019092919080359060200190929190505050612ae0565b604051808215151515815260200191505060405180910390f35b348015610bb057600080fd5b50610be5600480360381019080803573ffffffffffffffffffffffffffffffffffffffff169060200190929190505050613163565b604051808215151515815260200191505060405180910390f35b348015610c0b57600080fd5b50610c14613180565b6040518080602001828103825283818151815260200191508051906020019060200280838360005b83811015610c57578082015181840152602081019050610c3c565b505050509050019250505060405180910390f35b348015610c7757600080fd5b50610c96600480360381019080803590602001909291905050506131d8565b604051808215151515815260200191505060405180910390f35b348015610cbc57600080fd5b50610d11600480360381019080803573ffffffffffffffffffffffffffffffffffffffff169060200190929190803573ffffffffffffffffffffffffffffffffffffffff1690602001909291905050506132c9565b6040518082815260200191505060405180910390f35b348015610d3357600080fd5b50610d8b60048036038101908080359060200190820180359060200190808060200260200160405190810160405280939291908181526020018383602002808284378201915050505050509192919290505050613350565b6040518080602001828103825283818151815260200191508051906020019060200280838360005b83811015610dce578082015181840152602081019050610db3565b505050509050019250505060405180910390f35b348015610dee57600080fd5b50610e0d600480360381019080803590602001909291905050506133aa565b604051808215151515815260200191505060405180910390f35b348015610e3357600080fd5b50610e52600480360381019080803590602001909291905050506133ed565b604051808215151515815260200191505060405180910390f35b6040805190810160405280601381526020017f506f6c697469636f696e202d204164436f696e0000000000000000000000000081525081565b60008073ffffffffffffffffffffffffffffffffffffffff168373ffffffffffffffffffffffffffffffffffffffff1614151515610ee257600080fd5b81600160003373ffffffffffffffffffffffffffffffffffffffff1673ffffffffffffffffffffffffffffffffffffffff16815260200190815260200160002060008573ffffffffffffffffffffffffffffffffffffffff1673ffffffffffffffffffffffffffffffffffffffff168152602001908152602001600020819055506001905092915050565b60003360011515600460008373ffffffffffffffffffffffffffffffffffffffff1673ffffffffffffffffffffffffffffffffffffffff16815260200190815260200160002060009054906101000a900460ff161515141515610fcf57600080fd5b83610fd9816133aa565b1515610fe457600080fd5b60008060003373ffffffffffffffffffffffffffffffffffffffff1673ffffffffffffffffffffffffffffffffffffffff1681526020019081526020016000205411151561103157600080fd5b6000600a600087815260200190815260200160002060003373ffffffffffffffffffffffffffffffffffffffff1673ffffffffffffffffffffffffffffffffffffffff16815260200190815260200160002060000154111561144b57831561127f576000803373ffffffffffffffffffffffffffffffffffffffff1673ffffffffffffffffffffffffffffffffffffffff16815260200190815260200160002054600a600087815260200190815260200160002060003373ffffffffffffffffffffffffffffffffffffffff1673ffffffffffffffffffffffffffffffffffffffff16815260200190815260200160002060000154101561127a57600a600086815260200190815260200160002060003373ffffffffffffffffffffffffffffffffffffffff1673ffffffffffffffffffffffffffffffffffffffff168152602001908152602001600020600001546000803373ffffffffffffffffffffffffffffffffffffffff1673ffffffffffffffffffffffffffffffffffffffff168152602001908152602001600020540360066000878152602001908152602001600020600201600082825401925050819055506000803373ffffffffffffffffffffffffffffffffffffffff1673ffffffffffffffffffffffffffffffffffffffff16815260200190815260200160002054600a600087815260200190815260200160002060003373ffffffffffffffffffffffffffffffffffffffff1673ffffffffffffffffffffffffffffffffffffffff168152602001908152602001600020600001819055505b611446565b600a600086815260200190815260200160002060003373ffffffffffffffffffffffffffffffffffffffff1673ffffffffffffffffffffffffffffffffffffffff168152602001908152602001600020600001546006600087815260200190815260200160002060020160008282540392505081905550600a600086815260200190815260200160002060003373ffffffffffffffffffffffffffffffffffffffff1673ffffffffffffffffffffffffffffffffffffffff168152602001908152602001600020600001600090556000803373ffffffffffffffffffffffffffffffffffffffff1673ffffffffffffffffffffffffffffffffffffffff1681526020019081526020016000205460066000878152602001908152602001600020600301600082825401925050819055506000803373ffffffffffffffffffffffffffffffffffffffff1673ffffffffffffffffffffffffffffffffffffffff16815260200190815260200160002054600a600087815260200190815260200160002060003373ffffffffffffffffffffffffffffffffffffffff1673ffffffffffffffffffffffffffffffffffffffff168152602001908152602001600020600101819055505b611a63565b6000600a600087815260200190815260200160002060003373ffffffffffffffffffffffffffffffffffffffff1673ffffffffffffffffffffffffffffffffffffffff16815260200190815260200160002060010154111561186557831561167857600a600086815260200190815260200160002060003373ffffffffffffffffffffffffffffffffffffffff1673ffffffffffffffffffffffffffffffffffffffff168152602001908152602001600020600101546006600087815260200190815260200160002060030160008282540392505081905550600a600086815260200190815260200160002060003373ffffffffffffffffffffffffffffffffffffffff1673ffffffffffffffffffffffffffffffffffffffff168152602001908152602001600020600101600090556000803373ffffffffffffffffffffffffffffffffffffffff1673ffffffffffffffffffffffffffffffffffffffff1681526020019081526020016000205460066000878152602001908152602001600020600201600082825401925050819055506000803373ffffffffffffffffffffffffffffffffffffffff1673ffffffffffffffffffffffffffffffffffffffff16815260200190815260200160002054600a600087815260200190815260200160002060003373ffffffffffffffffffffffffffffffffffffffff1673ffffffffffffffffffffffffffffffffffffffff16815260200190815260200160002060000181905550611860565b6000803373ffffffffffffffffffffffffffffffffffffffff1673ffffffffffffffffffffffffffffffffffffffff16815260200190815260200160002054600a600087815260200190815260200160002060003373ffffffffffffffffffffffffffffffffffffffff1673ffffffffffffffffffffffffffffffffffffffff16815260200190815260200160002060010154101561185f57600a600086815260200190815260200160002060003373ffffffffffffffffffffffffffffffffffffffff1673ffffffffffffffffffffffffffffffffffffffff168152602001908152602001600020600101546000803373ffffffffffffffffffffffffffffffffffffffff1673ffffffffffffffffffffffffffffffffffffffff168152602001908152602001600020540360066000878152602001908152602001600020600301600082825401925050819055506000803373ffffffffffffffffffffffffffffffffffffffff1673ffffffffffffffffffffffffffffffffffffffff16815260200190815260200160002054600a600087815260200190815260200160002060003373ffffffffffffffffffffffffffffffffffffffff1673ffffffffffffffffffffffffffffffffffffffff168152602001908152602001600020600101819055505b5b611a62565b8315611968576000803373ffffffffffffffffffffffffffffffffffffffff1673ffffffffffffffffffffffffffffffffffffffff1681526020019081526020016000205460066000878152602001908152602001600020600201600082825401925050819055506000803373ffffffffffffffffffffffffffffffffffffffff1673ffffffffffffffffffffffffffffffffffffffff16815260200190815260200160002054600a600087815260200190815260200160002060003373ffffffffffffffffffffffffffffffffffffffff1673ffffffffffffffffffffffffffffffffffffffff16815260200190815260200160002060000181905550611a61565b6000803373ffffffffffffffffffffffffffffffffffffffff1673ffffffffffffffffffffffffffffffffffffffff1681526020019081526020016000205460066000878152602001908152602001600020600301600082825401925050819055506000803373ffffffffffffffffffffffffffffffffffffffff1673ffffffffffffffffffffffffffffffffffffffff16815260200190815260200160002054600a600087815260200190815260200160002060003373ffffffffffffffffffffffffffffffffffffffff1673ffffffffffffffffffffffffffffffffffffffff168152602001908152602001600020600101819055505b5b5b60019250505092915050565b6000600254905090565b6000806000808673ffffffffffffffffffffffffffffffffffffffff1673ffffffffffffffffffffffffffffffffffffffff168152602001908152602001600020548311151515611ac957600080fd5b600160008673ffffffffffffffffffffffffffffffffffffffff1673ffffffffffffffffffffffffffffffffffffffff16815260200190815260200160002060003373ffffffffffffffffffffffffffffffffffffffff1673ffffffffffffffffffffffffffffffffffffffff168152602001908152602001600020548311151515611b5457600080fd5b600073ffffffffffffffffffffffffffffffffffffffff168473ffffffffffffffffffffffffffffffffffffffff1614151515611b9057600080fd5b611be1836000808873ffffffffffffffffffffffffffffffffffffffff1673ffffffffffffffffffffffffffffffffffffffff168152602001908152602001600020546134a290919063ffffffff16565b6000808773ffffffffffffffffffffffffffffffffffffffff1673ffffffffffffffffffffffffffffffffffffffff16815260200190815260200160002081905550611c74836000808773ffffffffffffffffffffffffffffffffffffffff1673ffffffffffffffffffffffffffffffffffffffff168152602001908152602001600020546134c390919063ffffffff16565b6000808673ffffffffffffffffffffffffffffffffffffffff1673ffffffffffffffffffffffffffffffffffffffff16815260200190815260200160002081905550611d4583600160008873ffffffffffffffffffffffffffffffffffffffff1673ffffffffffffffffffffffffffffffffffffffff16815260200190815260200160002060003373ffffffffffffffffffffffffffffffffffffffff1673ffffffffffffffffffffffffffffffffffffffff168152602001908152602001600020546134a290919063ffffffff16565b600160008773ffffffffffffffffffffffffffffffffffffffff1673ffffffffffffffffffffffffffffffffffffffff16815260200190815260200160002060003373ffffffffffffffffffffffffffffffffffffffff1673ffffffffffffffffffffffffffffffffffffffff16815260200190815260200160002081905550600090505b60088054905081101561228b576000808673ffffffffffffffffffffffffffffffffffffffff1673ffffffffffffffffffffffffffffffffffffffff16815260200190815260200160002054600a6000600884815481101515611e2957fe5b9060005260206000200154815260200190815260200160002060008773ffffffffffffffffffffffffffffffffffffffff1673ffffffffffffffffffffffffffffffffffffffff16815260200190815260200160002060000154111561202c57611f776000808773ffffffffffffffffffffffffffffffffffffffff1673ffffffffffffffffffffffffffffffffffffffff16815260200190815260200160002054600a6000600885815481101515611ede57fe5b9060005260206000200154815260200190815260200160002060008873ffffffffffffffffffffffffffffffffffffffff1673ffffffffffffffffffffffffffffffffffffffff168152602001908152602001600020600001540360066000600885815481101515611f4c57fe5b90600052602060002001548152602001908152602001600020600201546134a290919063ffffffff16565b506000808673ffffffffffffffffffffffffffffffffffffffff1673ffffffffffffffffffffffffffffffffffffffff16815260200190815260200160002054600a6000600884815481101515611fca57fe5b9060005260206000200154815260200190815260200160002060008773ffffffffffffffffffffffffffffffffffffffff1673ffffffffffffffffffffffffffffffffffffffff1681526020019081526020016000206000018190555061227e565b6000808673ffffffffffffffffffffffffffffffffffffffff1673ffffffffffffffffffffffffffffffffffffffff16815260200190815260200160002054600a600060088481548110151561207e57fe5b9060005260206000200154815260200190815260200160002060008773ffffffffffffffffffffffffffffffffffffffff1673ffffffffffffffffffffffffffffffffffffffff16815260200190815260200160002060010154111561227d576121cc6000808773ffffffffffffffffffffffffffffffffffffffff1673ffffffffffffffffffffffffffffffffffffffff16815260200190815260200160002054600a600060088581548110151561213357fe5b9060005260206000200154815260200190815260200160002060008873ffffffffffffffffffffffffffffffffffffffff1673ffffffffffffffffffffffffffffffffffffffff1681526020019081526020016000206001015403600660006008858154811015156121a157fe5b90600052602060002001548152602001908152602001600020600301546134a290919063ffffffff16565b506000808673ffffffffffffffffffffffffffffffffffffffff1673ffffffffffffffffffffffffffffffffffffffff16815260200190815260200160002054600a600060088481548110151561221f57fe5b9060005260206000200154815260200190815260200160002060008773ffffffffffffffffffffffffffffffffffffffff1673ffffffffffffffffffffffffffffffffffffffff168152602001908152602001600020600101819055505b5b8080600101915050611dca565b60019150509392505050565b606060006122a433613163565b15156122af57600080fd5b600090505b8351811015612303576122f584828151811015156122ce57fe5b9060200190602002015184838151811015156122e657fe5b90602001906020020151612473565b5080806001019150506122b4565b5092915050565b600260ff16600a0a60000281565b600281565b60008073ffffffffffffffffffffffffffffffffffffffff168373ffffffffffffffffffffffffffffffffffffffff161415151561235a57600080fd5b6123e982600160003373ffffffffffffffffffffffffffffffffffffffff1673ffffffffffffffffffffffffffffffffffffffff16815260200190815260200160002060008673ffffffffffffffffffffffffffffffffffffffff1673ffffffffffffffffffffffffffffffffffffffff168152602001908152602001600020546134c390919063ffffffff16565b600160003373ffffffffffffffffffffffffffffffffffffffff1673ffffffffffffffffffffffffffffffffffffffff16815260200190815260200160002060008573ffffffffffffffffffffffffffffffffffffffff1673ffffffffffffffffffffffffffffffffffffffff168152602001908152602001600020819055506001905092915050565b600061247e33613163565b151561248957600080fd5b61249383836134e4565b6001905092915050565b60006124a833613163565b15156124b357600080fd5b6001600460008473ffffffffffffffffffffffffffffffffffffffff1673ffffffffffffffffffffffffffffffffffffffff16815260200190815260200160002060006101000a81548160ff02191690831515021790555060019050919050565b600061251f33613163565b151561252a57600080fd5b6005600081548092919060010191905055506080604051908101604052808381526020016000151581526020016000815260200160008152506006600060055481526020019081526020016000206000820151816000019080519060200190612594929190613838565b5060208201518160010160006101000a81548160ff0219169083151502179055506040820151816002015560608201518160030155905050600760055490806001815401808255809150509060018203906000526020600020016000909192909190915055506005549050919050565b6060600780548060200260200160405190810160405280929190818152602001828054801561265257602002820191906000526020600020905b81548152602001906001019080831161263e575b5050505050905090565b6006602052806000526040600020600091509050806000018054600181600116156101000203166002900480601f0160208091040260200160405190810160405280929190818152602001828054600181600116156101000203166002900480156127085780601f106126dd57610100808354040283529160200191612708565b820191906000526020600020905b8154815290600101906020018083116126eb57829003601f168201915b5050505050908060010160009054906101000a900460ff16908060020154908060030154905084565b60606000806000600660008681526020019081526020016000206000016006600087815260200190815260200160002060010160009054906101000a900460ff1660066000888152602001908152602001600020600201546006600089815260200190815260200160002060030154838054600181600116156101000203166002900480601f0160208091040260200160405190810160405280929190818152602001828054600181600116156101000203166002900480156128355780601f1061280a57610100808354040283529160200191612835565b820191906000526020600020905b81548152906001019060200180831161281857829003601f168201915b5050505050935093509350935093509193509193565b60006020528060005260406000206000915090505481565b6000600460008373ffffffffffffffffffffffffffffffffffffffff1673ffffffffffffffffffffffffffffffffffffffff16815260200190815260200160002060009054906101000a900460ff169050919050565b60008060008373ffffffffffffffffffffffffffffffffffffffff1673ffffffffffffffffffffffffffffffffffffffff168152602001908152602001600020549050919050565b600080821415801561291557506005548211155b9050919050565b6000600554905090565b6040805190810160405280600381526020017f504143000000000000000000000000000000000000000000000000000000000081525081565b61296833613163565b151561297357600080fd5b61297c816135bc565b50565b61298833613616565b565b60008073ffffffffffffffffffffffffffffffffffffffff168373ffffffffffffffffffffffffffffffffffffffff16141515156129c757600080fd5b612a5682600160003373ffffffffffffffffffffffffffffffffffffffff1673ffffffffffffffffffffffffffffffffffffffff16815260200190815260200160002060008673ffffffffffffffffffffffffffffffffffffffff1673ffffffffffffffffffffffffffffffffffffffff168152602001908152602001600020546134a290919063ffffffff16565b600160003373ffffffffffffffffffffffffffffffffffffffff1673ffffffffffffffffffffffffffffffffffffffff16815260200190815260200160002060008573ffffffffffffffffffffffffffffffffffffffff1673ffffffffffffffffffffffffffffffffffffffff168152602001908152602001600020819055506001905092915050565b6000806000803373ffffffffffffffffffffffffffffffffffffffff1673ffffffffffffffffffffffffffffffffffffffff168152602001908152602001600020548311151515612b3057600080fd5b600073ffffffffffffffffffffffffffffffffffffffff168473ffffffffffffffffffffffffffffffffffffffff1614151515612b6c57600080fd5b612bbd836000803373ffffffffffffffffffffffffffffffffffffffff1673ffffffffffffffffffffffffffffffffffffffff168152602001908152602001600020546134a290919063ffffffff16565b6000803373ffffffffffffffffffffffffffffffffffffffff1673ffffffffffffffffffffffffffffffffffffffff16815260200190815260200160002081905550612c50836000808773ffffffffffffffffffffffffffffffffffffffff1673ffffffffffffffffffffffffffffffffffffffff168152602001908152602001600020546134c390919063ffffffff16565b6000808673ffffffffffffffffffffffffffffffffffffffff1673ffffffffffffffffffffffffffffffffffffffff16815260200190815260200160002081905550600090505b600880549050811015613158576000803373ffffffffffffffffffffffffffffffffffffffff1673ffffffffffffffffffffffffffffffffffffffff16815260200190815260200160002054600a6000600884815481101515612cf657fe5b9060005260206000200154815260200190815260200160002060003373ffffffffffffffffffffffffffffffffffffffff1673ffffffffffffffffffffffffffffffffffffffff168152602001908152602001600020600001541115612ef957612e446000803373ffffffffffffffffffffffffffffffffffffffff1673ffffffffffffffffffffffffffffffffffffffff16815260200190815260200160002054600a6000600885815481101515612dab57fe5b9060005260206000200154815260200190815260200160002060003373ffffffffffffffffffffffffffffffffffffffff1673ffffffffffffffffffffffffffffffffffffffff168152602001908152602001600020600001540360066000600885815481101515612e1957fe5b90600052602060002001548152602001908152602001600020600201546134a290919063ffffffff16565b506000803373ffffffffffffffffffffffffffffffffffffffff1673ffffffffffffffffffffffffffffffffffffffff16815260200190815260200160002054600a6000600884815481101515612e9757fe5b9060005260206000200154815260200190815260200160002060003373ffffffffffffffffffffffffffffffffffffffff1673ffffffffffffffffffffffffffffffffffffffff1681526020019081526020016000206000018190555061314b565b6000803373ffffffffffffffffffffffffffffffffffffffff1673ffffffffffffffffffffffffffffffffffffffff16815260200190815260200160002054600a6000600884815481101515612f4b57fe5b9060005260206000200154815260200190815260200160002060003373ffffffffffffffffffffffffffffffffffffffff1673ffffffffffffffffffffffffffffffffffffffff16815260200190815260200160002060010154111561314a576130996000803373ffffffffffffffffffffffffffffffffffffffff1673ffffffffffffffffffffffffffffffffffffffff16815260200190815260200160002054600a600060088581548110151561300057fe5b9060005260206000200154815260200190815260200160002060003373ffffffffffffffffffffffffffffffffffffffff1673ffffffffffffffffffffffffffffffffffffffff16815260200190815260200160002060010154036006600060088581548110151561306e57fe5b90600052602060002001548152602001908152602001600020600301546134a290919063ffffffff16565b506000803373ffffffffffffffffffffffffffffffffffffffff1673ffffffffffffffffffffffffffffffffffffffff16815260200190815260200160002054600a60006008848154811015156130ec57fe5b9060005260206000200154815260200190815260200160002060003373ffffffffffffffffffffffffffffffffffffffff1673ffffffffffffffffffffffffffffffffffffffff168152602001908152602001600020600101819055505b5b8080600101915050612c97565b600191505092915050565b600061317982600361367090919063ffffffff16565b9050919050565b606060088054806020026020016040519081016040528092919081815260200182805480156131ce57602002820191906000526020600020905b8154815260200190600101908083116131ba575b5050505050905090565b60006131e333613163565b15156131ee57600080fd5b816131f8816133aa565b151561320357600080fd5b60006006600085815260200190815260200160002060010160006101000a81548160ff02191690831515021790555060016008805490500360096000858152602001908152602001600020541415156132a957600860016008805490500381548110151561326d57fe5b90600052602060002001546008600960008681526020019081526020016000205481548110151561329a57fe5b90600052602060002001819055505b60088054809190600190036132be91906138b8565b506001915050919050565b6000600160008473ffffffffffffffffffffffffffffffffffffffff1673ffffffffffffffffffffffffffffffffffffffff16815260200190815260200160002060008373ffffffffffffffffffffffffffffffffffffffff1673ffffffffffffffffffffffffffffffffffffffff16815260200190815260200160002054905092915050565b6060600061335d33613163565b151561336857600080fd5b600090505b82518110156133a457613396838281518110151561338757fe5b9060200190602002015161249d565b50808060010191505061336d565b50919050565b6000816133b681612901565b15156133c157600080fd5b6006600084815260200190815260200160002060010160009054906101000a900460ff16915050919050565b60006133f833613163565b151561340357600080fd5b60001515613410836133aa565b151514151561341e57600080fd5b60016006600084815260200190815260200160002060010160006101000a81548160ff0219169083151502179055506008829080600181540180825580915050906001820390600052602060002001600090919290919091505550600160088054905003600960008481526020019081526020016000208190555060019050919050565b6000808383111515156134b457600080fd5b82840390508091505092915050565b60008082840190508381101515156134da57600080fd5b8091505092915050565b60008273ffffffffffffffffffffffffffffffffffffffff161415151561350a57600080fd5b61351f816002546134c390919063ffffffff16565b600281905550613576816000808573ffffffffffffffffffffffffffffffffffffffff1673ffffffffffffffffffffffffffffffffffffffff168152602001908152602001600020546134c390919063ffffffff16565b6000808473ffffffffffffffffffffffffffffffffffffffff1673ffffffffffffffffffffffffffffffffffffffff168152602001908152602001600020819055505050565b6135d081600361370490919063ffffffff16565b8073ffffffffffffffffffffffffffffffffffffffff167f6ae172837ea30b801fbfcdd4108aa1d5bf8ff775444fd70256b44e6bf3dfc3f660405160405180910390a250565b61362a81600361379e90919063ffffffff16565b8073ffffffffffffffffffffffffffffffffffffffff167fe94479a9f7e1952cc78f2d6baab678adc1b772d936c6583def489e524cb6669260405160405180910390a250565b60008073ffffffffffffffffffffffffffffffffffffffff168273ffffffffffffffffffffffffffffffffffffffff16141515156136ad57600080fd5b8260000160008373ffffffffffffffffffffffffffffffffffffffff1673ffffffffffffffffffffffffffffffffffffffff16815260200190815260200160002060009054906101000a900460ff16905092915050565b600073ffffffffffffffffffffffffffffffffffffffff168173ffffffffffffffffffffffffffffffffffffffff161415151561374057600080fd5b60018260000160008373ffffffffffffffffffffffffffffffffffffffff1673ffffffffffffffffffffffffffffffffffffffff16815260200190815260200160002060006101000a81548160ff0219169083151502179055505050565b600073ffffffffffffffffffffffffffffffffffffffff168173ffffffffffffffffffffffffffffffffffffffff16141515156137da57600080fd5b60008260000160008373ffffffffffffffffffffffffffffffffffffffff1673ffffffffffffffffffffffffffffffffffffffff16815260200190815260200160002060006101000a81548160ff0219169083151502179055505050565b828054600181600116156101000203166002900490600052602060002090601f016020900481019282601f1061387957805160ff19168380011785556138a7565b828001600101855582156138a7579182015b828111156138a657825182559160200191906001019061388b565b5b5090506138b491906138e4565b5090565b8154818355818111156138df578183600052602060002091820191016138de91906138e4565b5b505050565b61390691905b808211156139025760008160009055506001016138ea565b5090565b905600a165627a7a72305820e713d8d008a76c4f2ca5f0d3cd326c447e7b74ee688ffdc902a97cdf221791e70029",
  "source": "pragma solidity ^0.4.24;\r\n\r\nimport \"./Politicoin.sol\";\r\n\r\ncontract AdCoin is Politicoin {\r\n  string public constant name = \"Politicoin - AdCoin\";\r\n  string public constant symbol = \"PAC\";\r\n  uint8 public constant decimals = 2;\r\n\r\n  uint256 public constant INITIAL_SUPPLY = 0 * (10 **uint(decimals));\r\n\r\n  constructor() public {\r\n    mint(msg.sender, INITIAL_SUPPLY);\r\n  }\r\n\r\n}\r\n",
  "sourcePath": "/mnt/c/Users/lucas.jennings/Documents/politicoin-token/contracts/AdCoin.sol",
  "compiler": {
    "name": "solc",
    "version": "0.4.24+commit.e67f0147.Emscripten.clang"
  },
  "schemaVersion": "2.0.1",
  "updatedAt": "2019-01-20T15:03:15.485Z"
}