{
  "contractName": "AdCoin",
  "abi": [
    {
      "constant": true,
      "inputs": [],
      "name": "name",
      "outputs": [
        {
          "name": "",
          "type": "string"
        }
      ],
      "payable": false,
      "stateMutability": "view",
      "type": "function"
    },
    {
      "constant": false,
      "inputs": [
        {
          "name": "spender",
          "type": "address"
        },
        {
          "name": "value",
          "type": "uint256"
        }
      ],
      "name": "approve",
      "outputs": [
        {
          "name": "",
          "type": "bool"
        }
      ],
      "payable": false,
      "stateMutability": "nonpayable",
      "type": "function"
    },
    {
      "constant": false,
      "inputs": [
        {
          "name": "_ballotId",
          "type": "uint256"
        },
        {
          "name": "_yesVote",
          "type": "bool"
        }
      ],
      "name": "castVote",
      "outputs": [
        {
          "name": "",
          "type": "bool"
        }
      ],
      "payable": false,
      "stateMutability": "nonpayable",
      "type": "function"
    },
    {
      "constant": true,
      "inputs": [],
      "name": "totalSupply",
      "outputs": [
        {
          "name": "",
          "type": "uint256"
        }
      ],
      "payable": false,
      "stateMutability": "view",
      "type": "function"
    },
    {
      "constant": false,
      "inputs": [
        {
          "name": "_from",
          "type": "address"
        },
        {
          "name": "_to",
          "type": "address"
        },
        {
          "name": "_value",
          "type": "uint256"
        }
      ],
      "name": "transferFrom",
      "outputs": [
        {
          "name": "",
          "type": "bool"
        }
      ],
      "payable": false,
      "stateMutability": "nonpayable",
      "type": "function"
    },
    {
      "constant": false,
      "inputs": [
        {
          "name": "_addresses",
          "type": "address[]"
        },
        {
          "name": "_amounts",
          "type": "uint256[]"
        }
      ],
      "name": "distribute",
      "outputs": [
        {
          "name": "",
          "type": "bool[]"
        }
      ],
      "payable": false,
      "stateMutability": "nonpayable",
      "type": "function"
    },
    {
      "constant": true,
      "inputs": [],
      "name": "INITIAL_SUPPLY",
      "outputs": [
        {
          "name": "",
          "type": "uint256"
        }
      ],
      "payable": false,
      "stateMutability": "view",
      "type": "function"
    },
    {
      "constant": true,
      "inputs": [],
      "name": "decimals",
      "outputs": [
        {
          "name": "",
          "type": "uint8"
        }
      ],
      "payable": false,
      "stateMutability": "view",
      "type": "function"
    },
    {
      "constant": false,
      "inputs": [
        {
          "name": "spender",
          "type": "address"
        },
        {
          "name": "addedValue",
          "type": "uint256"
        }
      ],
      "name": "increaseAllowance",
      "outputs": [
        {
          "name": "",
          "type": "bool"
        }
      ],
      "payable": false,
      "stateMutability": "nonpayable",
      "type": "function"
    },
    {
      "constant": false,
      "inputs": [
        {
          "name": "to",
          "type": "address"
        },
        {
          "name": "amount",
          "type": "uint256"
        }
      ],
      "name": "mint",
      "outputs": [
        {
          "name": "",
          "type": "bool"
        }
      ],
      "payable": false,
      "stateMutability": "nonpayable",
      "type": "function"
    },
    {
      "constant": false,
      "inputs": [
        {
          "name": "_whiteListAddy",
          "type": "address"
        }
      ],
      "name": "whitelistAddress",
      "outputs": [
        {
          "name": "",
          "type": "bool"
        }
      ],
      "payable": false,
      "stateMutability": "nonpayable",
      "type": "function"
    },
    {
      "constant": false,
      "inputs": [
        {
          "name": "_ballotName",
          "type": "string"
        }
      ],
      "name": "createBallot",
      "outputs": [
        {
          "name": "ballotId",
          "type": "uint256"
        }
      ],
      "payable": false,
      "stateMutability": "nonpayable",
      "type": "function"
    },
    {
      "constant": true,
      "inputs": [],
      "name": "getAllBallotIds",
      "outputs": [
        {
          "name": "",
          "type": "uint256[]"
        }
      ],
      "payable": false,
      "stateMutability": "view",
      "type": "function"
    },
    {
      "constant": true,
      "inputs": [
        {
          "name": "",
          "type": "uint256"
        }
      ],
      "name": "ballots",
      "outputs": [
        {
          "name": "name",
          "type": "string"
        },
        {
          "name": "open",
          "type": "bool"
        },
        {
          "name": "yesVotes",
          "type": "uint256"
        },
        {
          "name": "noVotes",
          "type": "uint256"
        }
      ],
      "payable": false,
      "stateMutability": "view",
      "type": "function"
    },
    {
      "constant": true,
      "inputs": [
        {
          "name": "_ballotId",
          "type": "uint256"
        },
        {
          "name": "_address",
          "type": "address"
        }
      ],
      "name": "getVotesByBallotByAddress",
      "outputs": [
        {
          "name": "_yesVotes",
          "type": "uint256"
        },
        {
          "name": "_noVotes",
          "type": "uint256"
        }
      ],
      "payable": false,
      "stateMutability": "view",
      "type": "function"
    },
    {
      "constant": true,
      "inputs": [
        {
          "name": "_ballotId",
          "type": "uint256"
        }
      ],
      "name": "showBallot",
      "outputs": [
        {
          "name": "_ballotName",
          "type": "string"
        },
        {
          "name": "_ballotOpen",
          "type": "bool"
        },
        {
          "name": "_ballotYesVotes",
          "type": "uint256"
        },
        {
          "name": "_ballotNoVotes",
          "type": "uint256"
        }
      ],
      "payable": false,
      "stateMutability": "view",
      "type": "function"
    },
    {
      "constant": true,
      "inputs": [
        {
          "name": "",
          "type": "address"
        }
      ],
      "name": "_balances",
      "outputs": [
        {
          "name": "",
          "type": "uint256"
        }
      ],
      "payable": false,
      "stateMutability": "view",
      "type": "function"
    },
    {
      "constant": true,
      "inputs": [
        {
          "name": "_checkAddress",
          "type": "address"
        }
      ],
      "name": "isWhiteListed",
      "outputs": [
        {
          "name": "",
          "type": "bool"
        }
      ],
      "payable": false,
      "stateMutability": "view",
      "type": "function"
    },
    {
      "constant": true,
      "inputs": [
        {
          "name": "owner",
          "type": "address"
        }
      ],
      "name": "balanceOf",
      "outputs": [
        {
          "name": "",
          "type": "uint256"
        }
      ],
      "payable": false,
      "stateMutability": "view",
      "type": "function"
    },
    {
      "constant": true,
      "inputs": [
        {
          "name": "_ballotId",
          "type": "uint256"
        }
      ],
      "name": "isValidBallot",
      "outputs": [
        {
          "name": "",
          "type": "bool"
        }
      ],
      "payable": false,
      "stateMutability": "view",
      "type": "function"
    },
    {
      "constant": true,
      "inputs": [],
      "name": "getHighestBallotId",
      "outputs": [
        {
          "name": "",
          "type": "uint256"
        }
      ],
      "payable": false,
      "stateMutability": "view",
      "type": "function"
    },
    {
      "constant": true,
      "inputs": [],
      "name": "symbol",
      "outputs": [
        {
          "name": "",
          "type": "string"
        }
      ],
      "payable": false,
      "stateMutability": "view",
      "type": "function"
    },
    {
      "constant": false,
      "inputs": [
        {
          "name": "account",
          "type": "address"
        }
      ],
      "name": "addMinter",
      "outputs": [],
      "payable": false,
      "stateMutability": "nonpayable",
      "type": "function"
    },
    {
      "constant": false,
      "inputs": [],
      "name": "renounceMinter",
      "outputs": [],
      "payable": false,
      "stateMutability": "nonpayable",
      "type": "function"
    },
    {
      "constant": false,
      "inputs": [
        {
          "name": "spender",
          "type": "address"
        },
        {
          "name": "subtractedValue",
          "type": "uint256"
        }
      ],
      "name": "decreaseAllowance",
      "outputs": [
        {
          "name": "",
          "type": "bool"
        }
      ],
      "payable": false,
      "stateMutability": "nonpayable",
      "type": "function"
    },
    {
      "constant": false,
      "inputs": [
        {
          "name": "_to",
          "type": "address"
        },
        {
          "name": "_value",
          "type": "uint256"
        }
      ],
      "name": "transfer",
      "outputs": [
        {
          "name": "",
          "type": "bool"
        }
      ],
      "payable": false,
      "stateMutability": "nonpayable",
      "type": "function"
    },
    {
      "constant": true,
      "inputs": [
        {
          "name": "account",
          "type": "address"
        }
      ],
      "name": "isMinter",
      "outputs": [
        {
          "name": "",
          "type": "bool"
        }
      ],
      "payable": false,
      "stateMutability": "view",
      "type": "function"
    },
    {
      "constant": true,
      "inputs": [],
      "name": "getAllOpenBallotIds",
      "outputs": [
        {
          "name": "",
          "type": "uint256[]"
        }
      ],
      "payable": false,
      "stateMutability": "view",
      "type": "function"
    },
    {
      "constant": false,
      "inputs": [
        {
          "name": "_ballotId",
          "type": "uint256"
        }
      ],
      "name": "closeBallot",
      "outputs": [
        {
          "name": "",
          "type": "bool"
        }
      ],
      "payable": false,
      "stateMutability": "nonpayable",
      "type": "function"
    },
    {
      "constant": true,
      "inputs": [
        {
          "name": "owner",
          "type": "address"
        },
        {
          "name": "spender",
          "type": "address"
        }
      ],
      "name": "allowance",
      "outputs": [
        {
          "name": "",
          "type": "uint256"
        }
      ],
      "payable": false,
      "stateMutability": "view",
      "type": "function"
    },
    {
      "constant": false,
      "inputs": [
        {
          "name": "_whiteListAddys",
          "type": "address[]"
        }
      ],
      "name": "whiteListAddresses",
      "outputs": [
        {
          "name": "",
          "type": "bool[]"
        }
      ],
      "payable": false,
      "stateMutability": "nonpayable",
      "type": "function"
    },
    {
      "constant": true,
      "inputs": [
        {
          "name": "_ballotId",
          "type": "uint256"
        }
      ],
      "name": "isBallotOpen",
      "outputs": [
        {
          "name": "",
          "type": "bool"
        }
      ],
      "payable": false,
      "stateMutability": "view",
      "type": "function"
    },
    {
      "constant": false,
      "inputs": [
        {
          "name": "_ballotId",
          "type": "uint256"
        }
      ],
      "name": "openBallot",
      "outputs": [
        {
          "name": "",
          "type": "bool"
        }
      ],
      "payable": false,
      "stateMutability": "nonpayable",
      "type": "function"
    },
    {
      "inputs": [],
      "payable": false,
      "stateMutability": "nonpayable",
      "type": "constructor"
    },
    {
      "anonymous": false,
      "inputs": [
        {
          "indexed": true,
          "name": "account",
          "type": "address"
        }
      ],
      "name": "MinterAdded",
      "type": "event"
    },
    {
      "anonymous": false,
      "inputs": [
        {
          "indexed": true,
          "name": "account",
          "type": "address"
        }
      ],
      "name": "MinterRemoved",
      "type": "event"
    }
  ],
  "bytecode": "0x60806040523480156200001157600080fd5b506200002c3362000058640100000000026401000000009004565b6200005133600260ff16600a0a600002620000c2640100000000026401000000009004565b5062000387565b6200007c8160036200010f640100000000026200382b179091906401000000009004565b8073ffffffffffffffffffffffffffffffffffffffff167f6ae172837ea30b801fbfcdd4108aa1d5bf8ff775444fd70256b44e6bf3dfc3f660405160405180910390a250565b6000620000de33620001aa640100000000026401000000009004565b1515620000ea57600080fd5b620001058383620001d7640100000000026401000000009004565b6001905092915050565b600073ffffffffffffffffffffffffffffffffffffffff168173ffffffffffffffffffffffffffffffffffffffff16141515156200014c57600080fd5b60018260000160008373ffffffffffffffffffffffffffffffffffffffff1673ffffffffffffffffffffffffffffffffffffffff16815260200190815260200160002060006101000a81548160ff0219169083151502179055505050565b6000620001d0826003620002d06401000000000262003797179091906401000000009004565b9050919050565b60008273ffffffffffffffffffffffffffffffffffffffff1614151515620001fe57600080fd5b62000223816002546200036564010000000002620035ea179091906401000000009004565b6002819055506200028a816000808573ffffffffffffffffffffffffffffffffffffffff1673ffffffffffffffffffffffffffffffffffffffff168152602001908152602001600020546200036564010000000002620035ea179091906401000000009004565b6000808473ffffffffffffffffffffffffffffffffffffffff1673ffffffffffffffffffffffffffffffffffffffff168152602001908152602001600020819055505050565b60008073ffffffffffffffffffffffffffffffffffffffff168273ffffffffffffffffffffffffffffffffffffffff16141515156200030e57600080fd5b8260000160008373ffffffffffffffffffffffffffffffffffffffff1673ffffffffffffffffffffffffffffffffffffffff16815260200190815260200160002060009054906101000a900460ff16905092915050565b60008082840190508381101515156200037d57600080fd5b8091505092915050565b613a5c80620003976000396000f3006080604052600436106101a1576000357c0100000000000000000000000000000000000000000000000000000000900463ffffffff16806306fdde03146101a6578063095ea7b31461023657806315373e3d1461029b57806318160ddd146102ec57806323b872dd146103175780632929abe61461039c5780632ff2e9dc1461049a578063313ce567146104c557806339509351146104f657806340c10f191461055b57806341566585146105c057806346a865761461061b578063562d0e61146106985780635c632b3814610704578063652acbc0146107c35780636eb0cfc51461082b5780636ebcf607146108ea5780636f9170f61461094157806370a082311461099c57806370d1a103146109f35780637fc09ea414610a3857806395d89b4114610a63578063983b2d5614610af35780639865027514610b36578063a457c2d714610b4d578063a9059cbb14610bb2578063aa271e1a14610c17578063bd309dd914610c72578063d045f1e414610cde578063dd62ed3e14610d23578063e13639db14610d9a578063f0b0b7cd14610e55578063f867a2d814610e9a575b600080fd5b3480156101b257600080fd5b506101bb610edf565b6040518080602001828103825283818151815260200191508051906020019080838360005b838110156101fb5780820151818401526020810190506101e0565b50505050905090810190601f1680156102285780820380516001836020036101000a031916815260200191505b509250505060405180910390f35b34801561024257600080fd5b50610281600480360381019080803573ffffffffffffffffffffffffffffffffffffffff16906020019092919080359060200190929190505050610f18565b604051808215151515815260200191505060405180910390f35b3480156102a757600080fd5b506102d260048036038101908080359060200190929190803515159060200190929190505050610fe0565b604051808215151515815260200191505060405180910390f35b3480156102f857600080fd5b50610301611ae2565b6040518082815260200191505060405180910390f35b34801561032357600080fd5b50610382600480360381019080803573ffffffffffffffffffffffffffffffffffffffff169060200190929190803573ffffffffffffffffffffffffffffffffffffffff16906020019092919080359060200190929190505050611aec565b604051808215151515815260200191505060405180910390f35b3480156103a857600080fd5b5061044360048036038101908080359060200190820180359060200190808060200260200160405190810160405280939291908181526020018383602002808284378201915050505050509192919290803590602001908201803590602001908080602002602001604051908101604052809392919081815260200183836020028082843782019150505050505091929192905050506122fe565b6040518080602001828103825283818151815260200191508051906020019060200280838360005b8381101561048657808201518184015260208101905061046b565b505050509050019250505060405180910390f35b3480156104a657600080fd5b506104af612371565b6040518082815260200191505060405180910390f35b3480156104d157600080fd5b506104da61237f565b604051808260ff1660ff16815260200191505060405180910390f35b34801561050257600080fd5b50610541600480360381019080803573ffffffffffffffffffffffffffffffffffffffff16906020019092919080359060200190929190505050612384565b604051808215151515815260200191505060405180910390f35b34801561056757600080fd5b506105a6600480360381019080803573ffffffffffffffffffffffffffffffffffffffff169060200190929190803590602001909291905050506124da565b604051808215151515815260200191505060405180910390f35b3480156105cc57600080fd5b50610601600480360381019080803573ffffffffffffffffffffffffffffffffffffffff169060200190929190505050612504565b604051808215151515815260200191505060405180910390f35b34801561062757600080fd5b50610682600480360381019080803590602001908201803590602001908080601f016020809104026020016040519081016040528093929190818152602001838380828437820191505050505050919291929050505061257b565b6040518082815260200191505060405180910390f35b3480156106a457600080fd5b506106ad61266b565b6040518080602001828103825283818151815260200191508051906020019060200280838360005b838110156106f05780820151818401526020810190506106d5565b505050509050019250505060405180910390f35b34801561071057600080fd5b5061072f600480360381019080803590602001909291905050506126c3565b604051808060200185151515158152602001848152602001838152602001828103825286818151815260200191508051906020019080838360005b8381101561078557808201518184015260208101905061076a565b50505050905090810190601f1680156107b25780820380516001836020036101000a031916815260200191505b509550505050505060405180910390f35b3480156107cf57600080fd5b5061080e60048036038101908080359060200190929190803573ffffffffffffffffffffffffffffffffffffffff169060200190929190505050612798565b604051808381526020018281526020019250505060405180910390f35b34801561083757600080fd5b5061085660048036038101908080359060200190929190505050612864565b604051808060200185151515158152602001848152602001838152602001828103825286818151815260200191508051906020019080838360005b838110156108ac578082015181840152602081019050610891565b50505050905090810190601f1680156108d95780820380516001836020036101000a031916815260200191505b509550505050505060405180910390f35b3480156108f657600080fd5b5061092b600480360381019080803573ffffffffffffffffffffffffffffffffffffffff16906020019092919050505061297e565b6040518082815260200191505060405180910390f35b34801561094d57600080fd5b50610982600480360381019080803573ffffffffffffffffffffffffffffffffffffffff169060200190929190505050612996565b604051808215151515815260200191505060405180910390f35b3480156109a857600080fd5b506109dd600480360381019080803573ffffffffffffffffffffffffffffffffffffffff1690602001909291905050506129ec565b6040518082815260200191505060405180910390f35b3480156109ff57600080fd5b50610a1e60048036038101908080359060200190929190505050612a34565b604051808215151515815260200191505060405180910390f35b348015610a4457600080fd5b50610a4d612a4f565b6040518082815260200191505060405180910390f35b348015610a6f57600080fd5b50610a78612a59565b6040518080602001828103825283818151815260200191508051906020019080838360005b83811015610ab8578082015181840152602081019050610a9d565b50505050905090810190601f168015610ae55780820380516001836020036101000a031916815260200191505b509250505060405180910390f35b348015610aff57600080fd5b50610b34600480360381019080803573ffffffffffffffffffffffffffffffffffffffff169060200190929190505050612a92565b005b348015610b4257600080fd5b50610b4b612ab2565b005b348015610b5957600080fd5b50610b98600480360381019080803573ffffffffffffffffffffffffffffffffffffffff16906020019092919080359060200190929190505050612abd565b604051808215151515815260200191505060405180910390f35b348015610bbe57600080fd5b50610bfd600480360381019080803573ffffffffffffffffffffffffffffffffffffffff16906020019092919080359060200190929190505050612c13565b604051808215151515815260200191505060405180910390f35b348015610c2357600080fd5b50610c58600480360381019080803573ffffffffffffffffffffffffffffffffffffffff16906020019092919050505061328a565b604051808215151515815260200191505060405180910390f35b348015610c7e57600080fd5b50610c876132a7565b6040518080602001828103825283818151815260200191508051906020019060200280838360005b83811015610cca578082015181840152602081019050610caf565b505050509050019250505060405180910390f35b348015610cea57600080fd5b50610d09600480360381019080803590602001909291905050506132ff565b604051808215151515815260200191505060405180910390f35b348015610d2f57600080fd5b50610d84600480360381019080803573ffffffffffffffffffffffffffffffffffffffff169060200190929190803573ffffffffffffffffffffffffffffffffffffffff1690602001909291905050506133f0565b6040518082815260200191505060405180910390f35b348015610da657600080fd5b50610dfe60048036038101908080359060200190820180359060200190808060200260200160405190810160405280939291908181526020018383602002808284378201915050505050509192919290505050613477565b6040518080602001828103825283818151815260200191508051906020019060200280838360005b83811015610e41578082015181840152602081019050610e26565b505050509050019250505060405180910390f35b348015610e6157600080fd5b50610e80600480360381019080803590602001909291905050506134d1565b604051808215151515815260200191505060405180910390f35b348015610ea657600080fd5b50610ec560048036038101908080359060200190929190505050613514565b604051808215151515815260200191505060405180910390f35b6040805190810160405280601381526020017f506f6c697469636f696e202d204164436f696e0000000000000000000000000081525081565b60008073ffffffffffffffffffffffffffffffffffffffff168373ffffffffffffffffffffffffffffffffffffffff1614151515610f5557600080fd5b81600160003373ffffffffffffffffffffffffffffffffffffffff1673ffffffffffffffffffffffffffffffffffffffff16815260200190815260200160002060008573ffffffffffffffffffffffffffffffffffffffff1673ffffffffffffffffffffffffffffffffffffffff168152602001908152602001600020819055506001905092915050565b60003360011515600460008373ffffffffffffffffffffffffffffffffffffffff1673ffffffffffffffffffffffffffffffffffffffff16815260200190815260200160002060009054906101000a900460ff16151514151561104257600080fd5b8361104c816134d1565b151561105757600080fd5b60008060003373ffffffffffffffffffffffffffffffffffffffff1673ffffffffffffffffffffffffffffffffffffffff168152602001908152602001600020541115156110a457600080fd5b6000600a600087815260200190815260200160002060003373ffffffffffffffffffffffffffffffffffffffff1673ffffffffffffffffffffffffffffffffffffffff1681526020019081526020016000206000015411156114be5783156112f2576000803373ffffffffffffffffffffffffffffffffffffffff1673ffffffffffffffffffffffffffffffffffffffff16815260200190815260200160002054600a600087815260200190815260200160002060003373ffffffffffffffffffffffffffffffffffffffff1673ffffffffffffffffffffffffffffffffffffffff1681526020019081526020016000206000015410156112ed57600a600086815260200190815260200160002060003373ffffffffffffffffffffffffffffffffffffffff1673ffffffffffffffffffffffffffffffffffffffff168152602001908152602001600020600001546000803373ffffffffffffffffffffffffffffffffffffffff1673ffffffffffffffffffffffffffffffffffffffff168152602001908152602001600020540360066000878152602001908152602001600020600201600082825401925050819055506000803373ffffffffffffffffffffffffffffffffffffffff1673ffffffffffffffffffffffffffffffffffffffff16815260200190815260200160002054600a600087815260200190815260200160002060003373ffffffffffffffffffffffffffffffffffffffff1673ffffffffffffffffffffffffffffffffffffffff168152602001908152602001600020600001819055505b6114b9565b600a600086815260200190815260200160002060003373ffffffffffffffffffffffffffffffffffffffff1673ffffffffffffffffffffffffffffffffffffffff168152602001908152602001600020600001546006600087815260200190815260200160002060020160008282540392505081905550600a600086815260200190815260200160002060003373ffffffffffffffffffffffffffffffffffffffff1673ffffffffffffffffffffffffffffffffffffffff168152602001908152602001600020600001600090556000803373ffffffffffffffffffffffffffffffffffffffff1673ffffffffffffffffffffffffffffffffffffffff1681526020019081526020016000205460066000878152602001908152602001600020600301600082825401925050819055506000803373ffffffffffffffffffffffffffffffffffffffff1673ffffffffffffffffffffffffffffffffffffffff16815260200190815260200160002054600a600087815260200190815260200160002060003373ffffffffffffffffffffffffffffffffffffffff1673ffffffffffffffffffffffffffffffffffffffff168152602001908152602001600020600101819055505b611ad6565b6000600a600087815260200190815260200160002060003373ffffffffffffffffffffffffffffffffffffffff1673ffffffffffffffffffffffffffffffffffffffff1681526020019081526020016000206001015411156118d85783156116eb57600a600086815260200190815260200160002060003373ffffffffffffffffffffffffffffffffffffffff1673ffffffffffffffffffffffffffffffffffffffff168152602001908152602001600020600101546006600087815260200190815260200160002060030160008282540392505081905550600a600086815260200190815260200160002060003373ffffffffffffffffffffffffffffffffffffffff1673ffffffffffffffffffffffffffffffffffffffff168152602001908152602001600020600101600090556000803373ffffffffffffffffffffffffffffffffffffffff1673ffffffffffffffffffffffffffffffffffffffff1681526020019081526020016000205460066000878152602001908152602001600020600201600082825401925050819055506000803373ffffffffffffffffffffffffffffffffffffffff1673ffffffffffffffffffffffffffffffffffffffff16815260200190815260200160002054600a600087815260200190815260200160002060003373ffffffffffffffffffffffffffffffffffffffff1673ffffffffffffffffffffffffffffffffffffffff168152602001908152602001600020600001819055506118d3565b6000803373ffffffffffffffffffffffffffffffffffffffff1673ffffffffffffffffffffffffffffffffffffffff16815260200190815260200160002054600a600087815260200190815260200160002060003373ffffffffffffffffffffffffffffffffffffffff1673ffffffffffffffffffffffffffffffffffffffff1681526020019081526020016000206001015410156118d257600a600086815260200190815260200160002060003373ffffffffffffffffffffffffffffffffffffffff1673ffffffffffffffffffffffffffffffffffffffff168152602001908152602001600020600101546000803373ffffffffffffffffffffffffffffffffffffffff1673ffffffffffffffffffffffffffffffffffffffff168152602001908152602001600020540360066000878152602001908152602001600020600301600082825401925050819055506000803373ffffffffffffffffffffffffffffffffffffffff1673ffffffffffffffffffffffffffffffffffffffff16815260200190815260200160002054600a600087815260200190815260200160002060003373ffffffffffffffffffffffffffffffffffffffff1673ffffffffffffffffffffffffffffffffffffffff168152602001908152602001600020600101819055505b5b611ad5565b83156119db576000803373ffffffffffffffffffffffffffffffffffffffff1673ffffffffffffffffffffffffffffffffffffffff1681526020019081526020016000205460066000878152602001908152602001600020600201600082825401925050819055506000803373ffffffffffffffffffffffffffffffffffffffff1673ffffffffffffffffffffffffffffffffffffffff16815260200190815260200160002054600a600087815260200190815260200160002060003373ffffffffffffffffffffffffffffffffffffffff1673ffffffffffffffffffffffffffffffffffffffff16815260200190815260200160002060000181905550611ad4565b6000803373ffffffffffffffffffffffffffffffffffffffff1673ffffffffffffffffffffffffffffffffffffffff1681526020019081526020016000205460066000878152602001908152602001600020600301600082825401925050819055506000803373ffffffffffffffffffffffffffffffffffffffff1673ffffffffffffffffffffffffffffffffffffffff16815260200190815260200160002054600a600087815260200190815260200160002060003373ffffffffffffffffffffffffffffffffffffffff1673ffffffffffffffffffffffffffffffffffffffff168152602001908152602001600020600101819055505b5b5b60019250505092915050565b6000600254905090565b6000806000808673ffffffffffffffffffffffffffffffffffffffff1673ffffffffffffffffffffffffffffffffffffffff168152602001908152602001600020548311151515611b3c57600080fd5b600160008673ffffffffffffffffffffffffffffffffffffffff1673ffffffffffffffffffffffffffffffffffffffff16815260200190815260200160002060003373ffffffffffffffffffffffffffffffffffffffff1673ffffffffffffffffffffffffffffffffffffffff168152602001908152602001600020548311151515611bc757600080fd5b600073ffffffffffffffffffffffffffffffffffffffff168473ffffffffffffffffffffffffffffffffffffffff1614151515611c0357600080fd5b611c54836000808873ffffffffffffffffffffffffffffffffffffffff1673ffffffffffffffffffffffffffffffffffffffff168152602001908152602001600020546135c990919063ffffffff16565b6000808773ffffffffffffffffffffffffffffffffffffffff1673ffffffffffffffffffffffffffffffffffffffff16815260200190815260200160002081905550611ce7836000808773ffffffffffffffffffffffffffffffffffffffff1673ffffffffffffffffffffffffffffffffffffffff168152602001908152602001600020546135ea90919063ffffffff16565b6000808673ffffffffffffffffffffffffffffffffffffffff1673ffffffffffffffffffffffffffffffffffffffff16815260200190815260200160002081905550611db883600160008873ffffffffffffffffffffffffffffffffffffffff1673ffffffffffffffffffffffffffffffffffffffff16815260200190815260200160002060003373ffffffffffffffffffffffffffffffffffffffff1673ffffffffffffffffffffffffffffffffffffffff168152602001908152602001600020546135c990919063ffffffff16565b600160008773ffffffffffffffffffffffffffffffffffffffff1673ffffffffffffffffffffffffffffffffffffffff16815260200190815260200160002060003373ffffffffffffffffffffffffffffffffffffffff1673ffffffffffffffffffffffffffffffffffffffff16815260200190815260200160002081905550600090505b6008805490508110156122f2576000808673ffffffffffffffffffffffffffffffffffffffff1673ffffffffffffffffffffffffffffffffffffffff16815260200190815260200160002054600a6000600884815481101515611e9c57fe5b9060005260206000200154815260200190815260200160002060008773ffffffffffffffffffffffffffffffffffffffff1673ffffffffffffffffffffffffffffffffffffffff168152602001908152602001600020600001541115612099576000808673ffffffffffffffffffffffffffffffffffffffff1673ffffffffffffffffffffffffffffffffffffffff16815260200190815260200160002054600a6000600884815481101515611f4e57fe5b9060005260206000200154815260200190815260200160002060008773ffffffffffffffffffffffffffffffffffffffff1673ffffffffffffffffffffffffffffffffffffffff168152602001908152602001600020600001540360066000600884815481101515611fbc57fe5b90600052602060002001548152602001908152602001600020600201600082825403925050819055506000808673ffffffffffffffffffffffffffffffffffffffff1673ffffffffffffffffffffffffffffffffffffffff16815260200190815260200160002054600a600060088481548110151561203757fe5b9060005260206000200154815260200190815260200160002060008773ffffffffffffffffffffffffffffffffffffffff1673ffffffffffffffffffffffffffffffffffffffff168152602001908152602001600020600001819055506122e5565b6000808673ffffffffffffffffffffffffffffffffffffffff1673ffffffffffffffffffffffffffffffffffffffff16815260200190815260200160002054600a60006008848154811015156120eb57fe5b9060005260206000200154815260200190815260200160002060008773ffffffffffffffffffffffffffffffffffffffff1673ffffffffffffffffffffffffffffffffffffffff1681526020019081526020016000206001015411156122e4576000808673ffffffffffffffffffffffffffffffffffffffff1673ffffffffffffffffffffffffffffffffffffffff16815260200190815260200160002054600a600060088481548110151561219d57fe5b9060005260206000200154815260200190815260200160002060008773ffffffffffffffffffffffffffffffffffffffff1673ffffffffffffffffffffffffffffffffffffffff16815260200190815260200160002060010154036006600060088481548110151561220b57fe5b90600052602060002001548152602001908152602001600020600301600082825403925050819055506000808673ffffffffffffffffffffffffffffffffffffffff1673ffffffffffffffffffffffffffffffffffffffff16815260200190815260200160002054600a600060088481548110151561228657fe5b9060005260206000200154815260200190815260200160002060008773ffffffffffffffffffffffffffffffffffffffff1673ffffffffffffffffffffffffffffffffffffffff168152602001908152602001600020600101819055505b5b8080600101915050611e3d565b60019150509392505050565b6060600061230b3361328a565b151561231657600080fd5b600090505b835181101561236a5761235c848281518110151561233557fe5b90602001906020020151848381518110151561234d57fe5b906020019060200201516124da565b50808060010191505061231b565b5092915050565b600260ff16600a0a60000281565b600281565b60008073ffffffffffffffffffffffffffffffffffffffff168373ffffffffffffffffffffffffffffffffffffffff16141515156123c157600080fd5b61245082600160003373ffffffffffffffffffffffffffffffffffffffff1673ffffffffffffffffffffffffffffffffffffffff16815260200190815260200160002060008673ffffffffffffffffffffffffffffffffffffffff1673ffffffffffffffffffffffffffffffffffffffff168152602001908152602001600020546135ea90919063ffffffff16565b600160003373ffffffffffffffffffffffffffffffffffffffff1673ffffffffffffffffffffffffffffffffffffffff16815260200190815260200160002060008573ffffffffffffffffffffffffffffffffffffffff1673ffffffffffffffffffffffffffffffffffffffff168152602001908152602001600020819055506001905092915050565b60006124e53361328a565b15156124f057600080fd5b6124fa838361360b565b6001905092915050565b600061250f3361328a565b151561251a57600080fd5b6001600460008473ffffffffffffffffffffffffffffffffffffffff1673ffffffffffffffffffffffffffffffffffffffff16815260200190815260200160002060006101000a81548160ff02191690831515021790555060019050919050565b60006125863361328a565b151561259157600080fd5b60056000815480929190600101919050555060806040519081016040528083815260200160001515815260200160008152602001600081525060066000600554815260200190815260200160002060008201518160000190805190602001906125fb92919061395f565b5060208201518160010160006101000a81548160ff0219169083151502179055506040820151816002015560608201518160030155905050600760055490806001815401808255809150509060018203906000526020600020016000909192909190915055506005549050919050565b606060078054806020026020016040519081016040528092919081815260200182805480156126b957602002820191906000526020600020905b8154815260200190600101908083116126a5575b5050505050905090565b6006602052806000526040600020600091509050806000018054600181600116156101000203166002900480601f01602080910402602001604051908101604052809291908181526020018280546001816001161561010002031660029004801561276f5780601f106127445761010080835404028352916020019161276f565b820191906000526020600020905b81548152906001019060200180831161275257829003601f168201915b5050505050908060010160009054906101000a900460ff16908060020154908060030154905084565b600080836127a581612a34565b15156127b057600080fd5b600a600086815260200190815260200160002060008573ffffffffffffffffffffffffffffffffffffffff1673ffffffffffffffffffffffffffffffffffffffff168152602001908152602001600020600001549250600a600086815260200190815260200160002060008573ffffffffffffffffffffffffffffffffffffffff1673ffffffffffffffffffffffffffffffffffffffff168152602001908152602001600020600101549150509250929050565b60606000806000600660008681526020019081526020016000206000016006600087815260200190815260200160002060010160009054906101000a900460ff1660066000888152602001908152602001600020600201546006600089815260200190815260200160002060030154838054600181600116156101000203166002900480601f0160208091040260200160405190810160405280929190818152602001828054600181600116156101000203166002900480156129685780601f1061293d57610100808354040283529160200191612968565b820191906000526020600020905b81548152906001019060200180831161294b57829003601f168201915b5050505050935093509350935093509193509193565b60006020528060005260406000206000915090505481565b6000600460008373ffffffffffffffffffffffffffffffffffffffff1673ffffffffffffffffffffffffffffffffffffffff16815260200190815260200160002060009054906101000a900460ff169050919050565b60008060008373ffffffffffffffffffffffffffffffffffffffff1673ffffffffffffffffffffffffffffffffffffffff168152602001908152602001600020549050919050565b6000808214158015612a4857506005548211155b9050919050565b6000600554905090565b6040805190810160405280600381526020017f504143000000000000000000000000000000000000000000000000000000000081525081565b612a9b3361328a565b1515612aa657600080fd5b612aaf816136e3565b50565b612abb3361373d565b565b60008073ffffffffffffffffffffffffffffffffffffffff168373ffffffffffffffffffffffffffffffffffffffff1614151515612afa57600080fd5b612b8982600160003373ffffffffffffffffffffffffffffffffffffffff1673ffffffffffffffffffffffffffffffffffffffff16815260200190815260200160002060008673ffffffffffffffffffffffffffffffffffffffff1673ffffffffffffffffffffffffffffffffffffffff168152602001908152602001600020546135c990919063ffffffff16565b600160003373ffffffffffffffffffffffffffffffffffffffff1673ffffffffffffffffffffffffffffffffffffffff16815260200190815260200160002060008573ffffffffffffffffffffffffffffffffffffffff1673ffffffffffffffffffffffffffffffffffffffff168152602001908152602001600020819055506001905092915050565b6000806000803373ffffffffffffffffffffffffffffffffffffffff1673ffffffffffffffffffffffffffffffffffffffff168152602001908152602001600020548311151515612c6357600080fd5b600073ffffffffffffffffffffffffffffffffffffffff168473ffffffffffffffffffffffffffffffffffffffff1614151515612c9f57600080fd5b612cf0836000803373ffffffffffffffffffffffffffffffffffffffff1673ffffffffffffffffffffffffffffffffffffffff168152602001908152602001600020546135c990919063ffffffff16565b6000803373ffffffffffffffffffffffffffffffffffffffff1673ffffffffffffffffffffffffffffffffffffffff16815260200190815260200160002081905550612d83836000808773ffffffffffffffffffffffffffffffffffffffff1673ffffffffffffffffffffffffffffffffffffffff168152602001908152602001600020546135ea90919063ffffffff16565b6000808673ffffffffffffffffffffffffffffffffffffffff1673ffffffffffffffffffffffffffffffffffffffff16815260200190815260200160002081905550600090505b60088054905081101561327f576000803373ffffffffffffffffffffffffffffffffffffffff1673ffffffffffffffffffffffffffffffffffffffff16815260200190815260200160002054600a6000600884815481101515612e2957fe5b9060005260206000200154815260200190815260200160002060003373ffffffffffffffffffffffffffffffffffffffff1673ffffffffffffffffffffffffffffffffffffffff168152602001908152602001600020600001541115613026576000803373ffffffffffffffffffffffffffffffffffffffff1673ffffffffffffffffffffffffffffffffffffffff16815260200190815260200160002054600a6000600884815481101515612edb57fe5b9060005260206000200154815260200190815260200160002060003373ffffffffffffffffffffffffffffffffffffffff1673ffffffffffffffffffffffffffffffffffffffff168152602001908152602001600020600001540360066000600884815481101515612f4957fe5b90600052602060002001548152602001908152602001600020600201600082825403925050819055506000803373ffffffffffffffffffffffffffffffffffffffff1673ffffffffffffffffffffffffffffffffffffffff16815260200190815260200160002054600a6000600884815481101515612fc457fe5b9060005260206000200154815260200190815260200160002060003373ffffffffffffffffffffffffffffffffffffffff1673ffffffffffffffffffffffffffffffffffffffff16815260200190815260200160002060000181905550613272565b6000803373ffffffffffffffffffffffffffffffffffffffff1673ffffffffffffffffffffffffffffffffffffffff16815260200190815260200160002054600a600060088481548110151561307857fe5b9060005260206000200154815260200190815260200160002060003373ffffffffffffffffffffffffffffffffffffffff1673ffffffffffffffffffffffffffffffffffffffff168152602001908152602001600020600101541115613271576000803373ffffffffffffffffffffffffffffffffffffffff1673ffffffffffffffffffffffffffffffffffffffff16815260200190815260200160002054600a600060088481548110151561312a57fe5b9060005260206000200154815260200190815260200160002060003373ffffffffffffffffffffffffffffffffffffffff1673ffffffffffffffffffffffffffffffffffffffff16815260200190815260200160002060010154036006600060088481548110151561319857fe5b90600052602060002001548152602001908152602001600020600301600082825403925050819055506000803373ffffffffffffffffffffffffffffffffffffffff1673ffffffffffffffffffffffffffffffffffffffff16815260200190815260200160002054600a600060088481548110151561321357fe5b9060005260206000200154815260200190815260200160002060003373ffffffffffffffffffffffffffffffffffffffff1673ffffffffffffffffffffffffffffffffffffffff168152602001908152602001600020600101819055505b5b8080600101915050612dca565b600191505092915050565b60006132a082600361379790919063ffffffff16565b9050919050565b606060088054806020026020016040519081016040528092919081815260200182805480156132f557602002820191906000526020600020905b8154815260200190600101908083116132e1575b5050505050905090565b600061330a3361328a565b151561331557600080fd5b8161331f816134d1565b151561332a57600080fd5b60006006600085815260200190815260200160002060010160006101000a81548160ff02191690831515021790555060016008805490500360096000858152602001908152602001600020541415156133d057600860016008805490500381548110151561339457fe5b9060005260206000200154600860096000868152602001908152602001600020548154811015156133c157fe5b90600052602060002001819055505b60088054809190600190036133e591906139df565b506001915050919050565b6000600160008473ffffffffffffffffffffffffffffffffffffffff1673ffffffffffffffffffffffffffffffffffffffff16815260200190815260200160002060008373ffffffffffffffffffffffffffffffffffffffff1673ffffffffffffffffffffffffffffffffffffffff16815260200190815260200160002054905092915050565b606060006134843361328a565b151561348f57600080fd5b600090505b82518110156134cb576134bd83828151811015156134ae57fe5b90602001906020020151612504565b508080600101915050613494565b50919050565b6000816134dd81612a34565b15156134e857600080fd5b6006600084815260200190815260200160002060010160009054906101000a900460ff16915050919050565b600061351f3361328a565b151561352a57600080fd5b60001515613537836134d1565b151514151561354557600080fd5b60016006600084815260200190815260200160002060010160006101000a81548160ff0219169083151502179055506008829080600181540180825580915050906001820390600052602060002001600090919290919091505550600160088054905003600960008481526020019081526020016000208190555060019050919050565b6000808383111515156135db57600080fd5b82840390508091505092915050565b600080828401905083811015151561360157600080fd5b8091505092915050565b60008273ffffffffffffffffffffffffffffffffffffffff161415151561363157600080fd5b613646816002546135ea90919063ffffffff16565b60028190555061369d816000808573ffffffffffffffffffffffffffffffffffffffff1673ffffffffffffffffffffffffffffffffffffffff168152602001908152602001600020546135ea90919063ffffffff16565b6000808473ffffffffffffffffffffffffffffffffffffffff1673ffffffffffffffffffffffffffffffffffffffff168152602001908152602001600020819055505050565b6136f781600361382b90919063ffffffff16565b8073ffffffffffffffffffffffffffffffffffffffff167f6ae172837ea30b801fbfcdd4108aa1d5bf8ff775444fd70256b44e6bf3dfc3f660405160405180910390a250565b6137518160036138c590919063ffffffff16565b8073ffffffffffffffffffffffffffffffffffffffff167fe94479a9f7e1952cc78f2d6baab678adc1b772d936c6583def489e524cb6669260405160405180910390a250565b60008073ffffffffffffffffffffffffffffffffffffffff168273ffffffffffffffffffffffffffffffffffffffff16141515156137d457600080fd5b8260000160008373ffffffffffffffffffffffffffffffffffffffff1673ffffffffffffffffffffffffffffffffffffffff16815260200190815260200160002060009054906101000a900460ff16905092915050565b600073ffffffffffffffffffffffffffffffffffffffff168173ffffffffffffffffffffffffffffffffffffffff161415151561386757600080fd5b60018260000160008373ffffffffffffffffffffffffffffffffffffffff1673ffffffffffffffffffffffffffffffffffffffff16815260200190815260200160002060006101000a81548160ff0219169083151502179055505050565b600073ffffffffffffffffffffffffffffffffffffffff168173ffffffffffffffffffffffffffffffffffffffff161415151561390157600080fd5b60008260000160008373ffffffffffffffffffffffffffffffffffffffff1673ffffffffffffffffffffffffffffffffffffffff16815260200190815260200160002060006101000a81548160ff0219169083151502179055505050565b828054600181600116156101000203166002900490600052602060002090601f016020900481019282601f106139a057805160ff19168380011785556139ce565b828001600101855582156139ce579182015b828111156139cd5782518255916020019190600101906139b2565b5b5090506139db9190613a0b565b5090565b815481835581811115613a0657818360005260206000209182019101613a059190613a0b565b5b505050565b613a2d91905b80821115613a29576000816000905550600101613a11565b5090565b905600a165627a7a72305820537dd37fe71dca0b9bf272ba7c7c9656a32e8c487771149bc2c048e437a3275b0029",
  "source": "pragma solidity ^0.4.24;\r\n\r\nimport \"./Politicoin.sol\";\r\n\r\ncontract AdCoin is Politicoin {\r\n  string public constant name = \"Politicoin - AdCoin\";\r\n  string public constant symbol = \"PAC\";\r\n  uint8 public constant decimals = 2;\r\n\r\n  uint256 public constant INITIAL_SUPPLY = 0 * (10 **uint(decimals));\r\n\r\n  constructor() public {\r\n    mint(msg.sender, INITIAL_SUPPLY);\r\n  }\r\n\r\n}\r\n",
  "sourcePath": "/mnt/c/Users/lucas.jennings/Documents/politicoin-token/contracts/AdCoin.sol",
  "compiler": {
    "name": "solc",
    "version": "0.4.24+commit.e67f0147.Emscripten.clang"
  },
  "schemaVersion": "2.0.1",
  "updatedAt": "2019-02-05T12:09:37.574Z"
}