{
  "contractName": "ERC20",
  "abi": [
    {
      "constant": false,
      "inputs": [
        {
          "name": "lockAddress",
          "type": "address"
        }
      ],
      "name": "lockTokensMaster",
      "outputs": [
        {
          "name": "",
          "type": "bool"
        }
      ],
      "payable": false,
      "stateMutability": "nonpayable",
      "type": "function"
    },
    {
      "constant": false,
      "inputs": [],
      "name": "lockTokens",
      "outputs": [],
      "payable": false,
      "stateMutability": "nonpayable",
      "type": "function"
    },
    {
      "constant": true,
      "inputs": [
        {
          "name": "",
          "type": "uint256"
        }
      ],
      "name": "lockedTokensArray",
      "outputs": [
        {
          "name": "",
          "type": "address"
        }
      ],
      "payable": false,
      "stateMutability": "view",
      "type": "function"
    },
    {
      "constant": true,
      "inputs": [
        {
          "name": "checkAddress",
          "type": "address"
        }
      ],
      "name": "isLocked",
      "outputs": [
        {
          "name": "",
          "type": "bool"
        }
      ],
      "payable": false,
      "stateMutability": "view",
      "type": "function"
    },
    {
      "constant": false,
      "inputs": [],
      "name": "unlockAllTokens",
      "outputs": [
        {
          "name": "",
          "type": "bool"
        }
      ],
      "payable": false,
      "stateMutability": "nonpayable",
      "type": "function"
    },
    {
      "constant": true,
      "inputs": [
        {
          "name": "",
          "type": "address"
        }
      ],
      "name": "lockedTokens",
      "outputs": [
        {
          "name": "",
          "type": "bool"
        }
      ],
      "payable": false,
      "stateMutability": "view",
      "type": "function"
    },
    {
      "constant": true,
      "inputs": [
        {
          "name": "",
          "type": "address"
        }
      ],
      "name": "_balances",
      "outputs": [
        {
          "name": "",
          "type": "uint256"
        }
      ],
      "payable": false,
      "stateMutability": "view",
      "type": "function"
    },
    {
      "constant": true,
      "inputs": [],
      "name": "showLockedTokens",
      "outputs": [
        {
          "name": "",
          "type": "address[]"
        }
      ],
      "payable": false,
      "stateMutability": "view",
      "type": "function"
    },
    {
      "constant": false,
      "inputs": [
        {
          "name": "account",
          "type": "address"
        }
      ],
      "name": "addMinter",
      "outputs": [],
      "payable": false,
      "stateMutability": "nonpayable",
      "type": "function"
    },
    {
      "constant": false,
      "inputs": [],
      "name": "renounceMinter",
      "outputs": [],
      "payable": false,
      "stateMutability": "nonpayable",
      "type": "function"
    },
    {
      "constant": true,
      "inputs": [
        {
          "name": "account",
          "type": "address"
        }
      ],
      "name": "isMinter",
      "outputs": [
        {
          "name": "",
          "type": "bool"
        }
      ],
      "payable": false,
      "stateMutability": "view",
      "type": "function"
    },
    {
      "constant": false,
      "inputs": [
        {
          "name": "addressToUnlock",
          "type": "address"
        }
      ],
      "name": "unlockAddress",
      "outputs": [],
      "payable": false,
      "stateMutability": "nonpayable",
      "type": "function"
    },
    {
      "anonymous": false,
      "inputs": [
        {
          "indexed": true,
          "name": "account",
          "type": "address"
        }
      ],
      "name": "MinterAdded",
      "type": "event"
    },
    {
      "anonymous": false,
      "inputs": [
        {
          "indexed": true,
          "name": "account",
          "type": "address"
        }
      ],
      "name": "MinterRemoved",
      "type": "event"
    },
    {
      "constant": true,
      "inputs": [],
      "name": "totalSupply",
      "outputs": [
        {
          "name": "",
          "type": "uint256"
        }
      ],
      "payable": false,
      "stateMutability": "view",
      "type": "function"
    },
    {
      "constant": true,
      "inputs": [
        {
          "name": "owner",
          "type": "address"
        }
      ],
      "name": "balanceOf",
      "outputs": [
        {
          "name": "",
          "type": "uint256"
        }
      ],
      "payable": false,
      "stateMutability": "view",
      "type": "function"
    },
    {
      "constant": true,
      "inputs": [
        {
          "name": "owner",
          "type": "address"
        },
        {
          "name": "spender",
          "type": "address"
        }
      ],
      "name": "allowance",
      "outputs": [
        {
          "name": "",
          "type": "uint256"
        }
      ],
      "payable": false,
      "stateMutability": "view",
      "type": "function"
    },
    {
      "constant": false,
      "inputs": [
        {
          "name": "to",
          "type": "address"
        },
        {
          "name": "value",
          "type": "uint256"
        }
      ],
      "name": "transfer",
      "outputs": [
        {
          "name": "",
          "type": "bool"
        }
      ],
      "payable": false,
      "stateMutability": "nonpayable",
      "type": "function"
    },
    {
      "constant": false,
      "inputs": [
        {
          "name": "spender",
          "type": "address"
        },
        {
          "name": "value",
          "type": "uint256"
        }
      ],
      "name": "approve",
      "outputs": [
        {
          "name": "",
          "type": "bool"
        }
      ],
      "payable": false,
      "stateMutability": "nonpayable",
      "type": "function"
    },
    {
      "constant": false,
      "inputs": [
        {
          "name": "from",
          "type": "address"
        },
        {
          "name": "to",
          "type": "address"
        },
        {
          "name": "value",
          "type": "uint256"
        }
      ],
      "name": "transferFrom",
      "outputs": [
        {
          "name": "",
          "type": "bool"
        }
      ],
      "payable": false,
      "stateMutability": "nonpayable",
      "type": "function"
    },
    {
      "constant": false,
      "inputs": [
        {
          "name": "spender",
          "type": "address"
        },
        {
          "name": "addedValue",
          "type": "uint256"
        }
      ],
      "name": "increaseAllowance",
      "outputs": [
        {
          "name": "",
          "type": "bool"
        }
      ],
      "payable": false,
      "stateMutability": "nonpayable",
      "type": "function"
    },
    {
      "constant": false,
      "inputs": [
        {
          "name": "spender",
          "type": "address"
        },
        {
          "name": "subtractedValue",
          "type": "uint256"
        }
      ],
      "name": "decreaseAllowance",
      "outputs": [
        {
          "name": "",
          "type": "bool"
        }
      ],
      "payable": false,
      "stateMutability": "nonpayable",
      "type": "function"
    }
  ],
  "bytecode": "0x608060405261001c33610021640100000000026401000000009004565b610122565b61004281600061008864010000000002611827179091906401000000009004565b8073ffffffffffffffffffffffffffffffffffffffff167f6ae172837ea30b801fbfcdd4108aa1d5bf8ff775444fd70256b44e6bf3dfc3f660405160405180910390a250565b600073ffffffffffffffffffffffffffffffffffffffff168173ffffffffffffffffffffffffffffffffffffffff16141515156100c457600080fd5b60018260000160008373ffffffffffffffffffffffffffffffffffffffff1673ffffffffffffffffffffffffffffffffffffffff16815260200190815260200160002060006101000a81548160ff0219169083151502179055505050565b611a54806101316000396000f300608060405260043610610112576000357c0100000000000000000000000000000000000000000000000000000000900463ffffffff168063056a5e3814610117578063095ea7b3146101725780630a56293d146101d757806318160ddd146101ee57806323b872dd146102195780632c13f8a41461029e578063395093511461030b5780634a4fbeec146103705780635e0be607146103cb5780635eb7413a146103fa5780636ebcf6071461045557806370a08231146104ac57806373b126df14610503578063983b2d561461056f57806398650275146105b2578063a457c2d7146105c9578063a9059cbb1461062e578063aa271e1a14610693578063b7eb5e0a146106ee578063dd62ed3e14610731575b600080fd5b34801561012357600080fd5b50610158600480360381019080803573ffffffffffffffffffffffffffffffffffffffff1690602001909291905050506107a8565b604051808215151515815260200191505060405180910390f35b34801561017e57600080fd5b506101bd600480360381019080803573ffffffffffffffffffffffffffffffffffffffff16906020019092919080359060200190929190505050610880565b604051808215151515815260200191505060405180910390f35b3480156101e357600080fd5b506101ec610948565b005b3480156101fa57600080fd5b50610203610a07565b6040518082815260200191505060405180910390f35b34801561022557600080fd5b50610284600480360381019080803573ffffffffffffffffffffffffffffffffffffffff169060200190929190803573ffffffffffffffffffffffffffffffffffffffff16906020019092919080359060200190929190505050610a11565b604051808215151515815260200191505060405180910390f35b3480156102aa57600080fd5b506102c960048036038101908080359060200190929190505050610dcd565b604051808273ffffffffffffffffffffffffffffffffffffffff1673ffffffffffffffffffffffffffffffffffffffff16815260200191505060405180910390f35b34801561031757600080fd5b50610356600480360381019080803573ffffffffffffffffffffffffffffffffffffffff16906020019092919080359060200190929190505050610e0b565b604051808215151515815260200191505060405180910390f35b34801561037c57600080fd5b506103b1600480360381019080803573ffffffffffffffffffffffffffffffffffffffff169060200190929190505050610f61565b604051808215151515815260200191505060405180910390f35b3480156103d757600080fd5b506103e0610fbc565b604051808215151515815260200191505060405180910390f35b34801561040657600080fd5b5061043b600480360381019080803573ffffffffffffffffffffffffffffffffffffffff1690602001909291905050506110d9565b604051808215151515815260200191505060405180910390f35b34801561046157600080fd5b50610496600480360381019080803573ffffffffffffffffffffffffffffffffffffffff1690602001909291905050506110f9565b6040518082815260200191505060405180910390f35b3480156104b857600080fd5b506104ed600480360381019080803573ffffffffffffffffffffffffffffffffffffffff169060200190929190505050611111565b6040518082815260200191505060405180910390f35b34801561050f57600080fd5b5061051861115a565b6040518080602001828103825283818151815260200191508051906020019060200280838360005b8381101561055b578082015181840152602081019050610540565b505050509050019250505060405180910390f35b34801561057b57600080fd5b506105b0600480360381019080803573ffffffffffffffffffffffffffffffffffffffff1690602001909291905050506111e8565b005b3480156105be57600080fd5b506105c7611208565b005b3480156105d557600080fd5b50610614600480360381019080803573ffffffffffffffffffffffffffffffffffffffff16906020019092919080359060200190929190505050611213565b604051808215151515815260200191505060405180910390f35b34801561063a57600080fd5b50610679600480360381019080803573ffffffffffffffffffffffffffffffffffffffff16906020019092919080359060200190929190505050611369565b604051808215151515815260200191505060405180910390f35b34801561069f57600080fd5b506106d4600480360381019080803573ffffffffffffffffffffffffffffffffffffffff16906020019092919050505061158a565b604051808215151515815260200191505060405180910390f35b3480156106fa57600080fd5b5061072f600480360381019080803573ffffffffffffffffffffffffffffffffffffffff1690602001909291905050506115a7565b005b34801561073d57600080fd5b50610792600480360381019080803573ffffffffffffffffffffffffffffffffffffffff169060200190929190803573ffffffffffffffffffffffffffffffffffffffff169060200190929190505050611616565b6040518082815260200191505060405180910390f35b60006107b33361158a565b15156107be57600080fd5b60018060008473ffffffffffffffffffffffffffffffffffffffff1673ffffffffffffffffffffffffffffffffffffffff16815260200190815260200160002060006101000a81548160ff02191690831515021790555060028290806001815401808255809150509060018203906000526020600020016000909192909190916101000a81548173ffffffffffffffffffffffffffffffffffffffff021916908373ffffffffffffffffffffffffffffffffffffffff16021790555050919050565b60008073ffffffffffffffffffffffffffffffffffffffff168373ffffffffffffffffffffffffffffffffffffffff16141515156108bd57600080fd5b81600460003373ffffffffffffffffffffffffffffffffffffffff1673ffffffffffffffffffffffffffffffffffffffff16815260200190815260200160002060008573ffffffffffffffffffffffffffffffffffffffff1673ffffffffffffffffffffffffffffffffffffffff168152602001908152602001600020819055506001905092915050565b60018060003373ffffffffffffffffffffffffffffffffffffffff1673ffffffffffffffffffffffffffffffffffffffff16815260200190815260200160002060006101000a81548160ff02191690831515021790555060023390806001815401808255809150509060018203906000526020600020016000909192909190916101000a81548173ffffffffffffffffffffffffffffffffffffffff021916908373ffffffffffffffffffffffffffffffffffffffff16021790555050565b6000600554905090565b60003360001515600160008373ffffffffffffffffffffffffffffffffffffffff1673ffffffffffffffffffffffffffffffffffffffff16815260200190815260200160002060009054906101000a900460ff161515141515610a7357600080fd5b600360008673ffffffffffffffffffffffffffffffffffffffff1673ffffffffffffffffffffffffffffffffffffffff168152602001908152602001600020548311151515610ac157600080fd5b600460008673ffffffffffffffffffffffffffffffffffffffff1673ffffffffffffffffffffffffffffffffffffffff16815260200190815260200160002060003373ffffffffffffffffffffffffffffffffffffffff1673ffffffffffffffffffffffffffffffffffffffff168152602001908152602001600020548311151515610b4c57600080fd5b600073ffffffffffffffffffffffffffffffffffffffff168473ffffffffffffffffffffffffffffffffffffffff1614151515610b8857600080fd5b610bda83600360008873ffffffffffffffffffffffffffffffffffffffff1673ffffffffffffffffffffffffffffffffffffffff1681526020019081526020016000205461169d90919063ffffffff16565b600360008773ffffffffffffffffffffffffffffffffffffffff1673ffffffffffffffffffffffffffffffffffffffff16815260200190815260200160002081905550610c6f83600360008773ffffffffffffffffffffffffffffffffffffffff1673ffffffffffffffffffffffffffffffffffffffff168152602001908152602001600020546116be90919063ffffffff16565b600360008673ffffffffffffffffffffffffffffffffffffffff1673ffffffffffffffffffffffffffffffffffffffff16815260200190815260200160002081905550610d4183600460008873ffffffffffffffffffffffffffffffffffffffff1673ffffffffffffffffffffffffffffffffffffffff16815260200190815260200160002060003373ffffffffffffffffffffffffffffffffffffffff1673ffffffffffffffffffffffffffffffffffffffff1681526020019081526020016000205461169d90919063ffffffff16565b600460008773ffffffffffffffffffffffffffffffffffffffff1673ffffffffffffffffffffffffffffffffffffffff16815260200190815260200160002060003373ffffffffffffffffffffffffffffffffffffffff1673ffffffffffffffffffffffffffffffffffffffff1681526020019081526020016000208190555060019150509392505050565b600281815481101515610ddc57fe5b906000526020600020016000915054906101000a900473ffffffffffffffffffffffffffffffffffffffff1681565b60008073ffffffffffffffffffffffffffffffffffffffff168373ffffffffffffffffffffffffffffffffffffffff1614151515610e4857600080fd5b610ed782600460003373ffffffffffffffffffffffffffffffffffffffff1673ffffffffffffffffffffffffffffffffffffffff16815260200190815260200160002060008673ffffffffffffffffffffffffffffffffffffffff1673ffffffffffffffffffffffffffffffffffffffff168152602001908152602001600020546116be90919063ffffffff16565b600460003373ffffffffffffffffffffffffffffffffffffffff1673ffffffffffffffffffffffffffffffffffffffff16815260200190815260200160002060008573ffffffffffffffffffffffffffffffffffffffff1673ffffffffffffffffffffffffffffffffffffffff168152602001908152602001600020819055506001905092915050565b600080600160008473ffffffffffffffffffffffffffffffffffffffff1673ffffffffffffffffffffffffffffffffffffffff16815260200190815260200160002060009054906101000a900460ff16905080915050919050565b600080600080610fcb3361158a565b1515610fd657600080fd5b6002805490509250600091505b8282101561108c57600282815481101515610ffa57fe5b9060005260206000200160009054906101000a900473ffffffffffffffffffffffffffffffffffffffff1690506000600160008373ffffffffffffffffffffffffffffffffffffffff1673ffffffffffffffffffffffffffffffffffffffff16815260200190815260200160002060006101000a81548160ff0219169083151502179055508180600101925050610fe3565b60006040519080825280602002602001820160405280156110bc5781602001602082028038833980820191505090505b50600290805190602001906110d292919061195b565b5050505090565b60016020528060005260406000206000915054906101000a900460ff1681565b60036020528060005260406000206000915090505481565b6000600360008373ffffffffffffffffffffffffffffffffffffffff1673ffffffffffffffffffffffffffffffffffffffff168152602001908152602001600020549050919050565b606060028054806020026020016040519081016040528092919081815260200182805480156111de57602002820191906000526020600020905b8160009054906101000a900473ffffffffffffffffffffffffffffffffffffffff1673ffffffffffffffffffffffffffffffffffffffff1681526020019060010190808311611194575b5050505050905090565b6111f13361158a565b15156111fc57600080fd5b611205816116df565b50565b61121133611739565b565b60008073ffffffffffffffffffffffffffffffffffffffff168373ffffffffffffffffffffffffffffffffffffffff161415151561125057600080fd5b6112df82600460003373ffffffffffffffffffffffffffffffffffffffff1673ffffffffffffffffffffffffffffffffffffffff16815260200190815260200160002060008673ffffffffffffffffffffffffffffffffffffffff1673ffffffffffffffffffffffffffffffffffffffff1681526020019081526020016000205461169d90919063ffffffff16565b600460003373ffffffffffffffffffffffffffffffffffffffff1673ffffffffffffffffffffffffffffffffffffffff16815260200190815260200160002060008573ffffffffffffffffffffffffffffffffffffffff1673ffffffffffffffffffffffffffffffffffffffff168152602001908152602001600020819055506001905092915050565b60003360001515600160008373ffffffffffffffffffffffffffffffffffffffff1673ffffffffffffffffffffffffffffffffffffffff16815260200190815260200160002060009054906101000a900460ff1615151415156113cb57600080fd5b600360003373ffffffffffffffffffffffffffffffffffffffff1673ffffffffffffffffffffffffffffffffffffffff16815260200190815260200160002054831115151561141957600080fd5b600073ffffffffffffffffffffffffffffffffffffffff168473ffffffffffffffffffffffffffffffffffffffff161415151561145557600080fd5b6114a783600360003373ffffffffffffffffffffffffffffffffffffffff1673ffffffffffffffffffffffffffffffffffffffff1681526020019081526020016000205461169d90919063ffffffff16565b600360003373ffffffffffffffffffffffffffffffffffffffff1673ffffffffffffffffffffffffffffffffffffffff1681526020019081526020016000208190555061153c83600360008773ffffffffffffffffffffffffffffffffffffffff1673ffffffffffffffffffffffffffffffffffffffff168152602001908152602001600020546116be90919063ffffffff16565b600360008673ffffffffffffffffffffffffffffffffffffffff1673ffffffffffffffffffffffffffffffffffffffff16815260200190815260200160002081905550600191505092915050565b60006115a082600061179390919063ffffffff16565b9050919050565b6115b03361158a565b15156115bb57600080fd5b6000600160008373ffffffffffffffffffffffffffffffffffffffff1673ffffffffffffffffffffffffffffffffffffffff16815260200190815260200160002060006101000a81548160ff02191690831515021790555050565b6000600460008473ffffffffffffffffffffffffffffffffffffffff1673ffffffffffffffffffffffffffffffffffffffff16815260200190815260200160002060008373ffffffffffffffffffffffffffffffffffffffff1673ffffffffffffffffffffffffffffffffffffffff16815260200190815260200160002054905092915050565b6000808383111515156116af57600080fd5b82840390508091505092915050565b60008082840190508381101515156116d557600080fd5b8091505092915050565b6116f381600061182790919063ffffffff16565b8073ffffffffffffffffffffffffffffffffffffffff167f6ae172837ea30b801fbfcdd4108aa1d5bf8ff775444fd70256b44e6bf3dfc3f660405160405180910390a250565b61174d8160006118c190919063ffffffff16565b8073ffffffffffffffffffffffffffffffffffffffff167fe94479a9f7e1952cc78f2d6baab678adc1b772d936c6583def489e524cb6669260405160405180910390a250565b60008073ffffffffffffffffffffffffffffffffffffffff168273ffffffffffffffffffffffffffffffffffffffff16141515156117d057600080fd5b8260000160008373ffffffffffffffffffffffffffffffffffffffff1673ffffffffffffffffffffffffffffffffffffffff16815260200190815260200160002060009054906101000a900460ff16905092915050565b600073ffffffffffffffffffffffffffffffffffffffff168173ffffffffffffffffffffffffffffffffffffffff161415151561186357600080fd5b60018260000160008373ffffffffffffffffffffffffffffffffffffffff1673ffffffffffffffffffffffffffffffffffffffff16815260200190815260200160002060006101000a81548160ff0219169083151502179055505050565b600073ffffffffffffffffffffffffffffffffffffffff168173ffffffffffffffffffffffffffffffffffffffff16141515156118fd57600080fd5b60008260000160008373ffffffffffffffffffffffffffffffffffffffff1673ffffffffffffffffffffffffffffffffffffffff16815260200190815260200160002060006101000a81548160ff0219169083151502179055505050565b8280548282559060005260206000209081019282156119d4579160200282015b828111156119d35782518260006101000a81548173ffffffffffffffffffffffffffffffffffffffff021916908373ffffffffffffffffffffffffffffffffffffffff1602179055509160200191906001019061197b565b5b5090506119e191906119e5565b5090565b611a2591905b80821115611a2157600081816101000a81549073ffffffffffffffffffffffffffffffffffffffff0219169055506001016119eb565b5090565b905600a165627a7a723058202c159da3436f25145fdb91a9fd09cd108d1ad566e88c084e2abf45567ff5c2e20029",
  "source": "pragma solidity ^0.4.24;\r\n\r\nimport \"../math/SafeMath.sol\";\r\nimport \"../../LockedToken.sol\";\r\n\r\n/**\r\n * @title Standard ERC20 token\r\n *\r\n * @dev Implementation of the basic standard token.\r\n * https://github.com/ethereum/EIPs/blob/master/EIPS/eip-20.md\r\n * Originally based on code by FirstBlood: https://github.com/Firstbloodio/token/blob/master/smart_contract/FirstBloodToken.sol\r\n */\r\ncontract ERC20 is LockedToken {\r\n  using SafeMath for uint256;\r\n\r\n  mapping (address => uint256) public _balances;\r\n\r\n  mapping (address => mapping (address => uint256)) private _allowed;\r\n\r\n  uint256 private _totalSupply;\r\n\r\n  /**\r\n  * @dev Total number of tokens in existence\r\n  */\r\n  function totalSupply() public view returns (uint256) {\r\n    return _totalSupply;\r\n  }\r\n\r\n  /**\r\n  * @dev Gets the balance of the specified address.\r\n  * @param owner The address to query the balance of.\r\n  * @return An uint256 representing the amount owned by the passed address.\r\n  */\r\n  function balanceOf(address owner) public view returns (uint256) {\r\n    return _balances[owner];\r\n  }\r\n\r\n  /**\r\n   * @dev Function to check the amount of tokens that an owner allowed to a spender.\r\n   * @param owner address The address which owns the funds.\r\n   * @param spender address The address which will spend the funds.\r\n   * @return A uint256 specifying the amount of tokens still available for the spender.\r\n   */\r\n  function allowance(\r\n    address owner,\r\n    address spender\r\n   )\r\n    public\r\n    view\r\n    returns (uint256)\r\n  {\r\n    return _allowed[owner][spender];\r\n  }\r\n\r\n  /**\r\n  * @dev Transfer token for a specified address\r\n  * @param to The address to transfer to.\r\n  * @param value The amount to be transferred.\r\n  */\r\n  function transfer(address to, uint256 value) public addressUnlocked(msg.sender) returns (bool) {\r\n    require(value <= _balances[msg.sender]);\r\n    require(to != address(0));\r\n\r\n    _balances[msg.sender] = _balances[msg.sender].sub(value);\r\n    _balances[to] = _balances[to].add(value);\r\n    return true;\r\n  }\r\n\r\n  /**\r\n   * @dev Approve the passed address to spend the specified amount of tokens on behalf of msg.sender.\r\n   * Beware that changing an allowance with this method brings the risk that someone may use both the old\r\n   * and the new allowance by unfortunate transaction ordering. One possible solution to mitigate this\r\n   * race condition is to first reduce the spender's allowance to 0 and set the desired value afterwards:\r\n   * https://github.com/ethereum/EIPs/issues/20#issuecomment-263524729\r\n   * @param spender The address which will spend the funds.\r\n   * @param value The amount of tokens to be spent.\r\n   */\r\n  function approve(address spender, uint256 value) public returns (bool) {\r\n    require(spender != address(0));\r\n\r\n    _allowed[msg.sender][spender] = value;\r\n    return true;\r\n  }\r\n\r\n  /**\r\n   * @dev Transfer tokens from one address to another\r\n   * @param from address The address which you want to send tokens from\r\n   * @param to address The address which you want to transfer to\r\n   * @param value uint256 the amount of tokens to be transferred\r\n   */\r\n  function transferFrom(\r\n    address from,\r\n    address to,\r\n    uint256 value\r\n  )\r\n    public\r\n    addressUnlocked(msg.sender)\r\n    returns (bool)\r\n  {\r\n    require(value <= _balances[from]);\r\n    require(value <= _allowed[from][msg.sender]);\r\n    require(to != address(0));\r\n\r\n    _balances[from] = _balances[from].sub(value);\r\n    _balances[to] = _balances[to].add(value);\r\n    _allowed[from][msg.sender] = _allowed[from][msg.sender].sub(value);\r\n    return true;\r\n  }\r\n\r\n  /**\r\n   * @dev Increase the amount of tokens that an owner allowed to a spender.\r\n   * approve should be called when allowed_[_spender] == 0. To increment\r\n   * allowed value is better to use this function to avoid 2 calls (and wait until\r\n   * the first transaction is mined)\r\n   * From MonolithDAO Token.sol\r\n   * @param spender The address which will spend the funds.\r\n   * @param addedValue The amount of tokens to increase the allowance by.\r\n   */\r\n  function increaseAllowance(\r\n    address spender,\r\n    uint256 addedValue\r\n  )\r\n    public\r\n    returns (bool)\r\n  {\r\n    require(spender != address(0));\r\n\r\n    _allowed[msg.sender][spender] = (\r\n      _allowed[msg.sender][spender].add(addedValue));\r\n    return true;\r\n  }\r\n\r\n  /**\r\n   * @dev Decrease the amount of tokens that an owner allowed to a spender.\r\n   * approve should be called when allowed_[_spender] == 0. To decrement\r\n   * allowed value is better to use this function to avoid 2 calls (and wait until\r\n   * the first transaction is mined)\r\n   * From MonolithDAO Token.sol\r\n   * @param spender The address which will spend the funds.\r\n   * @param subtractedValue The amount of tokens to decrease the allowance by.\r\n   */\r\n  function decreaseAllowance(\r\n    address spender,\r\n    uint256 subtractedValue\r\n  )\r\n    public\r\n    returns (bool)\r\n  {\r\n    require(spender != address(0));\r\n\r\n    _allowed[msg.sender][spender] = (\r\n      _allowed[msg.sender][spender].sub(subtractedValue));\r\n    return true;\r\n  }\r\n\r\n  /**\r\n   * @dev Internal function that mints an amount of the token and assigns it to\r\n   * an account. This encapsulates the modification of balances such that the\r\n   * proper events are emitted.\r\n   * @param account The account that will receive the created tokens.\r\n   * @param amount The amount that will be created.\r\n   */\r\n  function _mint(address account, uint256 amount) internal {\r\n    require(account != 0);\r\n    _totalSupply = _totalSupply.add(amount);\r\n    _balances[account] = _balances[account].add(amount);\r\n  }\r\n\r\n  /**\r\n   * @dev Internal function that burns an amount of the token of a given\r\n   * account.\r\n   * @param account The account whose tokens will be burnt.\r\n   * @param amount The amount that will be burnt.\r\n   */\r\n  function _burn(address account, uint256 amount) internal {\r\n    require(account != 0);\r\n    require(amount <= _balances[account]);\r\n\r\n    _totalSupply = _totalSupply.sub(amount);\r\n    _balances[account] = _balances[account].sub(amount);\r\n  }\r\n\r\n  /**\r\n   * @dev Internal function that burns an amount of the token of a given\r\n   * account, deducting from the sender's allowance for said account. Uses the\r\n   * internal burn function.\r\n   * @param account The account whose tokens will be burnt.\r\n   * @param amount The amount that will be burnt.\r\n   */\r\n  function _burnFrom(address account, uint256 amount) internal {\r\n    require(amount <= _allowed[account][msg.sender]);\r\n\r\n    // Should https://github.com/OpenZeppelin/zeppelin-solidity/issues/707 be accepted,\r\n    // this function needs to emit an event with the updated approval.\r\n    _allowed[account][msg.sender] = _allowed[account][msg.sender].sub(\r\n      amount);\r\n    _burn(account, amount);\r\n  }\r\n}\r\n",
  "sourcePath": "/mnt/c/Users/lucas.jennings/Documents/GitHub/Politicoin/truffle/contracts/libraries/erc20/ERC20.sol",
  "compiler": {
    "name": "solc",
    "version": "0.4.24+commit.e67f0147.Emscripten.clang"
  },
  "schemaVersion": "2.0.1",
  "updatedAt": "2018-11-13T12:11:17.857Z"
}