{
  "contractName": "LockedToken",
  "abi": [
    {
      "constant": true,
      "inputs": [
        {
          "name": "",
          "type": "uint256"
        }
      ],
      "name": "lockedTokensArray",
      "outputs": [
        {
          "name": "",
          "type": "address"
        }
      ],
      "payable": false,
      "stateMutability": "view",
      "type": "function"
    },
    {
      "constant": true,
      "inputs": [
        {
          "name": "",
          "type": "address"
        }
      ],
      "name": "lockedTokens",
      "outputs": [
        {
          "name": "",
          "type": "bool"
        }
      ],
      "payable": false,
      "stateMutability": "view",
      "type": "function"
    },
    {
      "constant": false,
      "inputs": [
        {
          "name": "account",
          "type": "address"
        }
      ],
      "name": "addMinter",
      "outputs": [],
      "payable": false,
      "stateMutability": "nonpayable",
      "type": "function"
    },
    {
      "constant": false,
      "inputs": [],
      "name": "renounceMinter",
      "outputs": [],
      "payable": false,
      "stateMutability": "nonpayable",
      "type": "function"
    },
    {
      "constant": true,
      "inputs": [
        {
          "name": "account",
          "type": "address"
        }
      ],
      "name": "isMinter",
      "outputs": [
        {
          "name": "",
          "type": "bool"
        }
      ],
      "payable": false,
      "stateMutability": "view",
      "type": "function"
    },
    {
      "anonymous": false,
      "inputs": [
        {
          "indexed": true,
          "name": "account",
          "type": "address"
        }
      ],
      "name": "MinterAdded",
      "type": "event"
    },
    {
      "anonymous": false,
      "inputs": [
        {
          "indexed": true,
          "name": "account",
          "type": "address"
        }
      ],
      "name": "MinterRemoved",
      "type": "event"
    },
    {
      "constant": false,
      "inputs": [
        {
          "name": "lockAddress",
          "type": "address"
        }
      ],
      "name": "lockTokensMaster",
      "outputs": [
        {
          "name": "",
          "type": "bool"
        }
      ],
      "payable": false,
      "stateMutability": "nonpayable",
      "type": "function"
    },
    {
      "constant": false,
      "inputs": [],
      "name": "lockTokens",
      "outputs": [],
      "payable": false,
      "stateMutability": "nonpayable",
      "type": "function"
    },
    {
      "constant": true,
      "inputs": [
        {
          "name": "checkAddress",
          "type": "address"
        }
      ],
      "name": "isLocked",
      "outputs": [
        {
          "name": "",
          "type": "bool"
        }
      ],
      "payable": false,
      "stateMutability": "view",
      "type": "function"
    },
    {
      "constant": true,
      "inputs": [],
      "name": "showLockedTokens",
      "outputs": [
        {
          "name": "",
          "type": "address[]"
        }
      ],
      "payable": false,
      "stateMutability": "view",
      "type": "function"
    },
    {
      "constant": false,
      "inputs": [],
      "name": "unlockAllTokens",
      "outputs": [
        {
          "name": "",
          "type": "bool"
        }
      ],
      "payable": false,
      "stateMutability": "nonpayable",
      "type": "function"
    },
    {
      "constant": false,
      "inputs": [
        {
          "name": "addressToUnlock",
          "type": "address"
        }
      ],
      "name": "unlockAddress",
      "outputs": [],
      "payable": false,
      "stateMutability": "nonpayable",
      "type": "function"
    }
  ],
  "bytecode": "0x608060405261001c33610021640100000000026401000000009004565b610122565b610042816000610088640100000000026109d6179091906401000000009004565b8073ffffffffffffffffffffffffffffffffffffffff167f6ae172837ea30b801fbfcdd4108aa1d5bf8ff775444fd70256b44e6bf3dfc3f660405160405180910390a250565b600073ffffffffffffffffffffffffffffffffffffffff168173ffffffffffffffffffffffffffffffffffffffff16141515156100c457600080fd5b60018260000160008373ffffffffffffffffffffffffffffffffffffffff1673ffffffffffffffffffffffffffffffffffffffff16815260200190815260200160002060006101000a81548160ff0219169083151502179055505050565b610c03806101316000396000f3006080604052600436106100af576000357c0100000000000000000000000000000000000000000000000000000000900463ffffffff168063056a5e38146100b45780630a56293d1461010f5780632c13f8a4146101265780634a4fbeec146101935780635e0be607146101ee5780635eb7413a1461021d57806373b126df14610278578063983b2d56146102e45780639865027514610327578063aa271e1a1461033e578063b7eb5e0a14610399575b600080fd5b3480156100c057600080fd5b506100f5600480360381019080803573ffffffffffffffffffffffffffffffffffffffff1690602001909291905050506103dc565b604051808215151515815260200191505060405180910390f35b34801561011b57600080fd5b506101246104b4565b005b34801561013257600080fd5b5061015160048036038101908080359060200190929190505050610573565b604051808273ffffffffffffffffffffffffffffffffffffffff1673ffffffffffffffffffffffffffffffffffffffff16815260200191505060405180910390f35b34801561019f57600080fd5b506101d4600480360381019080803573ffffffffffffffffffffffffffffffffffffffff1690602001909291905050506105b1565b604051808215151515815260200191505060405180910390f35b3480156101fa57600080fd5b5061020361060c565b604051808215151515815260200191505060405180910390f35b34801561022957600080fd5b5061025e600480360381019080803573ffffffffffffffffffffffffffffffffffffffff169060200190929190505050610729565b604051808215151515815260200191505060405180910390f35b34801561028457600080fd5b5061028d610749565b6040518080602001828103825283818151815260200191508051906020019060200280838360005b838110156102d05780820151818401526020810190506102b5565b505050509050019250505060405180910390f35b3480156102f057600080fd5b50610325600480360381019080803573ffffffffffffffffffffffffffffffffffffffff1690602001909291905050506107d7565b005b34801561033357600080fd5b5061033c6107f7565b005b34801561034a57600080fd5b5061037f600480360381019080803573ffffffffffffffffffffffffffffffffffffffff169060200190929190505050610802565b604051808215151515815260200191505060405180910390f35b3480156103a557600080fd5b506103da600480360381019080803573ffffffffffffffffffffffffffffffffffffffff16906020019092919050505061081f565b005b60006103e733610802565b15156103f257600080fd5b60018060008473ffffffffffffffffffffffffffffffffffffffff1673ffffffffffffffffffffffffffffffffffffffff16815260200190815260200160002060006101000a81548160ff02191690831515021790555060028290806001815401808255809150509060018203906000526020600020016000909192909190916101000a81548173ffffffffffffffffffffffffffffffffffffffff021916908373ffffffffffffffffffffffffffffffffffffffff16021790555050919050565b60018060003373ffffffffffffffffffffffffffffffffffffffff1673ffffffffffffffffffffffffffffffffffffffff16815260200190815260200160002060006101000a81548160ff02191690831515021790555060023390806001815401808255809150509060018203906000526020600020016000909192909190916101000a81548173ffffffffffffffffffffffffffffffffffffffff021916908373ffffffffffffffffffffffffffffffffffffffff16021790555050565b60028181548110151561058257fe5b906000526020600020016000915054906101000a900473ffffffffffffffffffffffffffffffffffffffff1681565b600080600160008473ffffffffffffffffffffffffffffffffffffffff1673ffffffffffffffffffffffffffffffffffffffff16815260200190815260200160002060009054906101000a900460ff16905080915050919050565b60008060008061061b33610802565b151561062657600080fd5b6002805490509250600091505b828210156106dc5760028281548110151561064a57fe5b9060005260206000200160009054906101000a900473ffffffffffffffffffffffffffffffffffffffff1690506000600160008373ffffffffffffffffffffffffffffffffffffffff1673ffffffffffffffffffffffffffffffffffffffff16815260200190815260200160002060006101000a81548160ff0219169083151502179055508180600101925050610633565b600060405190808252806020026020018201604052801561070c5781602001602082028038833980820191505090505b5060029080519060200190610722929190610b0a565b5050505090565b60016020528060005260406000206000915054906101000a900460ff1681565b606060028054806020026020016040519081016040528092919081815260200182805480156107cd57602002820191906000526020600020905b8160009054906101000a900473ffffffffffffffffffffffffffffffffffffffff1673ffffffffffffffffffffffffffffffffffffffff1681526020019060010190808311610783575b5050505050905090565b6107e033610802565b15156107eb57600080fd5b6107f48161088e565b50565b610800336108e8565b565b600061081882600061094290919063ffffffff16565b9050919050565b61082833610802565b151561083357600080fd5b6000600160008373ffffffffffffffffffffffffffffffffffffffff1673ffffffffffffffffffffffffffffffffffffffff16815260200190815260200160002060006101000a81548160ff02191690831515021790555050565b6108a28160006109d690919063ffffffff16565b8073ffffffffffffffffffffffffffffffffffffffff167f6ae172837ea30b801fbfcdd4108aa1d5bf8ff775444fd70256b44e6bf3dfc3f660405160405180910390a250565b6108fc816000610a7090919063ffffffff16565b8073ffffffffffffffffffffffffffffffffffffffff167fe94479a9f7e1952cc78f2d6baab678adc1b772d936c6583def489e524cb6669260405160405180910390a250565b60008073ffffffffffffffffffffffffffffffffffffffff168273ffffffffffffffffffffffffffffffffffffffff161415151561097f57600080fd5b8260000160008373ffffffffffffffffffffffffffffffffffffffff1673ffffffffffffffffffffffffffffffffffffffff16815260200190815260200160002060009054906101000a900460ff16905092915050565b600073ffffffffffffffffffffffffffffffffffffffff168173ffffffffffffffffffffffffffffffffffffffff1614151515610a1257600080fd5b60018260000160008373ffffffffffffffffffffffffffffffffffffffff1673ffffffffffffffffffffffffffffffffffffffff16815260200190815260200160002060006101000a81548160ff0219169083151502179055505050565b600073ffffffffffffffffffffffffffffffffffffffff168173ffffffffffffffffffffffffffffffffffffffff1614151515610aac57600080fd5b60008260000160008373ffffffffffffffffffffffffffffffffffffffff1673ffffffffffffffffffffffffffffffffffffffff16815260200190815260200160002060006101000a81548160ff0219169083151502179055505050565b828054828255906000526020600020908101928215610b83579160200282015b82811115610b825782518260006101000a81548173ffffffffffffffffffffffffffffffffffffffff021916908373ffffffffffffffffffffffffffffffffffffffff16021790555091602001919060010190610b2a565b5b509050610b909190610b94565b5090565b610bd491905b80821115610bd057600081816101000a81549073ffffffffffffffffffffffffffffffffffffffff021916905550600101610b9a565b5090565b905600a165627a7a723058201bd61d8533963249e70053fe13fd68ec56175613ca2ba4a2f637f47bdb49b7f20029",
  "source": "pragma solidity^0.4.24;\r\n\r\nimport \"./libraries/roles/MinterRole.sol\";\r\n\r\ncontract LockedToken is MinterRole {\r\n\r\n  mapping(address => bool) public lockedTokens;\r\n\r\n  address[] public lockedTokensArray;\r\n\r\n  function lockTokensMaster (address lockAddress) public onlyMinter returns (bool) {\r\n    lockedTokens[lockAddress] = true;\r\n    lockedTokensArray.push(lockAddress);\r\n  }\r\n\r\n  function lockTokens () public {\r\n    lockedTokens[msg.sender] = true;\r\n    lockedTokensArray.push(msg.sender);\r\n  }\r\n\r\n  function isLocked(address checkAddress) public view returns (bool) {\r\n    bool isAddyLocked = lockedTokens[checkAddress];\r\n    return isAddyLocked;\r\n  }\r\n\r\n  function showLockedTokens() public view returns (address[]) {\r\n    return lockedTokensArray;\r\n  }\r\n\r\n  function unlockAllTokens () public onlyMinter returns (bool) {\r\n    uint arrayLength = lockedTokensArray.length;\r\n    for (uint i=0; i<arrayLength; i++) {\r\n      address check = lockedTokensArray[i];\r\n      lockedTokens[check] = false;\r\n    }\r\n    lockedTokensArray = new address[](0);\r\n  }\r\n\r\n  function unlockAddress(address addressToUnlock) public onlyMinter {\r\n    lockedTokens[addressToUnlock] = false;\r\n  }\r\n\r\n  modifier addressUnlocked(address checkAddress) {\r\n    require(lockedTokens[checkAddress] == false);\r\n    _;\r\n  }\r\n\r\n}\r\n",
  "sourcePath": "/mnt/c/Users/lucas.jennings/Documents/politicoin-token/contracts/LockedToken.sol",
  "compiler": {
    "name": "solc",
    "version": "0.4.24+commit.e67f0147.Emscripten.clang"
  },
  "schemaVersion": "2.0.1",
  "updatedAt": "2019-01-20T14:45:04.764Z"
}