{
  "contractName": "Politicoin",
  "abi": [
    {
      "constant": false,
      "inputs": [
        {
          "name": "lockAddress",
          "type": "address"
        }
      ],
      "name": "lockTokensMaster",
      "outputs": [
        {
          "name": "",
          "type": "bool"
        }
      ],
      "payable": false,
      "stateMutability": "nonpayable",
      "type": "function"
    },
    {
      "constant": false,
      "inputs": [
        {
          "name": "spender",
          "type": "address"
        },
        {
          "name": "value",
          "type": "uint256"
        }
      ],
      "name": "approve",
      "outputs": [
        {
          "name": "",
          "type": "bool"
        }
      ],
      "payable": false,
      "stateMutability": "nonpayable",
      "type": "function"
    },
    {
      "constant": false,
      "inputs": [],
      "name": "lockTokens",
      "outputs": [],
      "payable": false,
      "stateMutability": "nonpayable",
      "type": "function"
    },
    {
      "constant": true,
      "inputs": [],
      "name": "totalSupply",
      "outputs": [
        {
          "name": "",
          "type": "uint256"
        }
      ],
      "payable": false,
      "stateMutability": "view",
      "type": "function"
    },
    {
      "constant": false,
      "inputs": [
        {
          "name": "from",
          "type": "address"
        },
        {
          "name": "to",
          "type": "address"
        },
        {
          "name": "value",
          "type": "uint256"
        }
      ],
      "name": "transferFrom",
      "outputs": [
        {
          "name": "",
          "type": "bool"
        }
      ],
      "payable": false,
      "stateMutability": "nonpayable",
      "type": "function"
    },
    {
      "constant": true,
      "inputs": [
        {
          "name": "",
          "type": "uint256"
        }
      ],
      "name": "lockedTokensArray",
      "outputs": [
        {
          "name": "",
          "type": "address"
        }
      ],
      "payable": false,
      "stateMutability": "view",
      "type": "function"
    },
    {
      "constant": false,
      "inputs": [
        {
          "name": "spender",
          "type": "address"
        },
        {
          "name": "addedValue",
          "type": "uint256"
        }
      ],
      "name": "increaseAllowance",
      "outputs": [
        {
          "name": "",
          "type": "bool"
        }
      ],
      "payable": false,
      "stateMutability": "nonpayable",
      "type": "function"
    },
    {
      "constant": false,
      "inputs": [
        {
          "name": "to",
          "type": "address"
        },
        {
          "name": "amount",
          "type": "uint256"
        }
      ],
      "name": "mint",
      "outputs": [
        {
          "name": "",
          "type": "bool"
        }
      ],
      "payable": false,
      "stateMutability": "nonpayable",
      "type": "function"
    },
    {
      "constant": true,
      "inputs": [
        {
          "name": "checkAddress",
          "type": "address"
        }
      ],
      "name": "isLocked",
      "outputs": [
        {
          "name": "",
          "type": "bool"
        }
      ],
      "payable": false,
      "stateMutability": "view",
      "type": "function"
    },
    {
      "constant": true,
      "inputs": [
        {
          "name": "",
          "type": "uint256"
        }
      ],
      "name": "ballots",
      "outputs": [
        {
          "name": "name",
          "type": "string"
        },
        {
          "name": "endTime",
          "type": "uint256"
        },
        {
          "name": "yesVotes",
          "type": "uint256"
        },
        {
          "name": "noVotes",
          "type": "uint256"
        }
      ],
      "payable": false,
      "stateMutability": "view",
      "type": "function"
    },
    {
      "constant": false,
      "inputs": [],
      "name": "unlockAllTokens",
      "outputs": [
        {
          "name": "",
          "type": "bool"
        }
      ],
      "payable": false,
      "stateMutability": "nonpayable",
      "type": "function"
    },
    {
      "constant": true,
      "inputs": [
        {
          "name": "",
          "type": "address"
        }
      ],
      "name": "lockedTokens",
      "outputs": [
        {
          "name": "",
          "type": "bool"
        }
      ],
      "payable": false,
      "stateMutability": "view",
      "type": "function"
    },
    {
      "constant": true,
      "inputs": [
        {
          "name": "",
          "type": "address"
        }
      ],
      "name": "_balances",
      "outputs": [
        {
          "name": "",
          "type": "uint256"
        }
      ],
      "payable": false,
      "stateMutability": "view",
      "type": "function"
    },
    {
      "constant": true,
      "inputs": [
        {
          "name": "owner",
          "type": "address"
        }
      ],
      "name": "balanceOf",
      "outputs": [
        {
          "name": "",
          "type": "uint256"
        }
      ],
      "payable": false,
      "stateMutability": "view",
      "type": "function"
    },
    {
      "constant": true,
      "inputs": [],
      "name": "showLockedTokens",
      "outputs": [
        {
          "name": "",
          "type": "address[]"
        }
      ],
      "payable": false,
      "stateMutability": "view",
      "type": "function"
    },
    {
      "constant": false,
      "inputs": [
        {
          "name": "account",
          "type": "address"
        }
      ],
      "name": "addMinter",
      "outputs": [],
      "payable": false,
      "stateMutability": "nonpayable",
      "type": "function"
    },
    {
      "constant": false,
      "inputs": [],
      "name": "renounceMinter",
      "outputs": [],
      "payable": false,
      "stateMutability": "nonpayable",
      "type": "function"
    },
    {
      "constant": true,
      "inputs": [
        {
          "name": "",
          "type": "address"
        }
      ],
      "name": "whitelist",
      "outputs": [
        {
          "name": "",
          "type": "bool"
        }
      ],
      "payable": false,
      "stateMutability": "view",
      "type": "function"
    },
    {
      "constant": false,
      "inputs": [
        {
          "name": "spender",
          "type": "address"
        },
        {
          "name": "subtractedValue",
          "type": "uint256"
        }
      ],
      "name": "decreaseAllowance",
      "outputs": [
        {
          "name": "",
          "type": "bool"
        }
      ],
      "payable": false,
      "stateMutability": "nonpayable",
      "type": "function"
    },
    {
      "constant": false,
      "inputs": [
        {
          "name": "to",
          "type": "address"
        },
        {
          "name": "value",
          "type": "uint256"
        }
      ],
      "name": "transfer",
      "outputs": [
        {
          "name": "",
          "type": "bool"
        }
      ],
      "payable": false,
      "stateMutability": "nonpayable",
      "type": "function"
    },
    {
      "constant": true,
      "inputs": [
        {
          "name": "account",
          "type": "address"
        }
      ],
      "name": "isMinter",
      "outputs": [
        {
          "name": "",
          "type": "bool"
        }
      ],
      "payable": false,
      "stateMutability": "view",
      "type": "function"
    },
    {
      "constant": false,
      "inputs": [
        {
          "name": "addressToUnlock",
          "type": "address"
        }
      ],
      "name": "unlockAddress",
      "outputs": [],
      "payable": false,
      "stateMutability": "nonpayable",
      "type": "function"
    },
    {
      "constant": true,
      "inputs": [
        {
          "name": "",
          "type": "uint256"
        }
      ],
      "name": "whitelistArray",
      "outputs": [
        {
          "name": "",
          "type": "address"
        }
      ],
      "payable": false,
      "stateMutability": "view",
      "type": "function"
    },
    {
      "constant": true,
      "inputs": [
        {
          "name": "owner",
          "type": "address"
        },
        {
          "name": "spender",
          "type": "address"
        }
      ],
      "name": "allowance",
      "outputs": [
        {
          "name": "",
          "type": "uint256"
        }
      ],
      "payable": false,
      "stateMutability": "view",
      "type": "function"
    },
    {
      "anonymous": false,
      "inputs": [
        {
          "indexed": true,
          "name": "account",
          "type": "address"
        }
      ],
      "name": "MinterAdded",
      "type": "event"
    },
    {
      "anonymous": false,
      "inputs": [
        {
          "indexed": true,
          "name": "account",
          "type": "address"
        }
      ],
      "name": "MinterRemoved",
      "type": "event"
    },
    {
      "constant": false,
      "inputs": [
        {
          "name": "addresses",
          "type": "address[]"
        },
        {
          "name": "amounts",
          "type": "uint256[]"
        }
      ],
      "name": "distribute",
      "outputs": [
        {
          "name": "",
          "type": "bool[]"
        }
      ],
      "payable": false,
      "stateMutability": "nonpayable",
      "type": "function"
    },
    {
      "constant": false,
      "inputs": [
        {
          "name": "whiteListAddy",
          "type": "address"
        }
      ],
      "name": "whitelistAddress",
      "outputs": [],
      "payable": false,
      "stateMutability": "nonpayable",
      "type": "function"
    },
    {
      "constant": false,
      "inputs": [
        {
          "name": "whiteListAddys",
          "type": "address[]"
        }
      ],
      "name": "whiteListAddresses",
      "outputs": [],
      "payable": false,
      "stateMutability": "nonpayable",
      "type": "function"
    },
    {
      "constant": true,
      "inputs": [
        {
          "name": "checkAddress",
          "type": "address"
        }
      ],
      "name": "isWhiteListed",
      "outputs": [
        {
          "name": "",
          "type": "bool"
        }
      ],
      "payable": false,
      "stateMutability": "view",
      "type": "function"
    },
    {
      "constant": false,
      "inputs": [
        {
          "name": "ballotName",
          "type": "string"
        }
      ],
      "name": "createBallot",
      "outputs": [
        {
          "name": "ballotId",
          "type": "uint256"
        }
      ],
      "payable": false,
      "stateMutability": "nonpayable",
      "type": "function"
    },
    {
      "constant": true,
      "inputs": [
        {
          "name": "ballotId",
          "type": "uint256"
        }
      ],
      "name": "showBallot",
      "outputs": [
        {
          "name": "ballotName",
          "type": "string"
        },
        {
          "name": "ballotEndTime",
          "type": "uint256"
        },
        {
          "name": "ballotYesVotes",
          "type": "uint256"
        },
        {
          "name": "ballotNoVotes",
          "type": "uint256"
        }
      ],
      "payable": false,
      "stateMutability": "view",
      "type": "function"
    },
    {
      "constant": true,
      "inputs": [],
      "name": "getHighestBallotId",
      "outputs": [
        {
          "name": "",
          "type": "uint256"
        }
      ],
      "payable": false,
      "stateMutability": "view",
      "type": "function"
    },
    {
      "constant": false,
      "inputs": [
        {
          "name": "ballotId",
          "type": "uint256"
        },
        {
          "name": "YesVote",
          "type": "bool"
        }
      ],
      "name": "castVote",
      "outputs": [],
      "payable": false,
      "stateMutability": "nonpayable",
      "type": "function"
    }
  ],
  "bytecode": "0x60806040526200001e3362000024640100000000026401000000009004565b62000129565b620000488160006200008e640100000000026200262a179091906401000000009004565b8073ffffffffffffffffffffffffffffffffffffffff167f6ae172837ea30b801fbfcdd4108aa1d5bf8ff775444fd70256b44e6bf3dfc3f660405160405180910390a250565b600073ffffffffffffffffffffffffffffffffffffffff168173ffffffffffffffffffffffffffffffffffffffff1614151515620000cb57600080fd5b60018260000160008373ffffffffffffffffffffffffffffffffffffffff1673ffffffffffffffffffffffffffffffffffffffff16815260200190815260200160002060006101000a81548160ff0219169083151502179055505050565b61292580620001396000396000f300608060405260043610610196576000357c0100000000000000000000000000000000000000000000000000000000900463ffffffff168063056a5e381461019b578063095ea7b3146101f65780630a56293d1461025b57806315373e3d1461027257806318160ddd146102ab57806323b872dd146102d65780632929abe61461035b5780632c13f8a41461045957806339509351146104c657806340c10f191461052b578063415665851461059057806346a86576146105d35780634a4fbeec146106505780635c632b38146106ab5780635e0be607146107665780635eb7413a146107955780636eb0cfc5146107f05780636ebcf607146108ab5780636f9170f61461090257806370a082311461095d57806373b126df146109b45780637fc09ea414610a20578063983b2d5614610a4b5780639865027514610a8e5780639b19251a14610aa5578063a457c2d714610b00578063a9059cbb14610b65578063aa271e1a14610bca578063b7eb5e0a14610c25578063d251fefc14610c68578063dd62ed3e14610cd5578063e13639db14610d4c575b600080fd5b3480156101a757600080fd5b506101dc600480360381019080803573ffffffffffffffffffffffffffffffffffffffff169060200190929190505050610db2565b604051808215151515815260200191505060405180910390f35b34801561020257600080fd5b50610241600480360381019080803573ffffffffffffffffffffffffffffffffffffffff16906020019092919080359060200190929190505050610e8a565b604051808215151515815260200191505060405180910390f35b34801561026757600080fd5b50610270610f52565b005b34801561027e57600080fd5b506102a960048036038101908080359060200190929190803515159060200190929190505050611011565b005b3480156102b757600080fd5b506102c06111c4565b6040518082815260200191505060405180910390f35b3480156102e257600080fd5b50610341600480360381019080803573ffffffffffffffffffffffffffffffffffffffff169060200190929190803573ffffffffffffffffffffffffffffffffffffffff169060200190929190803590602001909291905050506111ce565b604051808215151515815260200191505060405180910390f35b34801561036757600080fd5b50610402600480360381019080803590602001908201803590602001908080602002602001604051908101604052809392919081815260200183836020028082843782019150505050505091929192908035906020019082018035906020019080806020026020016040519081016040528093929190818152602001838360200280828437820191505050505050919291929050505061158a565b6040518080602001828103825283818151815260200191508051906020019060200280838360005b8381101561044557808201518184015260208101905061042a565b505050509050019250505060405180910390f35b34801561046557600080fd5b5061048460048036038101908080359060200190929190505050611602565b604051808273ffffffffffffffffffffffffffffffffffffffff1673ffffffffffffffffffffffffffffffffffffffff16815260200191505060405180910390f35b3480156104d257600080fd5b50610511600480360381019080803573ffffffffffffffffffffffffffffffffffffffff16906020019092919080359060200190929190505050611640565b604051808215151515815260200191505060405180910390f35b34801561053757600080fd5b50610576600480360381019080803573ffffffffffffffffffffffffffffffffffffffff16906020019092919080359060200190929190505050611796565b604051808215151515815260200191505060405180910390f35b34801561059c57600080fd5b506105d1600480360381019080803573ffffffffffffffffffffffffffffffffffffffff1690602001909291905050506117c0565b005b3480156105df57600080fd5b5061063a600480360381019080803590602001908201803590602001908080601f0160208091040260200160405190810160405280939291908181526020018383808284378201915050505050509192919290505050611895565b6040518082815260200191505060405180910390f35b34801561065c57600080fd5b50610691600480360381019080803573ffffffffffffffffffffffffffffffffffffffff16906020019092919050505061195b565b604051808215151515815260200191505060405180910390f35b3480156106b757600080fd5b506106d6600480360381019080803590602001909291905050506119b6565b6040518080602001858152602001848152602001838152602001828103825286818151815260200191508051906020019080838360005b8381101561072857808201518184015260208101905061070d565b50505050905090810190601f1680156107555780820380516001836020036101000a031916815260200191505b509550505050505060405180910390f35b34801561077257600080fd5b5061077b611a8d565b604051808215151515815260200191505060405180910390f35b3480156107a157600080fd5b506107d6600480360381019080803573ffffffffffffffffffffffffffffffffffffffff169060200190929190505050611baa565b604051808215151515815260200191505060405180910390f35b3480156107fc57600080fd5b5061081b60048036038101908080359060200190929190505050611bca565b6040518080602001858152602001848152602001838152602001828103825286818151815260200191508051906020019080838360005b8381101561086d578082015181840152602081019050610852565b50505050905090810190601f16801561089a5780820380516001836020036101000a031916815260200191505b509550505050505060405180910390f35b3480156108b757600080fd5b506108ec600480360381019080803573ffffffffffffffffffffffffffffffffffffffff169060200190929190505050611cff565b6040518082815260200191505060405180910390f35b34801561090e57600080fd5b50610943600480360381019080803573ffffffffffffffffffffffffffffffffffffffff169060200190929190505050611d17565b604051808215151515815260200191505060405180910390f35b34801561096957600080fd5b5061099e600480360381019080803573ffffffffffffffffffffffffffffffffffffffff169060200190929190505050611d72565b6040518082815260200191505060405180910390f35b3480156109c057600080fd5b506109c9611dbb565b6040518080602001828103825283818151815260200191508051906020019060200280838360005b83811015610a0c5780820151818401526020810190506109f1565b505050509050019250505060405180910390f35b348015610a2c57600080fd5b50610a35611e49565b6040518082815260200191505060405180910390f35b348015610a5757600080fd5b50610a8c600480360381019080803573ffffffffffffffffffffffffffffffffffffffff169060200190929190505050611e59565b005b348015610a9a57600080fd5b50610aa3611e79565b005b348015610ab157600080fd5b50610ae6600480360381019080803573ffffffffffffffffffffffffffffffffffffffff169060200190929190505050611e84565b604051808215151515815260200191505060405180910390f35b348015610b0c57600080fd5b50610b4b600480360381019080803573ffffffffffffffffffffffffffffffffffffffff16906020019092919080359060200190929190505050611ea4565b604051808215151515815260200191505060405180910390f35b348015610b7157600080fd5b50610bb0600480360381019080803573ffffffffffffffffffffffffffffffffffffffff16906020019092919080359060200190929190505050611ffa565b604051808215151515815260200191505060405180910390f35b348015610bd657600080fd5b50610c0b600480360381019080803573ffffffffffffffffffffffffffffffffffffffff16906020019092919050505061221b565b604051808215151515815260200191505060405180910390f35b348015610c3157600080fd5b50610c66600480360381019080803573ffffffffffffffffffffffffffffffffffffffff169060200190929190505050612238565b005b348015610c7457600080fd5b50610c93600480360381019080803590602001909291905050506122a7565b604051808273ffffffffffffffffffffffffffffffffffffffff1673ffffffffffffffffffffffffffffffffffffffff16815260200191505060405180910390f35b348015610ce157600080fd5b50610d36600480360381019080803573ffffffffffffffffffffffffffffffffffffffff169060200190929190803573ffffffffffffffffffffffffffffffffffffffff1690602001909291905050506122e5565b6040518082815260200191505060405180910390f35b348015610d5857600080fd5b50610db06004803603810190808035906020019082018035906020019080806020026020016040519081016040528093929190818152602001838360200280828437820191505050505050919291929050505061236c565b005b6000610dbd3361221b565b1515610dc857600080fd5b60018060008473ffffffffffffffffffffffffffffffffffffffff1673ffffffffffffffffffffffffffffffffffffffff16815260200190815260200160002060006101000a81548160ff02191690831515021790555060028290806001815401808255809150509060018203906000526020600020016000909192909190916101000a81548173ffffffffffffffffffffffffffffffffffffffff021916908373ffffffffffffffffffffffffffffffffffffffff16021790555050919050565b60008073ffffffffffffffffffffffffffffffffffffffff168373ffffffffffffffffffffffffffffffffffffffff1614151515610ec757600080fd5b81600460003373ffffffffffffffffffffffffffffffffffffffff1673ffffffffffffffffffffffffffffffffffffffff16815260200190815260200160002060008573ffffffffffffffffffffffffffffffffffffffff1673ffffffffffffffffffffffffffffffffffffffff168152602001908152602001600020819055506001905092915050565b60018060003373ffffffffffffffffffffffffffffffffffffffff1673ffffffffffffffffffffffffffffffffffffffff16815260200190815260200160002060006101000a81548160ff02191690831515021790555060023390806001815401808255809150509060018203906000526020600020016000909192909190916101000a81548173ffffffffffffffffffffffffffffffffffffffff021916908373ffffffffffffffffffffffffffffffffffffffff16021790555050565b60003360011515600660008373ffffffffffffffffffffffffffffffffffffffff1673ffffffffffffffffffffffffffffffffffffffff16815260200190815260200160002060009054906101000a900460ff16151514151561107357600080fd5b3360001515600160008373ffffffffffffffffffffffffffffffffffffffff1673ffffffffffffffffffffffffffffffffffffffff16815260200190815260200160002060009054906101000a900460ff1615151415156110d357600080fd5b84426008828154811015156110e457fe5b9060005260206000209060040201600101541015151561110357600080fd5b61110b610f52565b600360003373ffffffffffffffffffffffffffffffffffffffff1673ffffffffffffffffffffffffffffffffffffffff16815260200190815260200160002054935060011515851515141561118d578360088781548110151561116a57fe5b9060005260206000209060040201600201600082825401925050819055506111bc565b8360088781548110151561119d57fe5b9060005260206000209060040201600301600082825401925050819055505b505050505050565b6000600554905090565b60003360001515600160008373ffffffffffffffffffffffffffffffffffffffff1673ffffffffffffffffffffffffffffffffffffffff16815260200190815260200160002060009054906101000a900460ff16151514151561123057600080fd5b600360008673ffffffffffffffffffffffffffffffffffffffff1673ffffffffffffffffffffffffffffffffffffffff16815260200190815260200160002054831115151561127e57600080fd5b600460008673ffffffffffffffffffffffffffffffffffffffff1673ffffffffffffffffffffffffffffffffffffffff16815260200190815260200160002060003373ffffffffffffffffffffffffffffffffffffffff1673ffffffffffffffffffffffffffffffffffffffff16815260200190815260200160002054831115151561130957600080fd5b600073ffffffffffffffffffffffffffffffffffffffff168473ffffffffffffffffffffffffffffffffffffffff161415151561134557600080fd5b61139783600360008873ffffffffffffffffffffffffffffffffffffffff1673ffffffffffffffffffffffffffffffffffffffff168152602001908152602001600020546123c690919063ffffffff16565b600360008773ffffffffffffffffffffffffffffffffffffffff1673ffffffffffffffffffffffffffffffffffffffff1681526020019081526020016000208190555061142c83600360008773ffffffffffffffffffffffffffffffffffffffff1673ffffffffffffffffffffffffffffffffffffffff168152602001908152602001600020546123e790919063ffffffff16565b600360008673ffffffffffffffffffffffffffffffffffffffff1673ffffffffffffffffffffffffffffffffffffffff168152602001908152602001600020819055506114fe83600460008873ffffffffffffffffffffffffffffffffffffffff1673ffffffffffffffffffffffffffffffffffffffff16815260200190815260200160002060003373ffffffffffffffffffffffffffffffffffffffff1673ffffffffffffffffffffffffffffffffffffffff168152602001908152602001600020546123c690919063ffffffff16565b600460008773ffffffffffffffffffffffffffffffffffffffff1673ffffffffffffffffffffffffffffffffffffffff16815260200190815260200160002060003373ffffffffffffffffffffffffffffffffffffffff1673ffffffffffffffffffffffffffffffffffffffff1681526020019081526020016000208190555060019150509392505050565b60606000806115983361221b565b15156115a357600080fd5b84519150600090505b818110156115fa576115ec85828151811015156115c557fe5b9060200190602002015185838151811015156115dd57fe5b90602001906020020151611796565b5080806001019150506115ac565b505092915050565b60028181548110151561161157fe5b906000526020600020016000915054906101000a900473ffffffffffffffffffffffffffffffffffffffff1681565b60008073ffffffffffffffffffffffffffffffffffffffff168373ffffffffffffffffffffffffffffffffffffffff161415151561167d57600080fd5b61170c82600460003373ffffffffffffffffffffffffffffffffffffffff1673ffffffffffffffffffffffffffffffffffffffff16815260200190815260200160002060008673ffffffffffffffffffffffffffffffffffffffff1673ffffffffffffffffffffffffffffffffffffffff168152602001908152602001600020546123e790919063ffffffff16565b600460003373ffffffffffffffffffffffffffffffffffffffff1673ffffffffffffffffffffffffffffffffffffffff16815260200190815260200160002060008573ffffffffffffffffffffffffffffffffffffffff1673ffffffffffffffffffffffffffffffffffffffff168152602001908152602001600020819055506001905092915050565b60006117a13361221b565b15156117ac57600080fd5b6117b68383612408565b6001905092915050565b6117c93361221b565b15156117d457600080fd5b6001600660008373ffffffffffffffffffffffffffffffffffffffff1673ffffffffffffffffffffffffffffffffffffffff16815260200190815260200160002060006101000a81548160ff02191690831515021790555060078190806001815401808255809150509060018203906000526020600020016000909192909190916101000a81548173ffffffffffffffffffffffffffffffffffffffff021916908373ffffffffffffffffffffffffffffffffffffffff1602179055505050565b600061189f61275e565b6118a83361221b565b15156118b357600080fd5b60806040519081016040528084815260200162015180420181526020016000815260200160008152509050600881908060018154018082558091505090600182039060005260206000209060040201600090919290919091506000820151816000019080519060200190611928929190612787565b50602082015181600101556040820151816002015560608201518160030155505050600160088054905003915050919050565b600080600160008473ffffffffffffffffffffffffffffffffffffffff1673ffffffffffffffffffffffffffffffffffffffff16815260200190815260200160002060009054906101000a900460ff16905080915050919050565b6008818154811015156119c557fe5b9060005260206000209060040201600091509050806000018054600181600116156101000203166002900480601f016020809104026020016040519081016040528092919081815260200182805460018160011615610100020316600290048015611a715780601f10611a4657610100808354040283529160200191611a71565b820191906000526020600020905b815481529060010190602001808311611a5457829003601f168201915b5050505050908060010154908060020154908060030154905084565b600080600080611a9c3361221b565b1515611aa757600080fd5b6002805490509250600091505b82821015611b5d57600282815481101515611acb57fe5b9060005260206000200160009054906101000a900473ffffffffffffffffffffffffffffffffffffffff1690506000600160008373ffffffffffffffffffffffffffffffffffffffff1673ffffffffffffffffffffffffffffffffffffffff16815260200190815260200160002060006101000a81548160ff0219169083151502179055508180600101925050611ab4565b6000604051908082528060200260200182016040528015611b8d5781602001602082028038833980820191505090505b5060029080519060200190611ba3929190612807565b5050505090565b60016020528060005260406000206000915054906101000a900460ff1681565b60606000806000600885815481101515611be057fe5b9060005260206000209060040201600001600886815481101515611c0057fe5b906000526020600020906004020160010154600887815481101515611c2157fe5b906000526020600020906004020160020154600888815481101515611c4257fe5b906000526020600020906004020160030154838054600181600116156101000203166002900480601f016020809104026020016040519081016040528092919081815260200182805460018160011615610100020316600290048015611ce95780601f10611cbe57610100808354040283529160200191611ce9565b820191906000526020600020905b815481529060010190602001808311611ccc57829003601f168201915b5050505050935093509350935093509193509193565b60036020528060005260406000206000915090505481565b600080600660008473ffffffffffffffffffffffffffffffffffffffff1673ffffffffffffffffffffffffffffffffffffffff16815260200190815260200160002060009054906101000a900460ff16905080915050919050565b6000600360008373ffffffffffffffffffffffffffffffffffffffff1673ffffffffffffffffffffffffffffffffffffffff168152602001908152602001600020549050919050565b60606002805480602002602001604051908101604052809291908181526020018280548015611e3f57602002820191906000526020600020905b8160009054906101000a900473ffffffffffffffffffffffffffffffffffffffff1673ffffffffffffffffffffffffffffffffffffffff1681526020019060010190808311611df5575b5050505050905090565b6000600160088054905003905090565b611e623361221b565b1515611e6d57600080fd5b611e76816124e2565b50565b611e823361253c565b565b60066020528060005260406000206000915054906101000a900460ff1681565b60008073ffffffffffffffffffffffffffffffffffffffff168373ffffffffffffffffffffffffffffffffffffffff1614151515611ee157600080fd5b611f7082600460003373ffffffffffffffffffffffffffffffffffffffff1673ffffffffffffffffffffffffffffffffffffffff16815260200190815260200160002060008673ffffffffffffffffffffffffffffffffffffffff1673ffffffffffffffffffffffffffffffffffffffff168152602001908152602001600020546123c690919063ffffffff16565b600460003373ffffffffffffffffffffffffffffffffffffffff1673ffffffffffffffffffffffffffffffffffffffff16815260200190815260200160002060008573ffffffffffffffffffffffffffffffffffffffff1673ffffffffffffffffffffffffffffffffffffffff168152602001908152602001600020819055506001905092915050565b60003360001515600160008373ffffffffffffffffffffffffffffffffffffffff1673ffffffffffffffffffffffffffffffffffffffff16815260200190815260200160002060009054906101000a900460ff16151514151561205c57600080fd5b600360003373ffffffffffffffffffffffffffffffffffffffff1673ffffffffffffffffffffffffffffffffffffffff1681526020019081526020016000205483111515156120aa57600080fd5b600073ffffffffffffffffffffffffffffffffffffffff168473ffffffffffffffffffffffffffffffffffffffff16141515156120e657600080fd5b61213883600360003373ffffffffffffffffffffffffffffffffffffffff1673ffffffffffffffffffffffffffffffffffffffff168152602001908152602001600020546123c690919063ffffffff16565b600360003373ffffffffffffffffffffffffffffffffffffffff1673ffffffffffffffffffffffffffffffffffffffff168152602001908152602001600020819055506121cd83600360008773ffffffffffffffffffffffffffffffffffffffff1673ffffffffffffffffffffffffffffffffffffffff168152602001908152602001600020546123e790919063ffffffff16565b600360008673ffffffffffffffffffffffffffffffffffffffff1673ffffffffffffffffffffffffffffffffffffffff16815260200190815260200160002081905550600191505092915050565b600061223182600061259690919063ffffffff16565b9050919050565b6122413361221b565b151561224c57600080fd5b6000600160008373ffffffffffffffffffffffffffffffffffffffff1673ffffffffffffffffffffffffffffffffffffffff16815260200190815260200160002060006101000a81548160ff02191690831515021790555050565b6007818154811015156122b657fe5b906000526020600020016000915054906101000a900473ffffffffffffffffffffffffffffffffffffffff1681565b6000600460008473ffffffffffffffffffffffffffffffffffffffff1673ffffffffffffffffffffffffffffffffffffffff16815260200190815260200160002060008373ffffffffffffffffffffffffffffffffffffffff1673ffffffffffffffffffffffffffffffffffffffff16815260200190815260200160002054905092915050565b6000806123783361221b565b151561238357600080fd5b82519150600090505b818110156123c1576123b483828151811015156123a557fe5b906020019060200201516117c0565b808060010191505061238c565b505050565b6000808383111515156123d857600080fd5b82840390508091505092915050565b60008082840190508381101515156123fe57600080fd5b8091505092915050565b60008273ffffffffffffffffffffffffffffffffffffffff161415151561242e57600080fd5b612443816005546123e790919063ffffffff16565b60058190555061249b81600360008573ffffffffffffffffffffffffffffffffffffffff1673ffffffffffffffffffffffffffffffffffffffff168152602001908152602001600020546123e790919063ffffffff16565b600360008473ffffffffffffffffffffffffffffffffffffffff1673ffffffffffffffffffffffffffffffffffffffff168152602001908152602001600020819055505050565b6124f681600061262a90919063ffffffff16565b8073ffffffffffffffffffffffffffffffffffffffff167f6ae172837ea30b801fbfcdd4108aa1d5bf8ff775444fd70256b44e6bf3dfc3f660405160405180910390a250565b6125508160006126c490919063ffffffff16565b8073ffffffffffffffffffffffffffffffffffffffff167fe94479a9f7e1952cc78f2d6baab678adc1b772d936c6583def489e524cb6669260405160405180910390a250565b60008073ffffffffffffffffffffffffffffffffffffffff168273ffffffffffffffffffffffffffffffffffffffff16141515156125d357600080fd5b8260000160008373ffffffffffffffffffffffffffffffffffffffff1673ffffffffffffffffffffffffffffffffffffffff16815260200190815260200160002060009054906101000a900460ff16905092915050565b600073ffffffffffffffffffffffffffffffffffffffff168173ffffffffffffffffffffffffffffffffffffffff161415151561266657600080fd5b60018260000160008373ffffffffffffffffffffffffffffffffffffffff1673ffffffffffffffffffffffffffffffffffffffff16815260200190815260200160002060006101000a81548160ff0219169083151502179055505050565b600073ffffffffffffffffffffffffffffffffffffffff168173ffffffffffffffffffffffffffffffffffffffff161415151561270057600080fd5b60008260000160008373ffffffffffffffffffffffffffffffffffffffff1673ffffffffffffffffffffffffffffffffffffffff16815260200190815260200160002060006101000a81548160ff0219169083151502179055505050565b608060405190810160405280606081526020016000815260200160008152602001600081525090565b828054600181600116156101000203166002900490600052602060002090601f016020900481019282601f106127c857805160ff19168380011785556127f6565b828001600101855582156127f6579182015b828111156127f55782518255916020019190600101906127da565b5b5090506128039190612891565b5090565b828054828255906000526020600020908101928215612880579160200282015b8281111561287f5782518260006101000a81548173ffffffffffffffffffffffffffffffffffffffff021916908373ffffffffffffffffffffffffffffffffffffffff16021790555091602001919060010190612827565b5b50905061288d91906128b6565b5090565b6128b391905b808211156128af576000816000905550600101612897565b5090565b90565b6128f691905b808211156128f257600081816101000a81549073ffffffffffffffffffffffffffffffffffffffff0219169055506001016128bc565b5090565b905600a165627a7a723058208168fcbaddcb12323ba1603fb5fea197ac457e30d6afb3f8f2d803f35ce0637e0029",
  "source": "pragma solidity ^0.4.24;\r\n\r\nimport \"./libraries/erc20/ERC20Mintable.sol\";\r\n\r\ncontract Politicoin is ERC20Mintable {\r\n\r\n  mapping (address => bool) public whitelist;\r\n  address[] public whitelistArray;\r\n\r\n  struct Ballot {\r\n    string name;\r\n    uint endTime;\r\n    uint yesVotes;\r\n    uint noVotes;\r\n  }\r\n\r\n  Ballot[] public ballots;\r\n\r\n  function distribute (address[] addresses, uint[] amounts) public onlyMinter returns (bool[]) {\r\n    uint arrayLength = addresses.length;\r\n    for (uint i=0; i<arrayLength; i++) {\r\n      mint(addresses[i], amounts[i]);\r\n    }\r\n  }\r\n\r\n  function whitelistAddress (address whiteListAddy) public onlyMinter {\r\n    whitelist[whiteListAddy] = true;\r\n    whitelistArray.push(whiteListAddy);\r\n  }\r\n\r\n  function whiteListAddresses (address[] whiteListAddys) public onlyMinter {\r\n    uint arrayLength = whiteListAddys.length;\r\n    for (uint i=0; i<arrayLength; i++) {\r\n      whitelistAddress(whiteListAddys[i]);\r\n    }\r\n  }\r\n\r\n  modifier whitelistedAddy(address checkAddress) {\r\n    require(whitelist[checkAddress] == true);\r\n    _;\r\n  }\r\n\r\n  function isWhiteListed(address checkAddress) public view returns (bool) {\r\n    bool isAddyWhiteListed = whitelist[checkAddress];\r\n    return isAddyWhiteListed;\r\n  }\r\n\r\n  function createBallot (string ballotName) public onlyMinter returns (uint ballotId)  {\r\n    Ballot memory newBallot = Ballot(ballotName, now + 1 days, 0, 0);\r\n    ballots.push(newBallot);\r\n    return ballots.length-1;\r\n  }\r\n\r\n  modifier ballotOpen (uint ballotId) {\r\n    require(ballots[ballotId].endTime >= now);\r\n    _;\r\n  }\r\n\r\n  function showBallot(uint ballotId) public view returns (string ballotName, uint ballotEndTime, uint ballotYesVotes, uint ballotNoVotes) {\r\n    return (ballots[ballotId].name, ballots[ballotId].endTime, ballots[ballotId].yesVotes, ballots[ballotId].noVotes);\r\n  }\r\n\r\n  function getHighestBallotId() public view returns (uint) {\r\n    return ballots.length-1;\r\n  }\r\n\r\n  function castVote (uint ballotId, bool YesVote) public whitelistedAddy(msg.sender) addressUnlocked(msg.sender) ballotOpen(ballotId) {\r\n    lockTokens();\r\n    uint votes = _balances[msg.sender];\r\n    if (YesVote == true) {\r\n      ballots[ballotId].yesVotes += votes;\r\n    }\r\n    else {\r\n      ballots[ballotId].noVotes += votes;\r\n    }\r\n  }\r\n\r\n}\r\n",
  "sourcePath": "/mnt/c/Users/lucas.jennings/Documents/GitHub/Politicoin/truffle/contracts/Politicoin.sol",
  "compiler": {
    "name": "solc",
    "version": "0.4.24+commit.e67f0147.Emscripten.clang"
  },
  "schemaVersion": "2.0.1",
  "updatedAt": "2018-11-13T12:11:17.868Z"
}