{
  "contractName": "Politicoin",
  "abi": [
    {
      "constant": false,
      "inputs": [
        {
          "name": "spender",
          "type": "address"
        },
        {
          "name": "value",
          "type": "uint256"
        }
      ],
      "name": "approve",
      "outputs": [
        {
          "name": "",
          "type": "bool"
        }
      ],
      "payable": false,
      "stateMutability": "nonpayable",
      "type": "function"
    },
    {
      "constant": true,
      "inputs": [],
      "name": "totalSupply",
      "outputs": [
        {
          "name": "",
          "type": "uint256"
        }
      ],
      "payable": false,
      "stateMutability": "view",
      "type": "function"
    },
    {
      "constant": false,
      "inputs": [
        {
          "name": "spender",
          "type": "address"
        },
        {
          "name": "addedValue",
          "type": "uint256"
        }
      ],
      "name": "increaseAllowance",
      "outputs": [
        {
          "name": "",
          "type": "bool"
        }
      ],
      "payable": false,
      "stateMutability": "nonpayable",
      "type": "function"
    },
    {
      "constant": false,
      "inputs": [
        {
          "name": "to",
          "type": "address"
        },
        {
          "name": "amount",
          "type": "uint256"
        }
      ],
      "name": "mint",
      "outputs": [
        {
          "name": "",
          "type": "bool"
        }
      ],
      "payable": false,
      "stateMutability": "nonpayable",
      "type": "function"
    },
    {
      "constant": true,
      "inputs": [
        {
          "name": "",
          "type": "uint256"
        }
      ],
      "name": "ballots",
      "outputs": [
        {
          "name": "name",
          "type": "string"
        },
        {
          "name": "open",
          "type": "bool"
        },
        {
          "name": "yesVotes",
          "type": "uint256"
        },
        {
          "name": "noVotes",
          "type": "uint256"
        }
      ],
      "payable": false,
      "stateMutability": "view",
      "type": "function"
    },
    {
      "constant": true,
      "inputs": [
        {
          "name": "",
          "type": "address"
        }
      ],
      "name": "_balances",
      "outputs": [
        {
          "name": "",
          "type": "uint256"
        }
      ],
      "payable": false,
      "stateMutability": "view",
      "type": "function"
    },
    {
      "constant": true,
      "inputs": [
        {
          "name": "owner",
          "type": "address"
        }
      ],
      "name": "balanceOf",
      "outputs": [
        {
          "name": "",
          "type": "uint256"
        }
      ],
      "payable": false,
      "stateMutability": "view",
      "type": "function"
    },
    {
      "constant": false,
      "inputs": [
        {
          "name": "account",
          "type": "address"
        }
      ],
      "name": "addMinter",
      "outputs": [],
      "payable": false,
      "stateMutability": "nonpayable",
      "type": "function"
    },
    {
      "constant": false,
      "inputs": [],
      "name": "renounceMinter",
      "outputs": [],
      "payable": false,
      "stateMutability": "nonpayable",
      "type": "function"
    },
    {
      "constant": false,
      "inputs": [
        {
          "name": "spender",
          "type": "address"
        },
        {
          "name": "subtractedValue",
          "type": "uint256"
        }
      ],
      "name": "decreaseAllowance",
      "outputs": [
        {
          "name": "",
          "type": "bool"
        }
      ],
      "payable": false,
      "stateMutability": "nonpayable",
      "type": "function"
    },
    {
      "constant": true,
      "inputs": [
        {
          "name": "account",
          "type": "address"
        }
      ],
      "name": "isMinter",
      "outputs": [
        {
          "name": "",
          "type": "bool"
        }
      ],
      "payable": false,
      "stateMutability": "view",
      "type": "function"
    },
    {
      "constant": true,
      "inputs": [
        {
          "name": "owner",
          "type": "address"
        },
        {
          "name": "spender",
          "type": "address"
        }
      ],
      "name": "allowance",
      "outputs": [
        {
          "name": "",
          "type": "uint256"
        }
      ],
      "payable": false,
      "stateMutability": "view",
      "type": "function"
    },
    {
      "anonymous": false,
      "inputs": [
        {
          "indexed": true,
          "name": "account",
          "type": "address"
        }
      ],
      "name": "MinterAdded",
      "type": "event"
    },
    {
      "anonymous": false,
      "inputs": [
        {
          "indexed": true,
          "name": "account",
          "type": "address"
        }
      ],
      "name": "MinterRemoved",
      "type": "event"
    },
    {
      "constant": false,
      "inputs": [
        {
          "name": "_addresses",
          "type": "address[]"
        },
        {
          "name": "_amounts",
          "type": "uint256[]"
        }
      ],
      "name": "distribute",
      "outputs": [
        {
          "name": "",
          "type": "bool[]"
        }
      ],
      "payable": false,
      "stateMutability": "nonpayable",
      "type": "function"
    },
    {
      "constant": false,
      "inputs": [
        {
          "name": "_whiteListAddy",
          "type": "address"
        }
      ],
      "name": "whitelistAddress",
      "outputs": [
        {
          "name": "",
          "type": "bool"
        }
      ],
      "payable": false,
      "stateMutability": "nonpayable",
      "type": "function"
    },
    {
      "constant": false,
      "inputs": [
        {
          "name": "_whiteListAddys",
          "type": "address[]"
        }
      ],
      "name": "whiteListAddresses",
      "outputs": [
        {
          "name": "",
          "type": "bool[]"
        }
      ],
      "payable": false,
      "stateMutability": "nonpayable",
      "type": "function"
    },
    {
      "constant": true,
      "inputs": [
        {
          "name": "_checkAddress",
          "type": "address"
        }
      ],
      "name": "isWhiteListed",
      "outputs": [
        {
          "name": "",
          "type": "bool"
        }
      ],
      "payable": false,
      "stateMutability": "view",
      "type": "function"
    },
    {
      "constant": false,
      "inputs": [
        {
          "name": "_ballotName",
          "type": "string"
        }
      ],
      "name": "createBallot",
      "outputs": [
        {
          "name": "ballotId",
          "type": "uint256"
        }
      ],
      "payable": false,
      "stateMutability": "nonpayable",
      "type": "function"
    },
    {
      "constant": true,
      "inputs": [
        {
          "name": "_ballotId",
          "type": "uint256"
        }
      ],
      "name": "isBallotOpen",
      "outputs": [
        {
          "name": "",
          "type": "bool"
        }
      ],
      "payable": false,
      "stateMutability": "view",
      "type": "function"
    },
    {
      "constant": true,
      "inputs": [],
      "name": "getHighestBallotId",
      "outputs": [
        {
          "name": "",
          "type": "uint256"
        }
      ],
      "payable": false,
      "stateMutability": "view",
      "type": "function"
    },
    {
      "constant": true,
      "inputs": [],
      "name": "getAllOpenBallotIds",
      "outputs": [
        {
          "name": "",
          "type": "uint256[]"
        }
      ],
      "payable": false,
      "stateMutability": "view",
      "type": "function"
    },
    {
      "constant": true,
      "inputs": [],
      "name": "getAllBallotIds",
      "outputs": [
        {
          "name": "",
          "type": "uint256[]"
        }
      ],
      "payable": false,
      "stateMutability": "view",
      "type": "function"
    },
    {
      "constant": true,
      "inputs": [
        {
          "name": "_ballotId",
          "type": "uint256"
        }
      ],
      "name": "showBallot",
      "outputs": [
        {
          "name": "_ballotName",
          "type": "string"
        },
        {
          "name": "_ballotOpen",
          "type": "bool"
        },
        {
          "name": "_ballotYesVotes",
          "type": "uint256"
        },
        {
          "name": "_ballotNoVotes",
          "type": "uint256"
        }
      ],
      "payable": false,
      "stateMutability": "view",
      "type": "function"
    },
    {
      "constant": true,
      "inputs": [
        {
          "name": "_ballotId",
          "type": "uint256"
        }
      ],
      "name": "isValidBallot",
      "outputs": [
        {
          "name": "",
          "type": "bool"
        }
      ],
      "payable": false,
      "stateMutability": "view",
      "type": "function"
    },
    {
      "constant": false,
      "inputs": [
        {
          "name": "_ballotId",
          "type": "uint256"
        }
      ],
      "name": "openBallot",
      "outputs": [
        {
          "name": "",
          "type": "bool"
        }
      ],
      "payable": false,
      "stateMutability": "nonpayable",
      "type": "function"
    },
    {
      "constant": false,
      "inputs": [
        {
          "name": "_ballotId",
          "type": "uint256"
        }
      ],
      "name": "closeBallot",
      "outputs": [
        {
          "name": "",
          "type": "bool"
        }
      ],
      "payable": false,
      "stateMutability": "nonpayable",
      "type": "function"
    },
    {
      "constant": true,
      "inputs": [
        {
          "name": "_ballotId",
          "type": "uint256"
        },
        {
          "name": "_address",
          "type": "address"
        }
      ],
      "name": "getVotesByBallotByAddress",
      "outputs": [
        {
          "name": "_yesVotes",
          "type": "uint256"
        },
        {
          "name": "_noVotes",
          "type": "uint256"
        }
      ],
      "payable": false,
      "stateMutability": "view",
      "type": "function"
    },
    {
      "constant": false,
      "inputs": [
        {
          "name": "_ballotId",
          "type": "uint256"
        },
        {
          "name": "_yesVote",
          "type": "bool"
        }
      ],
      "name": "castVote",
      "outputs": [
        {
          "name": "",
          "type": "bool"
        }
      ],
      "payable": false,
      "stateMutability": "nonpayable",
      "type": "function"
    },
    {
      "constant": false,
      "inputs": [
        {
          "name": "_to",
          "type": "address"
        },
        {
          "name": "_value",
          "type": "uint256"
        }
      ],
      "name": "transfer",
      "outputs": [
        {
          "name": "",
          "type": "bool"
        }
      ],
      "payable": false,
      "stateMutability": "nonpayable",
      "type": "function"
    },
    {
      "constant": false,
      "inputs": [
        {
          "name": "_from",
          "type": "address"
        },
        {
          "name": "_to",
          "type": "address"
        },
        {
          "name": "_value",
          "type": "uint256"
        }
      ],
      "name": "transferFrom",
      "outputs": [
        {
          "name": "",
          "type": "bool"
        }
      ],
      "payable": false,
      "stateMutability": "nonpayable",
      "type": "function"
    }
  ],
  "bytecode": "0x60806040526200001e3362000024640100000000026401000000009004565b62000129565b620000488160036200008e64010000000002620035fe179091906401000000009004565b8073ffffffffffffffffffffffffffffffffffffffff167f6ae172837ea30b801fbfcdd4108aa1d5bf8ff775444fd70256b44e6bf3dfc3f660405160405180910390a250565b600073ffffffffffffffffffffffffffffffffffffffff168173ffffffffffffffffffffffffffffffffffffffff1614151515620000cb57600080fd5b60018260000160008373ffffffffffffffffffffffffffffffffffffffff1673ffffffffffffffffffffffffffffffffffffffff16815260200190815260200160002060006101000a81548160ff0219169083151502179055505050565b61382f80620001396000396000f300608060405260043610610175576000357c0100000000000000000000000000000000000000000000000000000000900463ffffffff168063095ea7b31461017a57806315373e3d146101df57806318160ddd1461023057806323b872dd1461025b5780632929abe6146102e057806339509351146103de57806340c10f191461044357806341566585146104a857806346a8657614610503578063562d0e61146105805780635c632b38146105ec578063652acbc0146106ab5780636eb0cfc5146107135780636ebcf607146107d25780636f9170f61461082957806370a082311461088457806370d1a103146108db5780637fc09ea414610920578063983b2d561461094b578063986502751461098e578063a457c2d7146109a5578063a9059cbb14610a0a578063aa271e1a14610a6f578063bd309dd914610aca578063d045f1e414610b36578063dd62ed3e14610b7b578063e13639db14610bf2578063f0b0b7cd14610cad578063f867a2d814610cf2575b600080fd5b34801561018657600080fd5b506101c5600480360381019080803573ffffffffffffffffffffffffffffffffffffffff16906020019092919080359060200190929190505050610d37565b604051808215151515815260200191505060405180910390f35b3480156101eb57600080fd5b5061021660048036038101908080359060200190929190803515159060200190929190505050610dff565b604051808215151515815260200191505060405180910390f35b34801561023c57600080fd5b50610245611901565b6040518082815260200191505060405180910390f35b34801561026757600080fd5b506102c6600480360381019080803573ffffffffffffffffffffffffffffffffffffffff169060200190929190803573ffffffffffffffffffffffffffffffffffffffff1690602001909291908035906020019092919050505061190b565b604051808215151515815260200191505060405180910390f35b3480156102ec57600080fd5b50610387600480360381019080803590602001908201803590602001908080602002602001604051908101604052809392919081815260200183836020028082843782019150505050505091929192908035906020019082018035906020019080806020026020016040519081016040528093929190818152602001838360200280828437820191505050505050919291929050505061211d565b6040518080602001828103825283818151815260200191508051906020019060200280838360005b838110156103ca5780820151818401526020810190506103af565b505050509050019250505060405180910390f35b3480156103ea57600080fd5b50610429600480360381019080803573ffffffffffffffffffffffffffffffffffffffff16906020019092919080359060200190929190505050612190565b604051808215151515815260200191505060405180910390f35b34801561044f57600080fd5b5061048e600480360381019080803573ffffffffffffffffffffffffffffffffffffffff169060200190929190803590602001909291905050506122e6565b604051808215151515815260200191505060405180910390f35b3480156104b457600080fd5b506104e9600480360381019080803573ffffffffffffffffffffffffffffffffffffffff169060200190929190505050612310565b604051808215151515815260200191505060405180910390f35b34801561050f57600080fd5b5061056a600480360381019080803590602001908201803590602001908080601f0160208091040260200160405190810160405280939291908181526020018383808284378201915050505050509192919290505050612387565b6040518082815260200191505060405180910390f35b34801561058c57600080fd5b50610595612477565b6040518080602001828103825283818151815260200191508051906020019060200280838360005b838110156105d85780820151818401526020810190506105bd565b505050509050019250505060405180910390f35b3480156105f857600080fd5b50610617600480360381019080803590602001909291905050506124cf565b604051808060200185151515158152602001848152602001838152602001828103825286818151815260200191508051906020019080838360005b8381101561066d578082015181840152602081019050610652565b50505050905090810190601f16801561069a5780820380516001836020036101000a031916815260200191505b509550505050505060405180910390f35b3480156106b757600080fd5b506106f660048036038101908080359060200190929190803573ffffffffffffffffffffffffffffffffffffffff1690602001909291905050506125a4565b604051808381526020018281526020019250505060405180910390f35b34801561071f57600080fd5b5061073e60048036038101908080359060200190929190505050612670565b604051808060200185151515158152602001848152602001838152602001828103825286818151815260200191508051906020019080838360005b83811015610794578082015181840152602081019050610779565b50505050905090810190601f1680156107c15780820380516001836020036101000a031916815260200191505b509550505050505060405180910390f35b3480156107de57600080fd5b50610813600480360381019080803573ffffffffffffffffffffffffffffffffffffffff16906020019092919050505061278a565b6040518082815260200191505060405180910390f35b34801561083557600080fd5b5061086a600480360381019080803573ffffffffffffffffffffffffffffffffffffffff1690602001909291905050506127a2565b604051808215151515815260200191505060405180910390f35b34801561089057600080fd5b506108c5600480360381019080803573ffffffffffffffffffffffffffffffffffffffff1690602001909291905050506127f8565b6040518082815260200191505060405180910390f35b3480156108e757600080fd5b5061090660048036038101908080359060200190929190505050612840565b604051808215151515815260200191505060405180910390f35b34801561092c57600080fd5b5061093561285b565b6040518082815260200191505060405180910390f35b34801561095757600080fd5b5061098c600480360381019080803573ffffffffffffffffffffffffffffffffffffffff169060200190929190505050612865565b005b34801561099a57600080fd5b506109a3612885565b005b3480156109b157600080fd5b506109f0600480360381019080803573ffffffffffffffffffffffffffffffffffffffff16906020019092919080359060200190929190505050612890565b604051808215151515815260200191505060405180910390f35b348015610a1657600080fd5b50610a55600480360381019080803573ffffffffffffffffffffffffffffffffffffffff169060200190929190803590602001909291905050506129e6565b604051808215151515815260200191505060405180910390f35b348015610a7b57600080fd5b50610ab0600480360381019080803573ffffffffffffffffffffffffffffffffffffffff16906020019092919050505061305d565b604051808215151515815260200191505060405180910390f35b348015610ad657600080fd5b50610adf61307a565b6040518080602001828103825283818151815260200191508051906020019060200280838360005b83811015610b22578082015181840152602081019050610b07565b505050509050019250505060405180910390f35b348015610b4257600080fd5b50610b61600480360381019080803590602001909291905050506130d2565b604051808215151515815260200191505060405180910390f35b348015610b8757600080fd5b50610bdc600480360381019080803573ffffffffffffffffffffffffffffffffffffffff169060200190929190803573ffffffffffffffffffffffffffffffffffffffff1690602001909291905050506131c3565b6040518082815260200191505060405180910390f35b348015610bfe57600080fd5b50610c566004803603810190808035906020019082018035906020019080806020026020016040519081016040528093929190818152602001838360200280828437820191505050505050919291929050505061324a565b6040518080602001828103825283818151815260200191508051906020019060200280838360005b83811015610c99578082015181840152602081019050610c7e565b505050509050019250505060405180910390f35b348015610cb957600080fd5b50610cd8600480360381019080803590602001909291905050506132a4565b604051808215151515815260200191505060405180910390f35b348015610cfe57600080fd5b50610d1d600480360381019080803590602001909291905050506132e7565b604051808215151515815260200191505060405180910390f35b60008073ffffffffffffffffffffffffffffffffffffffff168373ffffffffffffffffffffffffffffffffffffffff1614151515610d7457600080fd5b81600160003373ffffffffffffffffffffffffffffffffffffffff1673ffffffffffffffffffffffffffffffffffffffff16815260200190815260200160002060008573ffffffffffffffffffffffffffffffffffffffff1673ffffffffffffffffffffffffffffffffffffffff168152602001908152602001600020819055506001905092915050565b60003360011515600460008373ffffffffffffffffffffffffffffffffffffffff1673ffffffffffffffffffffffffffffffffffffffff16815260200190815260200160002060009054906101000a900460ff161515141515610e6157600080fd5b83610e6b816132a4565b1515610e7657600080fd5b60008060003373ffffffffffffffffffffffffffffffffffffffff1673ffffffffffffffffffffffffffffffffffffffff16815260200190815260200160002054111515610ec357600080fd5b6000600a600087815260200190815260200160002060003373ffffffffffffffffffffffffffffffffffffffff1673ffffffffffffffffffffffffffffffffffffffff1681526020019081526020016000206000015411156112dd578315611111576000803373ffffffffffffffffffffffffffffffffffffffff1673ffffffffffffffffffffffffffffffffffffffff16815260200190815260200160002054600a600087815260200190815260200160002060003373ffffffffffffffffffffffffffffffffffffffff1673ffffffffffffffffffffffffffffffffffffffff16815260200190815260200160002060000154101561110c57600a600086815260200190815260200160002060003373ffffffffffffffffffffffffffffffffffffffff1673ffffffffffffffffffffffffffffffffffffffff168152602001908152602001600020600001546000803373ffffffffffffffffffffffffffffffffffffffff1673ffffffffffffffffffffffffffffffffffffffff168152602001908152602001600020540360066000878152602001908152602001600020600201600082825401925050819055506000803373ffffffffffffffffffffffffffffffffffffffff1673ffffffffffffffffffffffffffffffffffffffff16815260200190815260200160002054600a600087815260200190815260200160002060003373ffffffffffffffffffffffffffffffffffffffff1673ffffffffffffffffffffffffffffffffffffffff168152602001908152602001600020600001819055505b6112d8565b600a600086815260200190815260200160002060003373ffffffffffffffffffffffffffffffffffffffff1673ffffffffffffffffffffffffffffffffffffffff168152602001908152602001600020600001546006600087815260200190815260200160002060020160008282540392505081905550600a600086815260200190815260200160002060003373ffffffffffffffffffffffffffffffffffffffff1673ffffffffffffffffffffffffffffffffffffffff168152602001908152602001600020600001600090556000803373ffffffffffffffffffffffffffffffffffffffff1673ffffffffffffffffffffffffffffffffffffffff1681526020019081526020016000205460066000878152602001908152602001600020600301600082825401925050819055506000803373ffffffffffffffffffffffffffffffffffffffff1673ffffffffffffffffffffffffffffffffffffffff16815260200190815260200160002054600a600087815260200190815260200160002060003373ffffffffffffffffffffffffffffffffffffffff1673ffffffffffffffffffffffffffffffffffffffff168152602001908152602001600020600101819055505b6118f5565b6000600a600087815260200190815260200160002060003373ffffffffffffffffffffffffffffffffffffffff1673ffffffffffffffffffffffffffffffffffffffff1681526020019081526020016000206001015411156116f757831561150a57600a600086815260200190815260200160002060003373ffffffffffffffffffffffffffffffffffffffff1673ffffffffffffffffffffffffffffffffffffffff168152602001908152602001600020600101546006600087815260200190815260200160002060030160008282540392505081905550600a600086815260200190815260200160002060003373ffffffffffffffffffffffffffffffffffffffff1673ffffffffffffffffffffffffffffffffffffffff168152602001908152602001600020600101600090556000803373ffffffffffffffffffffffffffffffffffffffff1673ffffffffffffffffffffffffffffffffffffffff1681526020019081526020016000205460066000878152602001908152602001600020600201600082825401925050819055506000803373ffffffffffffffffffffffffffffffffffffffff1673ffffffffffffffffffffffffffffffffffffffff16815260200190815260200160002054600a600087815260200190815260200160002060003373ffffffffffffffffffffffffffffffffffffffff1673ffffffffffffffffffffffffffffffffffffffff168152602001908152602001600020600001819055506116f2565b6000803373ffffffffffffffffffffffffffffffffffffffff1673ffffffffffffffffffffffffffffffffffffffff16815260200190815260200160002054600a600087815260200190815260200160002060003373ffffffffffffffffffffffffffffffffffffffff1673ffffffffffffffffffffffffffffffffffffffff1681526020019081526020016000206001015410156116f157600a600086815260200190815260200160002060003373ffffffffffffffffffffffffffffffffffffffff1673ffffffffffffffffffffffffffffffffffffffff168152602001908152602001600020600101546000803373ffffffffffffffffffffffffffffffffffffffff1673ffffffffffffffffffffffffffffffffffffffff168152602001908152602001600020540360066000878152602001908152602001600020600301600082825401925050819055506000803373ffffffffffffffffffffffffffffffffffffffff1673ffffffffffffffffffffffffffffffffffffffff16815260200190815260200160002054600a600087815260200190815260200160002060003373ffffffffffffffffffffffffffffffffffffffff1673ffffffffffffffffffffffffffffffffffffffff168152602001908152602001600020600101819055505b5b6118f4565b83156117fa576000803373ffffffffffffffffffffffffffffffffffffffff1673ffffffffffffffffffffffffffffffffffffffff1681526020019081526020016000205460066000878152602001908152602001600020600201600082825401925050819055506000803373ffffffffffffffffffffffffffffffffffffffff1673ffffffffffffffffffffffffffffffffffffffff16815260200190815260200160002054600a600087815260200190815260200160002060003373ffffffffffffffffffffffffffffffffffffffff1673ffffffffffffffffffffffffffffffffffffffff168152602001908152602001600020600001819055506118f3565b6000803373ffffffffffffffffffffffffffffffffffffffff1673ffffffffffffffffffffffffffffffffffffffff1681526020019081526020016000205460066000878152602001908152602001600020600301600082825401925050819055506000803373ffffffffffffffffffffffffffffffffffffffff1673ffffffffffffffffffffffffffffffffffffffff16815260200190815260200160002054600a600087815260200190815260200160002060003373ffffffffffffffffffffffffffffffffffffffff1673ffffffffffffffffffffffffffffffffffffffff168152602001908152602001600020600101819055505b5b5b60019250505092915050565b6000600254905090565b6000806000808673ffffffffffffffffffffffffffffffffffffffff1673ffffffffffffffffffffffffffffffffffffffff16815260200190815260200160002054831115151561195b57600080fd5b600160008673ffffffffffffffffffffffffffffffffffffffff1673ffffffffffffffffffffffffffffffffffffffff16815260200190815260200160002060003373ffffffffffffffffffffffffffffffffffffffff1673ffffffffffffffffffffffffffffffffffffffff1681526020019081526020016000205483111515156119e657600080fd5b600073ffffffffffffffffffffffffffffffffffffffff168473ffffffffffffffffffffffffffffffffffffffff1614151515611a2257600080fd5b611a73836000808873ffffffffffffffffffffffffffffffffffffffff1673ffffffffffffffffffffffffffffffffffffffff1681526020019081526020016000205461339c90919063ffffffff16565b6000808773ffffffffffffffffffffffffffffffffffffffff1673ffffffffffffffffffffffffffffffffffffffff16815260200190815260200160002081905550611b06836000808773ffffffffffffffffffffffffffffffffffffffff1673ffffffffffffffffffffffffffffffffffffffff168152602001908152602001600020546133bd90919063ffffffff16565b6000808673ffffffffffffffffffffffffffffffffffffffff1673ffffffffffffffffffffffffffffffffffffffff16815260200190815260200160002081905550611bd783600160008873ffffffffffffffffffffffffffffffffffffffff1673ffffffffffffffffffffffffffffffffffffffff16815260200190815260200160002060003373ffffffffffffffffffffffffffffffffffffffff1673ffffffffffffffffffffffffffffffffffffffff1681526020019081526020016000205461339c90919063ffffffff16565b600160008773ffffffffffffffffffffffffffffffffffffffff1673ffffffffffffffffffffffffffffffffffffffff16815260200190815260200160002060003373ffffffffffffffffffffffffffffffffffffffff1673ffffffffffffffffffffffffffffffffffffffff16815260200190815260200160002081905550600090505b600880549050811015612111576000808673ffffffffffffffffffffffffffffffffffffffff1673ffffffffffffffffffffffffffffffffffffffff16815260200190815260200160002054600a6000600884815481101515611cbb57fe5b9060005260206000200154815260200190815260200160002060008773ffffffffffffffffffffffffffffffffffffffff1673ffffffffffffffffffffffffffffffffffffffff168152602001908152602001600020600001541115611eb8576000808673ffffffffffffffffffffffffffffffffffffffff1673ffffffffffffffffffffffffffffffffffffffff16815260200190815260200160002054600a6000600884815481101515611d6d57fe5b9060005260206000200154815260200190815260200160002060008773ffffffffffffffffffffffffffffffffffffffff1673ffffffffffffffffffffffffffffffffffffffff168152602001908152602001600020600001540360066000600884815481101515611ddb57fe5b90600052602060002001548152602001908152602001600020600201600082825403925050819055506000808673ffffffffffffffffffffffffffffffffffffffff1673ffffffffffffffffffffffffffffffffffffffff16815260200190815260200160002054600a6000600884815481101515611e5657fe5b9060005260206000200154815260200190815260200160002060008773ffffffffffffffffffffffffffffffffffffffff1673ffffffffffffffffffffffffffffffffffffffff16815260200190815260200160002060000181905550612104565b6000808673ffffffffffffffffffffffffffffffffffffffff1673ffffffffffffffffffffffffffffffffffffffff16815260200190815260200160002054600a6000600884815481101515611f0a57fe5b9060005260206000200154815260200190815260200160002060008773ffffffffffffffffffffffffffffffffffffffff1673ffffffffffffffffffffffffffffffffffffffff168152602001908152602001600020600101541115612103576000808673ffffffffffffffffffffffffffffffffffffffff1673ffffffffffffffffffffffffffffffffffffffff16815260200190815260200160002054600a6000600884815481101515611fbc57fe5b9060005260206000200154815260200190815260200160002060008773ffffffffffffffffffffffffffffffffffffffff1673ffffffffffffffffffffffffffffffffffffffff16815260200190815260200160002060010154036006600060088481548110151561202a57fe5b90600052602060002001548152602001908152602001600020600301600082825403925050819055506000808673ffffffffffffffffffffffffffffffffffffffff1673ffffffffffffffffffffffffffffffffffffffff16815260200190815260200160002054600a60006008848154811015156120a557fe5b9060005260206000200154815260200190815260200160002060008773ffffffffffffffffffffffffffffffffffffffff1673ffffffffffffffffffffffffffffffffffffffff168152602001908152602001600020600101819055505b5b8080600101915050611c5c565b60019150509392505050565b6060600061212a3361305d565b151561213557600080fd5b600090505b83518110156121895761217b848281518110151561215457fe5b90602001906020020151848381518110151561216c57fe5b906020019060200201516122e6565b50808060010191505061213a565b5092915050565b60008073ffffffffffffffffffffffffffffffffffffffff168373ffffffffffffffffffffffffffffffffffffffff16141515156121cd57600080fd5b61225c82600160003373ffffffffffffffffffffffffffffffffffffffff1673ffffffffffffffffffffffffffffffffffffffff16815260200190815260200160002060008673ffffffffffffffffffffffffffffffffffffffff1673ffffffffffffffffffffffffffffffffffffffff168152602001908152602001600020546133bd90919063ffffffff16565b600160003373ffffffffffffffffffffffffffffffffffffffff1673ffffffffffffffffffffffffffffffffffffffff16815260200190815260200160002060008573ffffffffffffffffffffffffffffffffffffffff1673ffffffffffffffffffffffffffffffffffffffff168152602001908152602001600020819055506001905092915050565b60006122f13361305d565b15156122fc57600080fd5b61230683836133de565b6001905092915050565b600061231b3361305d565b151561232657600080fd5b6001600460008473ffffffffffffffffffffffffffffffffffffffff1673ffffffffffffffffffffffffffffffffffffffff16815260200190815260200160002060006101000a81548160ff02191690831515021790555060019050919050565b60006123923361305d565b151561239d57600080fd5b6005600081548092919060010191905055506080604051908101604052808381526020016000151581526020016000815260200160008152506006600060055481526020019081526020016000206000820151816000019080519060200190612407929190613732565b5060208201518160010160006101000a81548160ff0219169083151502179055506040820151816002015560608201518160030155905050600760055490806001815401808255809150509060018203906000526020600020016000909192909190915055506005549050919050565b606060078054806020026020016040519081016040528092919081815260200182805480156124c557602002820191906000526020600020905b8154815260200190600101908083116124b1575b5050505050905090565b6006602052806000526040600020600091509050806000018054600181600116156101000203166002900480601f01602080910402602001604051908101604052809291908181526020018280546001816001161561010002031660029004801561257b5780601f106125505761010080835404028352916020019161257b565b820191906000526020600020905b81548152906001019060200180831161255e57829003601f168201915b5050505050908060010160009054906101000a900460ff16908060020154908060030154905084565b600080836125b181612840565b15156125bc57600080fd5b600a600086815260200190815260200160002060008573ffffffffffffffffffffffffffffffffffffffff1673ffffffffffffffffffffffffffffffffffffffff168152602001908152602001600020600001549250600a600086815260200190815260200160002060008573ffffffffffffffffffffffffffffffffffffffff1673ffffffffffffffffffffffffffffffffffffffff168152602001908152602001600020600101549150509250929050565b60606000806000600660008681526020019081526020016000206000016006600087815260200190815260200160002060010160009054906101000a900460ff1660066000888152602001908152602001600020600201546006600089815260200190815260200160002060030154838054600181600116156101000203166002900480601f0160208091040260200160405190810160405280929190818152602001828054600181600116156101000203166002900480156127745780601f1061274957610100808354040283529160200191612774565b820191906000526020600020905b81548152906001019060200180831161275757829003601f168201915b5050505050935093509350935093509193509193565b60006020528060005260406000206000915090505481565b6000600460008373ffffffffffffffffffffffffffffffffffffffff1673ffffffffffffffffffffffffffffffffffffffff16815260200190815260200160002060009054906101000a900460ff169050919050565b60008060008373ffffffffffffffffffffffffffffffffffffffff1673ffffffffffffffffffffffffffffffffffffffff168152602001908152602001600020549050919050565b600080821415801561285457506005548211155b9050919050565b6000600554905090565b61286e3361305d565b151561287957600080fd5b612882816134b6565b50565b61288e33613510565b565b60008073ffffffffffffffffffffffffffffffffffffffff168373ffffffffffffffffffffffffffffffffffffffff16141515156128cd57600080fd5b61295c82600160003373ffffffffffffffffffffffffffffffffffffffff1673ffffffffffffffffffffffffffffffffffffffff16815260200190815260200160002060008673ffffffffffffffffffffffffffffffffffffffff1673ffffffffffffffffffffffffffffffffffffffff1681526020019081526020016000205461339c90919063ffffffff16565b600160003373ffffffffffffffffffffffffffffffffffffffff1673ffffffffffffffffffffffffffffffffffffffff16815260200190815260200160002060008573ffffffffffffffffffffffffffffffffffffffff1673ffffffffffffffffffffffffffffffffffffffff168152602001908152602001600020819055506001905092915050565b6000806000803373ffffffffffffffffffffffffffffffffffffffff1673ffffffffffffffffffffffffffffffffffffffff168152602001908152602001600020548311151515612a3657600080fd5b600073ffffffffffffffffffffffffffffffffffffffff168473ffffffffffffffffffffffffffffffffffffffff1614151515612a7257600080fd5b612ac3836000803373ffffffffffffffffffffffffffffffffffffffff1673ffffffffffffffffffffffffffffffffffffffff1681526020019081526020016000205461339c90919063ffffffff16565b6000803373ffffffffffffffffffffffffffffffffffffffff1673ffffffffffffffffffffffffffffffffffffffff16815260200190815260200160002081905550612b56836000808773ffffffffffffffffffffffffffffffffffffffff1673ffffffffffffffffffffffffffffffffffffffff168152602001908152602001600020546133bd90919063ffffffff16565b6000808673ffffffffffffffffffffffffffffffffffffffff1673ffffffffffffffffffffffffffffffffffffffff16815260200190815260200160002081905550600090505b600880549050811015613052576000803373ffffffffffffffffffffffffffffffffffffffff1673ffffffffffffffffffffffffffffffffffffffff16815260200190815260200160002054600a6000600884815481101515612bfc57fe5b9060005260206000200154815260200190815260200160002060003373ffffffffffffffffffffffffffffffffffffffff1673ffffffffffffffffffffffffffffffffffffffff168152602001908152602001600020600001541115612df9576000803373ffffffffffffffffffffffffffffffffffffffff1673ffffffffffffffffffffffffffffffffffffffff16815260200190815260200160002054600a6000600884815481101515612cae57fe5b9060005260206000200154815260200190815260200160002060003373ffffffffffffffffffffffffffffffffffffffff1673ffffffffffffffffffffffffffffffffffffffff168152602001908152602001600020600001540360066000600884815481101515612d1c57fe5b90600052602060002001548152602001908152602001600020600201600082825403925050819055506000803373ffffffffffffffffffffffffffffffffffffffff1673ffffffffffffffffffffffffffffffffffffffff16815260200190815260200160002054600a6000600884815481101515612d9757fe5b9060005260206000200154815260200190815260200160002060003373ffffffffffffffffffffffffffffffffffffffff1673ffffffffffffffffffffffffffffffffffffffff16815260200190815260200160002060000181905550613045565b6000803373ffffffffffffffffffffffffffffffffffffffff1673ffffffffffffffffffffffffffffffffffffffff16815260200190815260200160002054600a6000600884815481101515612e4b57fe5b9060005260206000200154815260200190815260200160002060003373ffffffffffffffffffffffffffffffffffffffff1673ffffffffffffffffffffffffffffffffffffffff168152602001908152602001600020600101541115613044576000803373ffffffffffffffffffffffffffffffffffffffff1673ffffffffffffffffffffffffffffffffffffffff16815260200190815260200160002054600a6000600884815481101515612efd57fe5b9060005260206000200154815260200190815260200160002060003373ffffffffffffffffffffffffffffffffffffffff1673ffffffffffffffffffffffffffffffffffffffff168152602001908152602001600020600101540360066000600884815481101515612f6b57fe5b90600052602060002001548152602001908152602001600020600301600082825403925050819055506000803373ffffffffffffffffffffffffffffffffffffffff1673ffffffffffffffffffffffffffffffffffffffff16815260200190815260200160002054600a6000600884815481101515612fe657fe5b9060005260206000200154815260200190815260200160002060003373ffffffffffffffffffffffffffffffffffffffff1673ffffffffffffffffffffffffffffffffffffffff168152602001908152602001600020600101819055505b5b8080600101915050612b9d565b600191505092915050565b600061307382600361356a90919063ffffffff16565b9050919050565b606060088054806020026020016040519081016040528092919081815260200182805480156130c857602002820191906000526020600020905b8154815260200190600101908083116130b4575b5050505050905090565b60006130dd3361305d565b15156130e857600080fd5b816130f2816132a4565b15156130fd57600080fd5b60006006600085815260200190815260200160002060010160006101000a81548160ff02191690831515021790555060016008805490500360096000858152602001908152602001600020541415156131a357600860016008805490500381548110151561316757fe5b90600052602060002001546008600960008681526020019081526020016000205481548110151561319457fe5b90600052602060002001819055505b60088054809190600190036131b891906137b2565b506001915050919050565b6000600160008473ffffffffffffffffffffffffffffffffffffffff1673ffffffffffffffffffffffffffffffffffffffff16815260200190815260200160002060008373ffffffffffffffffffffffffffffffffffffffff1673ffffffffffffffffffffffffffffffffffffffff16815260200190815260200160002054905092915050565b606060006132573361305d565b151561326257600080fd5b600090505b825181101561329e57613290838281518110151561328157fe5b90602001906020020151612310565b508080600101915050613267565b50919050565b6000816132b081612840565b15156132bb57600080fd5b6006600084815260200190815260200160002060010160009054906101000a900460ff16915050919050565b60006132f23361305d565b15156132fd57600080fd5b6000151561330a836132a4565b151514151561331857600080fd5b60016006600084815260200190815260200160002060010160006101000a81548160ff0219169083151502179055506008829080600181540180825580915050906001820390600052602060002001600090919290919091505550600160088054905003600960008481526020019081526020016000208190555060019050919050565b6000808383111515156133ae57600080fd5b82840390508091505092915050565b60008082840190508381101515156133d457600080fd5b8091505092915050565b60008273ffffffffffffffffffffffffffffffffffffffff161415151561340457600080fd5b613419816002546133bd90919063ffffffff16565b600281905550613470816000808573ffffffffffffffffffffffffffffffffffffffff1673ffffffffffffffffffffffffffffffffffffffff168152602001908152602001600020546133bd90919063ffffffff16565b6000808473ffffffffffffffffffffffffffffffffffffffff1673ffffffffffffffffffffffffffffffffffffffff168152602001908152602001600020819055505050565b6134ca8160036135fe90919063ffffffff16565b8073ffffffffffffffffffffffffffffffffffffffff167f6ae172837ea30b801fbfcdd4108aa1d5bf8ff775444fd70256b44e6bf3dfc3f660405160405180910390a250565b61352481600361369890919063ffffffff16565b8073ffffffffffffffffffffffffffffffffffffffff167fe94479a9f7e1952cc78f2d6baab678adc1b772d936c6583def489e524cb6669260405160405180910390a250565b60008073ffffffffffffffffffffffffffffffffffffffff168273ffffffffffffffffffffffffffffffffffffffff16141515156135a757600080fd5b8260000160008373ffffffffffffffffffffffffffffffffffffffff1673ffffffffffffffffffffffffffffffffffffffff16815260200190815260200160002060009054906101000a900460ff16905092915050565b600073ffffffffffffffffffffffffffffffffffffffff168173ffffffffffffffffffffffffffffffffffffffff161415151561363a57600080fd5b60018260000160008373ffffffffffffffffffffffffffffffffffffffff1673ffffffffffffffffffffffffffffffffffffffff16815260200190815260200160002060006101000a81548160ff0219169083151502179055505050565b600073ffffffffffffffffffffffffffffffffffffffff168173ffffffffffffffffffffffffffffffffffffffff16141515156136d457600080fd5b60008260000160008373ffffffffffffffffffffffffffffffffffffffff1673ffffffffffffffffffffffffffffffffffffffff16815260200190815260200160002060006101000a81548160ff0219169083151502179055505050565b828054600181600116156101000203166002900490600052602060002090601f016020900481019282601f1061377357805160ff19168380011785556137a1565b828001600101855582156137a1579182015b828111156137a0578251825591602001919060010190613785565b5b5090506137ae91906137de565b5090565b8154818355818111156137d9578183600052602060002091820191016137d891906137de565b5b505050565b61380091905b808211156137fc5760008160009055506001016137e4565b5090565b905600a165627a7a72305820e242bf26838f66ae90b48b755555c3f7df130fa7733c7a494da6a1f97a941a750029",
  "source": "pragma solidity ^0.4.24;\r\n\r\nimport \"./libraries/erc20/ERC20Mintable.sol\";\r\n\r\ncontract Politicoin is ERC20Mintable {\r\n  using SafeMath for uint256;\r\n\r\n  mapping (address => bool) private whitelist;\r\n\r\n  uint private maxBallotId;\r\n\r\n  struct Ballot {\r\n    string name;\r\n    bool open;\r\n    uint yesVotes;\r\n    uint noVotes;\r\n  }\r\n\r\n  mapping (uint => Ballot) public ballots;\r\n  uint[] private ballotIds;\r\n  uint[] private openBallots;\r\n  mapping (uint => uint) private openBallotIdIndex;\r\n  /* Stores the index at which a given ballotId exists in openBallots array */\r\n\r\n  struct CastVote {\r\n    uint yesVotes;\r\n    uint noVotes;\r\n  }\r\n\r\n  mapping (uint => mapping (address => CastVote)) private ballotAddressVotes;\r\n  /* Used to store current votes on a given ballotId for an address.  Index position 0 is yesVotes and position 1 is no votes.  Only one of these can be a non-zero value */\r\n\r\n  function distribute (address[] _addresses, uint[] _amounts) public onlyMinter returns (bool[]) {\r\n    for (uint i = 0; i < _addresses.length; i++) {\r\n      mint(_addresses[i], _amounts[i]);\r\n    }\r\n  }\r\n\r\n  function whitelistAddress (address _whiteListAddy) public onlyMinter returns (bool) {\r\n    whitelist[_whiteListAddy] = true;\r\n    return true;\r\n  }\r\n\r\n  function whiteListAddresses (address[] _whiteListAddys) public onlyMinter returns (bool[]) {\r\n    for (uint i = 0; i < _whiteListAddys.length; i++) {\r\n      whitelistAddress(_whiteListAddys[i]);\r\n    }\r\n  }\r\n\r\n  modifier whitelistedAddy(address _checkAddress) {\r\n    require(whitelist[_checkAddress] == true);\r\n    _;\r\n  }\r\n\r\n  function isWhiteListed(address _checkAddress) public view returns (bool) {\r\n    return whitelist[_checkAddress];\r\n  }\r\n\r\n  function createBallot (string _ballotName) public onlyMinter returns (uint ballotId)  {\r\n    maxBallotId++;\r\n    ballots[maxBallotId] = Ballot(_ballotName, false, 0, 0);\r\n    ballotIds.push(maxBallotId);\r\n    return maxBallotId;\r\n  }\r\n\r\n  function isBallotOpen (uint _ballotId) public view validBallot(_ballotId) returns (bool) {\r\n    return ballots[_ballotId].open;\r\n  }\r\n\r\n  modifier ballotOpen (uint _ballotId) {\r\n    require(isBallotOpen(_ballotId));\r\n    _;\r\n  }\r\n\r\n  function getHighestBallotId () public view returns (uint) {\r\n    return maxBallotId;\r\n  }\r\n\r\n  function getAllOpenBallotIds () public view returns (uint[]) {\r\n    return openBallots;\r\n  }\r\n\r\n  function getAllBallotIds () public view returns (uint[]) {\r\n    return ballotIds;\r\n  }\r\n\r\n  function showBallot (uint _ballotId) public view returns (string _ballotName, bool _ballotOpen, uint _ballotYesVotes, uint _ballotNoVotes) {\r\n    return (ballots[_ballotId].name, ballots[_ballotId].open, ballots[_ballotId].yesVotes, ballots[_ballotId].noVotes);\r\n  }\r\n\r\n  function isValidBallot (uint _ballotId) public view returns (bool) {\r\n    return _ballotId != 0 && _ballotId <= maxBallotId;\r\n  }\r\n\r\n  modifier validBallot (uint _ballotId) {\r\n    require(isValidBallot(_ballotId));\r\n    _;\r\n  }\r\n\r\n  function openBallot (uint _ballotId) public onlyMinter returns (bool) {\r\n    require(isBallotOpen(_ballotId) == false);\r\n    ballots[_ballotId].open = true;\r\n    openBallots.push(_ballotId);\r\n    openBallotIdIndex[_ballotId] = openBallots.length - 1;\r\n    return true;\r\n  }\r\n\r\n  function closeBallot (uint _ballotId) public onlyMinter ballotOpen(_ballotId) returns (bool) {\r\n    ballots[_ballotId].open = false;\r\n    if (openBallotIdIndex[_ballotId] != openBallots.length - 1) {\r\n      openBallots[openBallotIdIndex[_ballotId]] = openBallots[openBallots.length-1];\r\n    }\r\n    openBallots.length--;\r\n    return true;\r\n  }\r\n\r\n  function getVotesByBallotByAddress (uint _ballotId, address _address) public view validBallot(_ballotId) returns (uint _yesVotes, uint _noVotes) {\r\n    _yesVotes = ballotAddressVotes[_ballotId][_address].yesVotes;\r\n    _noVotes = ballotAddressVotes[_ballotId][_address].noVotes;\r\n  }\r\n\r\n  function castVote (uint _ballotId, bool _yesVote) public whitelistedAddy(msg.sender) ballotOpen(_ballotId) returns (bool) {\r\n    require(_balances[msg.sender] > 0);\r\n    if (ballotAddressVotes[_ballotId][msg.sender].yesVotes > 0) {\r\n      if (_yesVote) {\r\n        if (ballotAddressVotes[_ballotId][msg.sender].yesVotes < _balances[msg.sender]) {\r\n          ballots[_ballotId].yesVotes += _balances[msg.sender] - ballotAddressVotes[_ballotId][msg.sender].yesVotes;\r\n          ballotAddressVotes[_ballotId][msg.sender].yesVotes = _balances[msg.sender];\r\n        }\r\n      }\r\n      else {\r\n        ballots[_ballotId].yesVotes -= ballotAddressVotes[_ballotId][msg.sender].yesVotes;\r\n        delete ballotAddressVotes[_ballotId][msg.sender].yesVotes;\r\n        ballots[_ballotId].noVotes += _balances[msg.sender];\r\n        ballotAddressVotes[_ballotId][msg.sender].noVotes = _balances[msg.sender];\r\n      }\r\n    }\r\n    else if (ballotAddressVotes[_ballotId][msg.sender].noVotes > 0) {\r\n      if (_yesVote) {\r\n        ballots[_ballotId].noVotes -= ballotAddressVotes[_ballotId][msg.sender].noVotes;\r\n        delete ballotAddressVotes[_ballotId][msg.sender].noVotes;\r\n        ballots[_ballotId].yesVotes += _balances[msg.sender];\r\n        ballotAddressVotes[_ballotId][msg.sender].yesVotes = _balances[msg.sender];\r\n      }\r\n      else {\r\n        if (ballotAddressVotes[_ballotId][msg.sender].noVotes < _balances[msg.sender]) {\r\n          ballots[_ballotId].noVotes += _balances[msg.sender] - ballotAddressVotes[_ballotId][msg.sender].noVotes;\r\n          ballotAddressVotes[_ballotId][msg.sender].noVotes = _balances[msg.sender];\r\n        }\r\n      }\r\n    }\r\n    else {\r\n      if (_yesVote) {\r\n        ballots[_ballotId].yesVotes += _balances[msg.sender];\r\n        ballotAddressVotes[_ballotId][msg.sender].yesVotes = _balances[msg.sender];\r\n      }\r\n      else {\r\n        ballots[_ballotId].noVotes += _balances[msg.sender];\r\n        ballotAddressVotes[_ballotId][msg.sender].noVotes = _balances[msg.sender];\r\n      }\r\n    }\r\n    return true;\r\n  }\r\n\r\n  /* Transfer function moved here in order to remove cast votes when transferring tokens */\r\n  function transfer(address _to, uint256 _value) public returns (bool) {\r\n    require(_value <= _balances[msg.sender]);\r\n    require(_to != address(0));\r\n    _balances[msg.sender] = _balances[msg.sender].sub(_value);\r\n    _balances[_to] = _balances[_to].add(_value);\r\n    for (uint i = 0; i < openBallots.length; i++) {\r\n      if (ballotAddressVotes[openBallots[i]][msg.sender].yesVotes > _balances[msg.sender]) {\r\n        ballots[openBallots[i]].yesVotes -= (ballotAddressVotes[openBallots[i]][msg.sender].yesVotes - _balances[msg.sender]);\r\n        ballotAddressVotes[openBallots[i]][msg.sender].yesVotes = _balances[msg.sender];\r\n      }\r\n      else if (ballotAddressVotes[openBallots[i]][msg.sender].noVotes > _balances[msg.sender]) {\r\n        ballots[openBallots[i]].noVotes -= (ballotAddressVotes[openBallots[i]][msg.sender].noVotes - _balances[msg.sender]);\r\n        ballotAddressVotes[openBallots[i]][msg.sender].noVotes = _balances[msg.sender];\r\n      }\r\n    }\r\n    return true;\r\n  }\r\n\r\n  /* transferFrom function moved here in order to remove cast votes when transferring tokens */\r\n  function transferFrom(address _from, address _to, uint256 _value) public returns (bool) {\r\n    require(_value <= _balances[_from]);\r\n    require(_value <= _allowed[_from][msg.sender]);\r\n    require(_to != address(0));\r\n\r\n    _balances[_from] = _balances[_from].sub(_value);\r\n    _balances[_to] = _balances[_to].add(_value);\r\n    _allowed[_from][msg.sender] = _allowed[_from][msg.sender].sub(_value);\r\n    for (uint i = 0; i < openBallots.length; i++) {\r\n      if (ballotAddressVotes[openBallots[i]][_from].yesVotes > _balances[_from]) {\r\n        ballots[openBallots[i]].yesVotes -= (ballotAddressVotes[openBallots[i]][_from].yesVotes - _balances[_from]);\r\n        ballotAddressVotes[openBallots[i]][_from].yesVotes = _balances[_from];\r\n      }\r\n      else if (ballotAddressVotes[openBallots[i]][_from].noVotes > _balances[_from]) {\r\n        ballots[openBallots[i]].noVotes -= (ballotAddressVotes[openBallots[i]][_from].noVotes - _balances[_from]);\r\n        ballotAddressVotes[openBallots[i]][_from].noVotes = _balances[_from];\r\n      }\r\n    }\r\n    return true;\r\n  }\r\n}\r\n",
  "sourcePath": "/mnt/c/Users/lucas.jennings/Documents/politicoin-token/contracts/Politicoin.sol",
  "compiler": {
    "name": "solc",
    "version": "0.4.24+commit.e67f0147.Emscripten.clang"
  },
  "schemaVersion": "2.0.1",
  "updatedAt": "2019-01-26T12:53:45.468Z"
}