{
  "contractName": "Politicoin",
  "abi": [
    {
      "constant": false,
      "inputs": [
        {
          "name": "spender",
          "type": "address"
        },
        {
          "name": "value",
          "type": "uint256"
        }
      ],
      "name": "approve",
      "outputs": [
        {
          "name": "",
          "type": "bool"
        }
      ],
      "payable": false,
      "stateMutability": "nonpayable",
      "type": "function"
    },
    {
      "constant": true,
      "inputs": [],
      "name": "totalSupply",
      "outputs": [
        {
          "name": "",
          "type": "uint256"
        }
      ],
      "payable": false,
      "stateMutability": "view",
      "type": "function"
    },
    {
      "constant": false,
      "inputs": [
        {
          "name": "spender",
          "type": "address"
        },
        {
          "name": "addedValue",
          "type": "uint256"
        }
      ],
      "name": "increaseAllowance",
      "outputs": [
        {
          "name": "",
          "type": "bool"
        }
      ],
      "payable": false,
      "stateMutability": "nonpayable",
      "type": "function"
    },
    {
      "constant": false,
      "inputs": [
        {
          "name": "to",
          "type": "address"
        },
        {
          "name": "amount",
          "type": "uint256"
        }
      ],
      "name": "mint",
      "outputs": [
        {
          "name": "",
          "type": "bool"
        }
      ],
      "payable": false,
      "stateMutability": "nonpayable",
      "type": "function"
    },
    {
      "constant": true,
      "inputs": [
        {
          "name": "",
          "type": "uint256"
        }
      ],
      "name": "ballots",
      "outputs": [
        {
          "name": "name",
          "type": "string"
        },
        {
          "name": "open",
          "type": "bool"
        },
        {
          "name": "yesVotes",
          "type": "uint256"
        },
        {
          "name": "noVotes",
          "type": "uint256"
        }
      ],
      "payable": false,
      "stateMutability": "view",
      "type": "function"
    },
    {
      "constant": true,
      "inputs": [
        {
          "name": "",
          "type": "address"
        }
      ],
      "name": "_balances",
      "outputs": [
        {
          "name": "",
          "type": "uint256"
        }
      ],
      "payable": false,
      "stateMutability": "view",
      "type": "function"
    },
    {
      "constant": true,
      "inputs": [
        {
          "name": "owner",
          "type": "address"
        }
      ],
      "name": "balanceOf",
      "outputs": [
        {
          "name": "",
          "type": "uint256"
        }
      ],
      "payable": false,
      "stateMutability": "view",
      "type": "function"
    },
    {
      "constant": false,
      "inputs": [
        {
          "name": "account",
          "type": "address"
        }
      ],
      "name": "addMinter",
      "outputs": [],
      "payable": false,
      "stateMutability": "nonpayable",
      "type": "function"
    },
    {
      "constant": false,
      "inputs": [],
      "name": "renounceMinter",
      "outputs": [],
      "payable": false,
      "stateMutability": "nonpayable",
      "type": "function"
    },
    {
      "constant": false,
      "inputs": [
        {
          "name": "spender",
          "type": "address"
        },
        {
          "name": "subtractedValue",
          "type": "uint256"
        }
      ],
      "name": "decreaseAllowance",
      "outputs": [
        {
          "name": "",
          "type": "bool"
        }
      ],
      "payable": false,
      "stateMutability": "nonpayable",
      "type": "function"
    },
    {
      "constant": true,
      "inputs": [
        {
          "name": "account",
          "type": "address"
        }
      ],
      "name": "isMinter",
      "outputs": [
        {
          "name": "",
          "type": "bool"
        }
      ],
      "payable": false,
      "stateMutability": "view",
      "type": "function"
    },
    {
      "constant": true,
      "inputs": [
        {
          "name": "owner",
          "type": "address"
        },
        {
          "name": "spender",
          "type": "address"
        }
      ],
      "name": "allowance",
      "outputs": [
        {
          "name": "",
          "type": "uint256"
        }
      ],
      "payable": false,
      "stateMutability": "view",
      "type": "function"
    },
    {
      "anonymous": false,
      "inputs": [
        {
          "indexed": true,
          "name": "account",
          "type": "address"
        }
      ],
      "name": "MinterAdded",
      "type": "event"
    },
    {
      "anonymous": false,
      "inputs": [
        {
          "indexed": true,
          "name": "account",
          "type": "address"
        }
      ],
      "name": "MinterRemoved",
      "type": "event"
    },
    {
      "constant": false,
      "inputs": [
        {
          "name": "_addresses",
          "type": "address[]"
        },
        {
          "name": "_amounts",
          "type": "uint256[]"
        }
      ],
      "name": "distribute",
      "outputs": [
        {
          "name": "",
          "type": "bool[]"
        }
      ],
      "payable": false,
      "stateMutability": "nonpayable",
      "type": "function"
    },
    {
      "constant": false,
      "inputs": [
        {
          "name": "_whiteListAddy",
          "type": "address"
        }
      ],
      "name": "whitelistAddress",
      "outputs": [
        {
          "name": "",
          "type": "bool"
        }
      ],
      "payable": false,
      "stateMutability": "nonpayable",
      "type": "function"
    },
    {
      "constant": false,
      "inputs": [
        {
          "name": "_whiteListAddys",
          "type": "address[]"
        }
      ],
      "name": "whiteListAddresses",
      "outputs": [
        {
          "name": "",
          "type": "bool[]"
        }
      ],
      "payable": false,
      "stateMutability": "nonpayable",
      "type": "function"
    },
    {
      "constant": true,
      "inputs": [
        {
          "name": "_checkAddress",
          "type": "address"
        }
      ],
      "name": "isWhiteListed",
      "outputs": [
        {
          "name": "",
          "type": "bool"
        }
      ],
      "payable": false,
      "stateMutability": "view",
      "type": "function"
    },
    {
      "constant": false,
      "inputs": [
        {
          "name": "_ballotName",
          "type": "string"
        }
      ],
      "name": "createBallot",
      "outputs": [
        {
          "name": "ballotId",
          "type": "uint256"
        }
      ],
      "payable": false,
      "stateMutability": "nonpayable",
      "type": "function"
    },
    {
      "constant": true,
      "inputs": [
        {
          "name": "_ballotId",
          "type": "uint256"
        }
      ],
      "name": "isBallotOpen",
      "outputs": [
        {
          "name": "",
          "type": "bool"
        }
      ],
      "payable": false,
      "stateMutability": "view",
      "type": "function"
    },
    {
      "constant": true,
      "inputs": [],
      "name": "getHighestBallotId",
      "outputs": [
        {
          "name": "",
          "type": "uint256"
        }
      ],
      "payable": false,
      "stateMutability": "view",
      "type": "function"
    },
    {
      "constant": true,
      "inputs": [],
      "name": "getAllOpenBallotIds",
      "outputs": [
        {
          "name": "",
          "type": "uint256[]"
        }
      ],
      "payable": false,
      "stateMutability": "view",
      "type": "function"
    },
    {
      "constant": true,
      "inputs": [],
      "name": "getAllBallotIds",
      "outputs": [
        {
          "name": "",
          "type": "uint256[]"
        }
      ],
      "payable": false,
      "stateMutability": "view",
      "type": "function"
    },
    {
      "constant": true,
      "inputs": [
        {
          "name": "_ballotId",
          "type": "uint256"
        }
      ],
      "name": "showBallot",
      "outputs": [
        {
          "name": "_ballotName",
          "type": "string"
        },
        {
          "name": "_ballotOpen",
          "type": "bool"
        },
        {
          "name": "_ballotYesVotes",
          "type": "uint256"
        },
        {
          "name": "_ballotNoVotes",
          "type": "uint256"
        }
      ],
      "payable": false,
      "stateMutability": "view",
      "type": "function"
    },
    {
      "constant": true,
      "inputs": [
        {
          "name": "_ballotId",
          "type": "uint256"
        }
      ],
      "name": "isValidBallot",
      "outputs": [
        {
          "name": "",
          "type": "bool"
        }
      ],
      "payable": false,
      "stateMutability": "view",
      "type": "function"
    },
    {
      "constant": false,
      "inputs": [
        {
          "name": "_ballotId",
          "type": "uint256"
        }
      ],
      "name": "openBallot",
      "outputs": [
        {
          "name": "",
          "type": "bool"
        }
      ],
      "payable": false,
      "stateMutability": "nonpayable",
      "type": "function"
    },
    {
      "constant": false,
      "inputs": [
        {
          "name": "_ballotId",
          "type": "uint256"
        }
      ],
      "name": "closeBallot",
      "outputs": [
        {
          "name": "",
          "type": "bool"
        }
      ],
      "payable": false,
      "stateMutability": "nonpayable",
      "type": "function"
    },
    {
      "constant": false,
      "inputs": [
        {
          "name": "_ballotId",
          "type": "uint256"
        },
        {
          "name": "_yesVote",
          "type": "bool"
        }
      ],
      "name": "castVote",
      "outputs": [
        {
          "name": "",
          "type": "bool"
        }
      ],
      "payable": false,
      "stateMutability": "nonpayable",
      "type": "function"
    },
    {
      "constant": false,
      "inputs": [
        {
          "name": "_to",
          "type": "address"
        },
        {
          "name": "_value",
          "type": "uint256"
        }
      ],
      "name": "transfer",
      "outputs": [
        {
          "name": "",
          "type": "bool"
        }
      ],
      "payable": false,
      "stateMutability": "nonpayable",
      "type": "function"
    },
    {
      "constant": false,
      "inputs": [
        {
          "name": "_from",
          "type": "address"
        },
        {
          "name": "_to",
          "type": "address"
        },
        {
          "name": "_value",
          "type": "uint256"
        }
      ],
      "name": "transferFrom",
      "outputs": [
        {
          "name": "",
          "type": "bool"
        }
      ],
      "payable": false,
      "stateMutability": "nonpayable",
      "type": "function"
    }
  ],
  "bytecode": "0x60806040526200001e3362000024640100000000026401000000009004565b62000129565b620000488160036200008e64010000000002620034d7179091906401000000009004565b8073ffffffffffffffffffffffffffffffffffffffff167f6ae172837ea30b801fbfcdd4108aa1d5bf8ff775444fd70256b44e6bf3dfc3f660405160405180910390a250565b600073ffffffffffffffffffffffffffffffffffffffff168173ffffffffffffffffffffffffffffffffffffffff1614151515620000cb57600080fd5b60018260000160008373ffffffffffffffffffffffffffffffffffffffff1673ffffffffffffffffffffffffffffffffffffffff16815260200190815260200160002060006101000a81548160ff0219169083151502179055505050565b61370880620001396000396000f30060806040526004361061016a576000357c0100000000000000000000000000000000000000000000000000000000900463ffffffff168063095ea7b31461016f57806315373e3d146101d457806318160ddd1461022557806323b872dd146102505780632929abe6146102d557806339509351146103d357806340c10f1914610438578063415665851461049d57806346a86576146104f8578063562d0e61146105755780635c632b38146105e15780636eb0cfc5146106a05780636ebcf6071461075f5780636f9170f6146107b657806370a082311461081157806370d1a103146108685780637fc09ea4146108ad578063983b2d56146108d8578063986502751461091b578063a457c2d714610932578063a9059cbb14610997578063aa271e1a146109fc578063bd309dd914610a57578063d045f1e414610ac3578063dd62ed3e14610b08578063e13639db14610b7f578063f0b0b7cd14610c3a578063f867a2d814610c7f575b600080fd5b34801561017b57600080fd5b506101ba600480360381019080803573ffffffffffffffffffffffffffffffffffffffff16906020019092919080359060200190929190505050610cc4565b604051808215151515815260200191505060405180910390f35b3480156101e057600080fd5b5061020b60048036038101908080359060200190929190803515159060200190929190505050610d8c565b604051808215151515815260200191505060405180910390f35b34801561023157600080fd5b5061023a61188e565b6040518082815260200191505060405180910390f35b34801561025c57600080fd5b506102bb600480360381019080803573ffffffffffffffffffffffffffffffffffffffff169060200190929190803573ffffffffffffffffffffffffffffffffffffffff16906020019092919080359060200190929190505050611898565b604051808215151515815260200191505060405180910390f35b3480156102e157600080fd5b5061037c60048036038101908080359060200190820180359060200190808060200260200160405190810160405280939291908181526020018383602002808284378201915050505050509192919290803590602001908201803590602001908080602002602001604051908101604052809392919081815260200183836020028082843782019150505050505091929192905050506120b6565b6040518080602001828103825283818151815260200191508051906020019060200280838360005b838110156103bf5780820151818401526020810190506103a4565b505050509050019250505060405180910390f35b3480156103df57600080fd5b5061041e600480360381019080803573ffffffffffffffffffffffffffffffffffffffff16906020019092919080359060200190929190505050612129565b604051808215151515815260200191505060405180910390f35b34801561044457600080fd5b50610483600480360381019080803573ffffffffffffffffffffffffffffffffffffffff1690602001909291908035906020019092919050505061227f565b604051808215151515815260200191505060405180910390f35b3480156104a957600080fd5b506104de600480360381019080803573ffffffffffffffffffffffffffffffffffffffff1690602001909291905050506122a9565b604051808215151515815260200191505060405180910390f35b34801561050457600080fd5b5061055f600480360381019080803590602001908201803590602001908080601f0160208091040260200160405190810160405280939291908181526020018383808284378201915050505050509192919290505050612320565b6040518082815260200191505060405180910390f35b34801561058157600080fd5b5061058a612410565b6040518080602001828103825283818151815260200191508051906020019060200280838360005b838110156105cd5780820151818401526020810190506105b2565b505050509050019250505060405180910390f35b3480156105ed57600080fd5b5061060c60048036038101908080359060200190929190505050612468565b604051808060200185151515158152602001848152602001838152602001828103825286818151815260200191508051906020019080838360005b83811015610662578082015181840152602081019050610647565b50505050905090810190601f16801561068f5780820380516001836020036101000a031916815260200191505b509550505050505060405180910390f35b3480156106ac57600080fd5b506106cb6004803603810190808035906020019092919050505061253d565b604051808060200185151515158152602001848152602001838152602001828103825286818151815260200191508051906020019080838360005b83811015610721578082015181840152602081019050610706565b50505050905090810190601f16801561074e5780820380516001836020036101000a031916815260200191505b509550505050505060405180910390f35b34801561076b57600080fd5b506107a0600480360381019080803573ffffffffffffffffffffffffffffffffffffffff169060200190929190505050612657565b6040518082815260200191505060405180910390f35b3480156107c257600080fd5b506107f7600480360381019080803573ffffffffffffffffffffffffffffffffffffffff16906020019092919050505061266f565b604051808215151515815260200191505060405180910390f35b34801561081d57600080fd5b50610852600480360381019080803573ffffffffffffffffffffffffffffffffffffffff1690602001909291905050506126c5565b6040518082815260200191505060405180910390f35b34801561087457600080fd5b506108936004803603810190808035906020019092919050505061270d565b604051808215151515815260200191505060405180910390f35b3480156108b957600080fd5b506108c2612728565b6040518082815260200191505060405180910390f35b3480156108e457600080fd5b50610919600480360381019080803573ffffffffffffffffffffffffffffffffffffffff169060200190929190505050612732565b005b34801561092757600080fd5b50610930612752565b005b34801561093e57600080fd5b5061097d600480360381019080803573ffffffffffffffffffffffffffffffffffffffff1690602001909291908035906020019092919050505061275d565b604051808215151515815260200191505060405180910390f35b3480156109a357600080fd5b506109e2600480360381019080803573ffffffffffffffffffffffffffffffffffffffff169060200190929190803590602001909291905050506128b3565b604051808215151515815260200191505060405180910390f35b348015610a0857600080fd5b50610a3d600480360381019080803573ffffffffffffffffffffffffffffffffffffffff169060200190929190505050612f36565b604051808215151515815260200191505060405180910390f35b348015610a6357600080fd5b50610a6c612f53565b6040518080602001828103825283818151815260200191508051906020019060200280838360005b83811015610aaf578082015181840152602081019050610a94565b505050509050019250505060405180910390f35b348015610acf57600080fd5b50610aee60048036038101908080359060200190929190505050612fab565b604051808215151515815260200191505060405180910390f35b348015610b1457600080fd5b50610b69600480360381019080803573ffffffffffffffffffffffffffffffffffffffff169060200190929190803573ffffffffffffffffffffffffffffffffffffffff16906020019092919050505061309c565b6040518082815260200191505060405180910390f35b348015610b8b57600080fd5b50610be360048036038101908080359060200190820180359060200190808060200260200160405190810160405280939291908181526020018383602002808284378201915050505050509192919290505050613123565b6040518080602001828103825283818151815260200191508051906020019060200280838360005b83811015610c26578082015181840152602081019050610c0b565b505050509050019250505060405180910390f35b348015610c4657600080fd5b50610c656004803603810190808035906020019092919050505061317d565b604051808215151515815260200191505060405180910390f35b348015610c8b57600080fd5b50610caa600480360381019080803590602001909291905050506131c0565b604051808215151515815260200191505060405180910390f35b60008073ffffffffffffffffffffffffffffffffffffffff168373ffffffffffffffffffffffffffffffffffffffff1614151515610d0157600080fd5b81600160003373ffffffffffffffffffffffffffffffffffffffff1673ffffffffffffffffffffffffffffffffffffffff16815260200190815260200160002060008573ffffffffffffffffffffffffffffffffffffffff1673ffffffffffffffffffffffffffffffffffffffff168152602001908152602001600020819055506001905092915050565b60003360011515600460008373ffffffffffffffffffffffffffffffffffffffff1673ffffffffffffffffffffffffffffffffffffffff16815260200190815260200160002060009054906101000a900460ff161515141515610dee57600080fd5b83610df88161317d565b1515610e0357600080fd5b60008060003373ffffffffffffffffffffffffffffffffffffffff1673ffffffffffffffffffffffffffffffffffffffff16815260200190815260200160002054111515610e5057600080fd5b6000600a600087815260200190815260200160002060003373ffffffffffffffffffffffffffffffffffffffff1673ffffffffffffffffffffffffffffffffffffffff16815260200190815260200160002060000154111561126a57831561109e576000803373ffffffffffffffffffffffffffffffffffffffff1673ffffffffffffffffffffffffffffffffffffffff16815260200190815260200160002054600a600087815260200190815260200160002060003373ffffffffffffffffffffffffffffffffffffffff1673ffffffffffffffffffffffffffffffffffffffff16815260200190815260200160002060000154101561109957600a600086815260200190815260200160002060003373ffffffffffffffffffffffffffffffffffffffff1673ffffffffffffffffffffffffffffffffffffffff168152602001908152602001600020600001546000803373ffffffffffffffffffffffffffffffffffffffff1673ffffffffffffffffffffffffffffffffffffffff168152602001908152602001600020540360066000878152602001908152602001600020600201600082825401925050819055506000803373ffffffffffffffffffffffffffffffffffffffff1673ffffffffffffffffffffffffffffffffffffffff16815260200190815260200160002054600a600087815260200190815260200160002060003373ffffffffffffffffffffffffffffffffffffffff1673ffffffffffffffffffffffffffffffffffffffff168152602001908152602001600020600001819055505b611265565b600a600086815260200190815260200160002060003373ffffffffffffffffffffffffffffffffffffffff1673ffffffffffffffffffffffffffffffffffffffff168152602001908152602001600020600001546006600087815260200190815260200160002060020160008282540392505081905550600a600086815260200190815260200160002060003373ffffffffffffffffffffffffffffffffffffffff1673ffffffffffffffffffffffffffffffffffffffff168152602001908152602001600020600001600090556000803373ffffffffffffffffffffffffffffffffffffffff1673ffffffffffffffffffffffffffffffffffffffff1681526020019081526020016000205460066000878152602001908152602001600020600301600082825401925050819055506000803373ffffffffffffffffffffffffffffffffffffffff1673ffffffffffffffffffffffffffffffffffffffff16815260200190815260200160002054600a600087815260200190815260200160002060003373ffffffffffffffffffffffffffffffffffffffff1673ffffffffffffffffffffffffffffffffffffffff168152602001908152602001600020600101819055505b611882565b6000600a600087815260200190815260200160002060003373ffffffffffffffffffffffffffffffffffffffff1673ffffffffffffffffffffffffffffffffffffffff16815260200190815260200160002060010154111561168457831561149757600a600086815260200190815260200160002060003373ffffffffffffffffffffffffffffffffffffffff1673ffffffffffffffffffffffffffffffffffffffff168152602001908152602001600020600101546006600087815260200190815260200160002060030160008282540392505081905550600a600086815260200190815260200160002060003373ffffffffffffffffffffffffffffffffffffffff1673ffffffffffffffffffffffffffffffffffffffff168152602001908152602001600020600101600090556000803373ffffffffffffffffffffffffffffffffffffffff1673ffffffffffffffffffffffffffffffffffffffff1681526020019081526020016000205460066000878152602001908152602001600020600201600082825401925050819055506000803373ffffffffffffffffffffffffffffffffffffffff1673ffffffffffffffffffffffffffffffffffffffff16815260200190815260200160002054600a600087815260200190815260200160002060003373ffffffffffffffffffffffffffffffffffffffff1673ffffffffffffffffffffffffffffffffffffffff1681526020019081526020016000206000018190555061167f565b6000803373ffffffffffffffffffffffffffffffffffffffff1673ffffffffffffffffffffffffffffffffffffffff16815260200190815260200160002054600a600087815260200190815260200160002060003373ffffffffffffffffffffffffffffffffffffffff1673ffffffffffffffffffffffffffffffffffffffff16815260200190815260200160002060010154101561167e57600a600086815260200190815260200160002060003373ffffffffffffffffffffffffffffffffffffffff1673ffffffffffffffffffffffffffffffffffffffff168152602001908152602001600020600101546000803373ffffffffffffffffffffffffffffffffffffffff1673ffffffffffffffffffffffffffffffffffffffff168152602001908152602001600020540360066000878152602001908152602001600020600301600082825401925050819055506000803373ffffffffffffffffffffffffffffffffffffffff1673ffffffffffffffffffffffffffffffffffffffff16815260200190815260200160002054600a600087815260200190815260200160002060003373ffffffffffffffffffffffffffffffffffffffff1673ffffffffffffffffffffffffffffffffffffffff168152602001908152602001600020600101819055505b5b611881565b8315611787576000803373ffffffffffffffffffffffffffffffffffffffff1673ffffffffffffffffffffffffffffffffffffffff1681526020019081526020016000205460066000878152602001908152602001600020600201600082825401925050819055506000803373ffffffffffffffffffffffffffffffffffffffff1673ffffffffffffffffffffffffffffffffffffffff16815260200190815260200160002054600a600087815260200190815260200160002060003373ffffffffffffffffffffffffffffffffffffffff1673ffffffffffffffffffffffffffffffffffffffff16815260200190815260200160002060000181905550611880565b6000803373ffffffffffffffffffffffffffffffffffffffff1673ffffffffffffffffffffffffffffffffffffffff1681526020019081526020016000205460066000878152602001908152602001600020600301600082825401925050819055506000803373ffffffffffffffffffffffffffffffffffffffff1673ffffffffffffffffffffffffffffffffffffffff16815260200190815260200160002054600a600087815260200190815260200160002060003373ffffffffffffffffffffffffffffffffffffffff1673ffffffffffffffffffffffffffffffffffffffff168152602001908152602001600020600101819055505b5b5b60019250505092915050565b6000600254905090565b6000806000808673ffffffffffffffffffffffffffffffffffffffff1673ffffffffffffffffffffffffffffffffffffffff1681526020019081526020016000205483111515156118e857600080fd5b600160008673ffffffffffffffffffffffffffffffffffffffff1673ffffffffffffffffffffffffffffffffffffffff16815260200190815260200160002060003373ffffffffffffffffffffffffffffffffffffffff1673ffffffffffffffffffffffffffffffffffffffff16815260200190815260200160002054831115151561197357600080fd5b600073ffffffffffffffffffffffffffffffffffffffff168473ffffffffffffffffffffffffffffffffffffffff16141515156119af57600080fd5b611a00836000808873ffffffffffffffffffffffffffffffffffffffff1673ffffffffffffffffffffffffffffffffffffffff1681526020019081526020016000205461327590919063ffffffff16565b6000808773ffffffffffffffffffffffffffffffffffffffff1673ffffffffffffffffffffffffffffffffffffffff16815260200190815260200160002081905550611a93836000808773ffffffffffffffffffffffffffffffffffffffff1673ffffffffffffffffffffffffffffffffffffffff1681526020019081526020016000205461329690919063ffffffff16565b6000808673ffffffffffffffffffffffffffffffffffffffff1673ffffffffffffffffffffffffffffffffffffffff16815260200190815260200160002081905550611b6483600160008873ffffffffffffffffffffffffffffffffffffffff1673ffffffffffffffffffffffffffffffffffffffff16815260200190815260200160002060003373ffffffffffffffffffffffffffffffffffffffff1673ffffffffffffffffffffffffffffffffffffffff1681526020019081526020016000205461327590919063ffffffff16565b600160008773ffffffffffffffffffffffffffffffffffffffff1673ffffffffffffffffffffffffffffffffffffffff16815260200190815260200160002060003373ffffffffffffffffffffffffffffffffffffffff1673ffffffffffffffffffffffffffffffffffffffff16815260200190815260200160002081905550600090505b6008805490508110156120aa576000808673ffffffffffffffffffffffffffffffffffffffff1673ffffffffffffffffffffffffffffffffffffffff16815260200190815260200160002054600a6000600884815481101515611c4857fe5b9060005260206000200154815260200190815260200160002060008773ffffffffffffffffffffffffffffffffffffffff1673ffffffffffffffffffffffffffffffffffffffff168152602001908152602001600020600001541115611e4b57611d966000808773ffffffffffffffffffffffffffffffffffffffff1673ffffffffffffffffffffffffffffffffffffffff16815260200190815260200160002054600a6000600885815481101515611cfd57fe5b9060005260206000200154815260200190815260200160002060008873ffffffffffffffffffffffffffffffffffffffff1673ffffffffffffffffffffffffffffffffffffffff168152602001908152602001600020600001540360066000600885815481101515611d6b57fe5b906000526020600020015481526020019081526020016000206002015461327590919063ffffffff16565b506000808673ffffffffffffffffffffffffffffffffffffffff1673ffffffffffffffffffffffffffffffffffffffff16815260200190815260200160002054600a6000600884815481101515611de957fe5b9060005260206000200154815260200190815260200160002060008773ffffffffffffffffffffffffffffffffffffffff1673ffffffffffffffffffffffffffffffffffffffff1681526020019081526020016000206000018190555061209d565b6000808673ffffffffffffffffffffffffffffffffffffffff1673ffffffffffffffffffffffffffffffffffffffff16815260200190815260200160002054600a6000600884815481101515611e9d57fe5b9060005260206000200154815260200190815260200160002060008773ffffffffffffffffffffffffffffffffffffffff1673ffffffffffffffffffffffffffffffffffffffff16815260200190815260200160002060010154111561209c57611feb6000808773ffffffffffffffffffffffffffffffffffffffff1673ffffffffffffffffffffffffffffffffffffffff16815260200190815260200160002054600a6000600885815481101515611f5257fe5b9060005260206000200154815260200190815260200160002060008873ffffffffffffffffffffffffffffffffffffffff1673ffffffffffffffffffffffffffffffffffffffff168152602001908152602001600020600101540360066000600885815481101515611fc057fe5b906000526020600020015481526020019081526020016000206003015461327590919063ffffffff16565b506000808673ffffffffffffffffffffffffffffffffffffffff1673ffffffffffffffffffffffffffffffffffffffff16815260200190815260200160002054600a600060088481548110151561203e57fe5b9060005260206000200154815260200190815260200160002060008773ffffffffffffffffffffffffffffffffffffffff1673ffffffffffffffffffffffffffffffffffffffff168152602001908152602001600020600101819055505b5b8080600101915050611be9565b60019150509392505050565b606060006120c333612f36565b15156120ce57600080fd5b600090505b83518110156121225761211484828151811015156120ed57fe5b90602001906020020151848381518110151561210557fe5b9060200190602002015161227f565b5080806001019150506120d3565b5092915050565b60008073ffffffffffffffffffffffffffffffffffffffff168373ffffffffffffffffffffffffffffffffffffffff161415151561216657600080fd5b6121f582600160003373ffffffffffffffffffffffffffffffffffffffff1673ffffffffffffffffffffffffffffffffffffffff16815260200190815260200160002060008673ffffffffffffffffffffffffffffffffffffffff1673ffffffffffffffffffffffffffffffffffffffff1681526020019081526020016000205461329690919063ffffffff16565b600160003373ffffffffffffffffffffffffffffffffffffffff1673ffffffffffffffffffffffffffffffffffffffff16815260200190815260200160002060008573ffffffffffffffffffffffffffffffffffffffff1673ffffffffffffffffffffffffffffffffffffffff168152602001908152602001600020819055506001905092915050565b600061228a33612f36565b151561229557600080fd5b61229f83836132b7565b6001905092915050565b60006122b433612f36565b15156122bf57600080fd5b6001600460008473ffffffffffffffffffffffffffffffffffffffff1673ffffffffffffffffffffffffffffffffffffffff16815260200190815260200160002060006101000a81548160ff02191690831515021790555060019050919050565b600061232b33612f36565b151561233657600080fd5b60056000815480929190600101919050555060806040519081016040528083815260200160001515815260200160008152602001600081525060066000600554815260200190815260200160002060008201518160000190805190602001906123a092919061360b565b5060208201518160010160006101000a81548160ff0219169083151502179055506040820151816002015560608201518160030155905050600760055490806001815401808255809150509060018203906000526020600020016000909192909190915055506005549050919050565b6060600780548060200260200160405190810160405280929190818152602001828054801561245e57602002820191906000526020600020905b81548152602001906001019080831161244a575b5050505050905090565b6006602052806000526040600020600091509050806000018054600181600116156101000203166002900480601f0160208091040260200160405190810160405280929190818152602001828054600181600116156101000203166002900480156125145780601f106124e957610100808354040283529160200191612514565b820191906000526020600020905b8154815290600101906020018083116124f757829003601f168201915b5050505050908060010160009054906101000a900460ff16908060020154908060030154905084565b60606000806000600660008681526020019081526020016000206000016006600087815260200190815260200160002060010160009054906101000a900460ff1660066000888152602001908152602001600020600201546006600089815260200190815260200160002060030154838054600181600116156101000203166002900480601f0160208091040260200160405190810160405280929190818152602001828054600181600116156101000203166002900480156126415780601f1061261657610100808354040283529160200191612641565b820191906000526020600020905b81548152906001019060200180831161262457829003601f168201915b5050505050935093509350935093509193509193565b60006020528060005260406000206000915090505481565b6000600460008373ffffffffffffffffffffffffffffffffffffffff1673ffffffffffffffffffffffffffffffffffffffff16815260200190815260200160002060009054906101000a900460ff169050919050565b60008060008373ffffffffffffffffffffffffffffffffffffffff1673ffffffffffffffffffffffffffffffffffffffff168152602001908152602001600020549050919050565b600080821415801561272157506005548211155b9050919050565b6000600554905090565b61273b33612f36565b151561274657600080fd5b61274f8161338f565b50565b61275b336133e9565b565b60008073ffffffffffffffffffffffffffffffffffffffff168373ffffffffffffffffffffffffffffffffffffffff161415151561279a57600080fd5b61282982600160003373ffffffffffffffffffffffffffffffffffffffff1673ffffffffffffffffffffffffffffffffffffffff16815260200190815260200160002060008673ffffffffffffffffffffffffffffffffffffffff1673ffffffffffffffffffffffffffffffffffffffff1681526020019081526020016000205461327590919063ffffffff16565b600160003373ffffffffffffffffffffffffffffffffffffffff1673ffffffffffffffffffffffffffffffffffffffff16815260200190815260200160002060008573ffffffffffffffffffffffffffffffffffffffff1673ffffffffffffffffffffffffffffffffffffffff168152602001908152602001600020819055506001905092915050565b6000806000803373ffffffffffffffffffffffffffffffffffffffff1673ffffffffffffffffffffffffffffffffffffffff16815260200190815260200160002054831115151561290357600080fd5b600073ffffffffffffffffffffffffffffffffffffffff168473ffffffffffffffffffffffffffffffffffffffff161415151561293f57600080fd5b612990836000803373ffffffffffffffffffffffffffffffffffffffff1673ffffffffffffffffffffffffffffffffffffffff1681526020019081526020016000205461327590919063ffffffff16565b6000803373ffffffffffffffffffffffffffffffffffffffff1673ffffffffffffffffffffffffffffffffffffffff16815260200190815260200160002081905550612a23836000808773ffffffffffffffffffffffffffffffffffffffff1673ffffffffffffffffffffffffffffffffffffffff1681526020019081526020016000205461329690919063ffffffff16565b6000808673ffffffffffffffffffffffffffffffffffffffff1673ffffffffffffffffffffffffffffffffffffffff16815260200190815260200160002081905550600090505b600880549050811015612f2b576000803373ffffffffffffffffffffffffffffffffffffffff1673ffffffffffffffffffffffffffffffffffffffff16815260200190815260200160002054600a6000600884815481101515612ac957fe5b9060005260206000200154815260200190815260200160002060003373ffffffffffffffffffffffffffffffffffffffff1673ffffffffffffffffffffffffffffffffffffffff168152602001908152602001600020600001541115612ccc57612c176000803373ffffffffffffffffffffffffffffffffffffffff1673ffffffffffffffffffffffffffffffffffffffff16815260200190815260200160002054600a6000600885815481101515612b7e57fe5b9060005260206000200154815260200190815260200160002060003373ffffffffffffffffffffffffffffffffffffffff1673ffffffffffffffffffffffffffffffffffffffff168152602001908152602001600020600001540360066000600885815481101515612bec57fe5b906000526020600020015481526020019081526020016000206002015461327590919063ffffffff16565b506000803373ffffffffffffffffffffffffffffffffffffffff1673ffffffffffffffffffffffffffffffffffffffff16815260200190815260200160002054600a6000600884815481101515612c6a57fe5b9060005260206000200154815260200190815260200160002060003373ffffffffffffffffffffffffffffffffffffffff1673ffffffffffffffffffffffffffffffffffffffff16815260200190815260200160002060000181905550612f1e565b6000803373ffffffffffffffffffffffffffffffffffffffff1673ffffffffffffffffffffffffffffffffffffffff16815260200190815260200160002054600a6000600884815481101515612d1e57fe5b9060005260206000200154815260200190815260200160002060003373ffffffffffffffffffffffffffffffffffffffff1673ffffffffffffffffffffffffffffffffffffffff168152602001908152602001600020600101541115612f1d57612e6c6000803373ffffffffffffffffffffffffffffffffffffffff1673ffffffffffffffffffffffffffffffffffffffff16815260200190815260200160002054600a6000600885815481101515612dd357fe5b9060005260206000200154815260200190815260200160002060003373ffffffffffffffffffffffffffffffffffffffff1673ffffffffffffffffffffffffffffffffffffffff168152602001908152602001600020600101540360066000600885815481101515612e4157fe5b906000526020600020015481526020019081526020016000206003015461327590919063ffffffff16565b506000803373ffffffffffffffffffffffffffffffffffffffff1673ffffffffffffffffffffffffffffffffffffffff16815260200190815260200160002054600a6000600884815481101515612ebf57fe5b9060005260206000200154815260200190815260200160002060003373ffffffffffffffffffffffffffffffffffffffff1673ffffffffffffffffffffffffffffffffffffffff168152602001908152602001600020600101819055505b5b8080600101915050612a6a565b600191505092915050565b6000612f4c82600361344390919063ffffffff16565b9050919050565b60606008805480602002602001604051908101604052809291908181526020018280548015612fa157602002820191906000526020600020905b815481526020019060010190808311612f8d575b5050505050905090565b6000612fb633612f36565b1515612fc157600080fd5b81612fcb8161317d565b1515612fd657600080fd5b60006006600085815260200190815260200160002060010160006101000a81548160ff021916908315150217905550600160088054905003600960008581526020019081526020016000205414151561307c57600860016008805490500381548110151561304057fe5b90600052602060002001546008600960008681526020019081526020016000205481548110151561306d57fe5b90600052602060002001819055505b6008805480919060019003613091919061368b565b506001915050919050565b6000600160008473ffffffffffffffffffffffffffffffffffffffff1673ffffffffffffffffffffffffffffffffffffffff16815260200190815260200160002060008373ffffffffffffffffffffffffffffffffffffffff1673ffffffffffffffffffffffffffffffffffffffff16815260200190815260200160002054905092915050565b6060600061313033612f36565b151561313b57600080fd5b600090505b825181101561317757613169838281518110151561315a57fe5b906020019060200201516122a9565b508080600101915050613140565b50919050565b6000816131898161270d565b151561319457600080fd5b6006600084815260200190815260200160002060010160009054906101000a900460ff16915050919050565b60006131cb33612f36565b15156131d657600080fd5b600015156131e38361317d565b15151415156131f157600080fd5b60016006600084815260200190815260200160002060010160006101000a81548160ff0219169083151502179055506008829080600181540180825580915050906001820390600052602060002001600090919290919091505550600160088054905003600960008481526020019081526020016000208190555060019050919050565b60008083831115151561328757600080fd5b82840390508091505092915050565b60008082840190508381101515156132ad57600080fd5b8091505092915050565b60008273ffffffffffffffffffffffffffffffffffffffff16141515156132dd57600080fd5b6132f28160025461329690919063ffffffff16565b600281905550613349816000808573ffffffffffffffffffffffffffffffffffffffff1673ffffffffffffffffffffffffffffffffffffffff1681526020019081526020016000205461329690919063ffffffff16565b6000808473ffffffffffffffffffffffffffffffffffffffff1673ffffffffffffffffffffffffffffffffffffffff168152602001908152602001600020819055505050565b6133a38160036134d790919063ffffffff16565b8073ffffffffffffffffffffffffffffffffffffffff167f6ae172837ea30b801fbfcdd4108aa1d5bf8ff775444fd70256b44e6bf3dfc3f660405160405180910390a250565b6133fd81600361357190919063ffffffff16565b8073ffffffffffffffffffffffffffffffffffffffff167fe94479a9f7e1952cc78f2d6baab678adc1b772d936c6583def489e524cb6669260405160405180910390a250565b60008073ffffffffffffffffffffffffffffffffffffffff168273ffffffffffffffffffffffffffffffffffffffff161415151561348057600080fd5b8260000160008373ffffffffffffffffffffffffffffffffffffffff1673ffffffffffffffffffffffffffffffffffffffff16815260200190815260200160002060009054906101000a900460ff16905092915050565b600073ffffffffffffffffffffffffffffffffffffffff168173ffffffffffffffffffffffffffffffffffffffff161415151561351357600080fd5b60018260000160008373ffffffffffffffffffffffffffffffffffffffff1673ffffffffffffffffffffffffffffffffffffffff16815260200190815260200160002060006101000a81548160ff0219169083151502179055505050565b600073ffffffffffffffffffffffffffffffffffffffff168173ffffffffffffffffffffffffffffffffffffffff16141515156135ad57600080fd5b60008260000160008373ffffffffffffffffffffffffffffffffffffffff1673ffffffffffffffffffffffffffffffffffffffff16815260200190815260200160002060006101000a81548160ff0219169083151502179055505050565b828054600181600116156101000203166002900490600052602060002090601f016020900481019282601f1061364c57805160ff191683800117855561367a565b8280016001018555821561367a579182015b8281111561367957825182559160200191906001019061365e565b5b50905061368791906136b7565b5090565b8154818355818111156136b2578183600052602060002091820191016136b191906136b7565b5b505050565b6136d991905b808211156136d55760008160009055506001016136bd565b5090565b905600a165627a7a72305820528c25bfe79b13fd7615c8ce7121de2023d38071e8bd0d7c29a3c02f41b3ed920029",
  "source": "pragma solidity ^0.4.24;\r\n\r\nimport \"./libraries/erc20/ERC20Mintable.sol\";\r\n\r\ncontract Politicoin is ERC20Mintable {\r\n  using SafeMath for uint256;\r\n\r\n  mapping (address => bool) private whitelist;\r\n\r\n  uint private maxBallotId;\r\n\r\n  struct Ballot {\r\n    string name;\r\n    bool open;\r\n    uint yesVotes;\r\n    uint noVotes;\r\n  }\r\n\r\n  mapping (uint => Ballot) public ballots;\r\n  uint[] private ballotIds;\r\n  uint[] private openBallots;\r\n  mapping (uint => uint) private openBallotIdIndex;\r\n  /* Stores the index at which a given ballotId exists in openBallots array */\r\n\r\n  struct CastVote {\r\n    uint yesVotes;\r\n    uint noVotes;\r\n  }\r\n\r\n  mapping (uint => mapping (address => CastVote)) private ballotAddressVotes;\r\n  /* Used to store current votes on a given ballotId for an address.  Index position 0 is yesVotes and position 1 is no votes.  Only one of these can be a non-zero value */\r\n\r\n  function distribute (address[] _addresses, uint[] _amounts) public onlyMinter returns (bool[]) {\r\n    for (uint i = 0; i < _addresses.length; i++) {\r\n      mint(_addresses[i], _amounts[i]);\r\n    }\r\n  }\r\n\r\n  function whitelistAddress (address _whiteListAddy) public onlyMinter returns (bool) {\r\n    whitelist[_whiteListAddy] = true;\r\n    return true;\r\n  }\r\n\r\n  function whiteListAddresses (address[] _whiteListAddys) public onlyMinter returns (bool[]) {\r\n    for (uint i = 0; i < _whiteListAddys.length; i++) {\r\n      whitelistAddress(_whiteListAddys[i]);\r\n    }\r\n  }\r\n\r\n  modifier whitelistedAddy(address _checkAddress) {\r\n    require(whitelist[_checkAddress] == true);\r\n    _;\r\n  }\r\n\r\n  function isWhiteListed(address _checkAddress) public view returns (bool) {\r\n    return whitelist[_checkAddress];\r\n  }\r\n\r\n  function createBallot (string _ballotName) public onlyMinter returns (uint ballotId)  {\r\n    maxBallotId++;\r\n    ballots[maxBallotId] = Ballot(_ballotName, false, 0, 0);\r\n    ballotIds.push(maxBallotId);\r\n    return maxBallotId;\r\n  }\r\n\r\n  function isBallotOpen (uint _ballotId) public view validBallot(_ballotId) returns (bool) {\r\n    return ballots[_ballotId].open;\r\n  }\r\n\r\n  modifier ballotOpen (uint _ballotId) {\r\n    require(isBallotOpen(_ballotId));\r\n    _;\r\n  }\r\n\r\n  function getHighestBallotId () public view returns (uint) {\r\n    return maxBallotId;\r\n  }\r\n\r\n  function getAllOpenBallotIds () public view returns (uint[]) {\r\n    return openBallots;\r\n  }\r\n\r\n  function getAllBallotIds () public view returns (uint[]) {\r\n    return ballotIds;\r\n  }\r\n\r\n  function showBallot (uint _ballotId) public view returns (string _ballotName, bool _ballotOpen, uint _ballotYesVotes, uint _ballotNoVotes) {\r\n    return (ballots[_ballotId].name, ballots[_ballotId].open, ballots[_ballotId].yesVotes, ballots[_ballotId].noVotes);\r\n  }\r\n\r\n  function isValidBallot (uint _ballotId) public view returns (bool) {\r\n    return _ballotId != 0 && _ballotId <= maxBallotId;\r\n  }\r\n\r\n  modifier validBallot (uint _ballotId) {\r\n    require(isValidBallot(_ballotId));\r\n    _;\r\n  }\r\n\r\n  function openBallot (uint _ballotId) public onlyMinter returns (bool) {\r\n    require(isBallotOpen(_ballotId) == false);\r\n    ballots[_ballotId].open = true;\r\n    openBallots.push(_ballotId);\r\n    openBallotIdIndex[_ballotId] = openBallots.length - 1;\r\n    return true;\r\n  }\r\n\r\n  function closeBallot (uint _ballotId) public onlyMinter ballotOpen(_ballotId) returns (bool) {\r\n    ballots[_ballotId].open = false;\r\n    if (openBallotIdIndex[_ballotId] != openBallots.length - 1) {\r\n      openBallots[openBallotIdIndex[_ballotId]] = openBallots[openBallots.length-1];\r\n    }\r\n    openBallots.length--;\r\n    return true;\r\n  }\r\n\r\n  function castVote (uint _ballotId, bool _yesVote) public whitelistedAddy(msg.sender) ballotOpen(_ballotId) returns (bool) {\r\n    require(_balances[msg.sender] > 0);\r\n    if (ballotAddressVotes[_ballotId][msg.sender].yesVotes > 0) {\r\n      if (_yesVote) {\r\n        if (ballotAddressVotes[_ballotId][msg.sender].yesVotes < _balances[msg.sender]) {\r\n          ballots[_ballotId].yesVotes += _balances[msg.sender] - ballotAddressVotes[_ballotId][msg.sender].yesVotes;\r\n          ballotAddressVotes[_ballotId][msg.sender].yesVotes = _balances[msg.sender];\r\n        }\r\n      }\r\n      else {\r\n        ballots[_ballotId].yesVotes -= ballotAddressVotes[_ballotId][msg.sender].yesVotes;\r\n        delete ballotAddressVotes[_ballotId][msg.sender].yesVotes;\r\n        ballots[_ballotId].noVotes += _balances[msg.sender];\r\n        ballotAddressVotes[_ballotId][msg.sender].noVotes = _balances[msg.sender];\r\n      }\r\n    }\r\n    else if (ballotAddressVotes[_ballotId][msg.sender].noVotes > 0) {\r\n      if (_yesVote) {\r\n        ballots[_ballotId].noVotes -= ballotAddressVotes[_ballotId][msg.sender].noVotes;\r\n        delete ballotAddressVotes[_ballotId][msg.sender].noVotes;\r\n        ballots[_ballotId].yesVotes += _balances[msg.sender];\r\n        ballotAddressVotes[_ballotId][msg.sender].yesVotes = _balances[msg.sender];\r\n      }\r\n      else {\r\n        if (ballotAddressVotes[_ballotId][msg.sender].noVotes < _balances[msg.sender]) {\r\n          ballots[_ballotId].noVotes += _balances[msg.sender] - ballotAddressVotes[_ballotId][msg.sender].noVotes;\r\n          ballotAddressVotes[_ballotId][msg.sender].noVotes = _balances[msg.sender];\r\n        }\r\n      }\r\n    }\r\n    else {\r\n      if (_yesVote) {\r\n        ballots[_ballotId].yesVotes += _balances[msg.sender];\r\n        ballotAddressVotes[_ballotId][msg.sender].yesVotes = _balances[msg.sender];\r\n      }\r\n      else {\r\n        ballots[_ballotId].noVotes += _balances[msg.sender];\r\n        ballotAddressVotes[_ballotId][msg.sender].noVotes = _balances[msg.sender];\r\n      }\r\n    }\r\n    return true;\r\n  }\r\n\r\n  /* Transfer function moved here in order to remove cast votes when transferring tokens */\r\n  function transfer(address _to, uint256 _value) public returns (bool) {\r\n    require(_value <= _balances[msg.sender]);\r\n    require(_to != address(0));\r\n    _balances[msg.sender] = _balances[msg.sender].sub(_value);\r\n    _balances[_to] = _balances[_to].add(_value);\r\n    for (uint i = 0; i < openBallots.length; i++) {\r\n      if (ballotAddressVotes[openBallots[i]][msg.sender].yesVotes > _balances[msg.sender]) {\r\n        ballots[openBallots[i]].yesVotes.sub(ballotAddressVotes[openBallots[i]][msg.sender].yesVotes - _balances[msg.sender]);\r\n        ballotAddressVotes[openBallots[i]][msg.sender].yesVotes = _balances[msg.sender];\r\n      }\r\n      else if (ballotAddressVotes[openBallots[i]][msg.sender].noVotes > _balances[msg.sender]) {\r\n        ballots[openBallots[i]].noVotes.sub(ballotAddressVotes[openBallots[i]][msg.sender].noVotes - _balances[msg.sender]);\r\n        ballotAddressVotes[openBallots[i]][msg.sender].noVotes = _balances[msg.sender];\r\n      }\r\n    }\r\n    return true;\r\n  }\r\n\r\n  /* transferFrom function moved here in order to remove cast votes when transferring tokens */\r\n  function transferFrom(address _from, address _to, uint256 _value) public returns (bool) {\r\n    require(_value <= _balances[_from]);\r\n    require(_value <= _allowed[_from][msg.sender]);\r\n    require(_to != address(0));\r\n\r\n    _balances[_from] = _balances[_from].sub(_value);\r\n    _balances[_to] = _balances[_to].add(_value);\r\n    _allowed[_from][msg.sender] = _allowed[_from][msg.sender].sub(_value);\r\n    for (uint i = 0; i < openBallots.length; i++) {\r\n      if (ballotAddressVotes[openBallots[i]][_from].yesVotes > _balances[_from]) {\r\n        ballots[openBallots[i]].yesVotes.sub(ballotAddressVotes[openBallots[i]][_from].yesVotes - _balances[_from]);\r\n        ballotAddressVotes[openBallots[i]][_from].yesVotes = _balances[_from];\r\n      }\r\n      else if (ballotAddressVotes[openBallots[i]][_from].noVotes > _balances[_from]) {\r\n        ballots[openBallots[i]].noVotes.sub(ballotAddressVotes[openBallots[i]][_from].noVotes - _balances[_from]);\r\n        ballotAddressVotes[openBallots[i]][_from].noVotes = _balances[_from];\r\n      }\r\n    }\r\n    return true;\r\n  }\r\n\r\n}\r\n",
  "sourcePath": "/mnt/c/Users/lucas.jennings/Documents/politicoin-token/contracts/Politicoin.sol",
  "compiler": {
    "name": "solc",
    "version": "0.4.24+commit.e67f0147.Emscripten.clang"
  },
  "schemaVersion": "2.0.1",
  "updatedAt": "2019-01-20T15:03:15.505Z"
}